:02000000415964
:04000300121434326D
:04002300121543323D
:040043001214D5328C
:040063001215283218
:04006B0012152E320A
:0400730012148932A8
:04008B001214B93260
:080093001214BD32C00102F09D
:0300FD008201007D
:1001000075FF80E4D5E0FDE4D5E0FD75EF062275CE
:1001100097DE7597AD53D9BF75D90375DC4675AEBB
:100120004675AF4675CC4675960022758840758930
:1001300021758E12758DE575C80475A7107594200C
:100140007595F07592207593F07591077598027505
:10015000D2F775D3AD75D3CE75D5AD75D4F775C05F
:100160000075A700227598522275A14075F8017597
:10017000A2032275BB1075BC0875B9BF75DF1F756A
:10018000E88375B25A75B3002275A730759B8575E3
:100190009F9A759D08439D4075990175A70022752A
:1001A000A730E59144C0F591903E3AA3E493F584DD
:1001B000903E3AE493F585E59344C0F593903E3C38
:1001C000A3E493F589903E3CE493F58A75A7002259
:1001D000E5D14480F5D12275A72075F1FE75F2674F
:1001E00075F3E775F4FC75A40675A50275A624756C
:1001F0009C0C75D4CB75D5E475CC8775E10375E39C
:100200004075FC4075FB4075A7002275A90075B1CB
:100210001C43B1802275A71075E68243E64075F352
:100220000C75A70075A71075BB0275EE0275A700C7
:1002300075E40643880175A8112275A72043C60CF2
:1002400043D10C75917575B6C075B53075AE7575C1
:10025000BFC075BE0C75A700227597DE7597AD758A
:100260008160C2B3D215C21500007800D8FE00002C
:01027000008D
:1002710075108075110E12010012010F12012B125F
:10028100017312018912019F1201D012016512013D
:10029100691201D712020B12021512023A75A71048
:1002A10075BC0075A700D286C209C208C20AC298ED
:1002B100C299C2957583007582007583FB7582FDB5
:1002C100C2B3C204D216301604740180027402F55E
:1002D100417542007543007544007516FA75175F44
:1002E10075A710C29A8516A58517A48516A385172B
:1002F100A2D29A75A700C2077518FFC203C206C22F
:1003010089C21275A71075A700120D95120D9512CD
:100311000D95D28143B810D2AF7540A575493C7592
:10032100460FC20C75453175A710C29A75A7007F9B
:10033100127E347D5675F020EF840000751D007526
:100341001E00754A00903E3EE493F54EA3E493F5FA
:100351004F903E43E493F54D903E00E4740693F5CF
:100361001AA3740693F51B903E47E493F531903E32
:1003710044E493F51CC295C2193087FD30B302D114
:100381005B2009571208AC2009511208E620094BDD
:10039100903E32E493FBA3E493FA12142830D70879
:1003A100200938754202801E903E34E493FBA3E499
:1003B10093FA12142830D7082009207542038006C9
:0603C1002009187542003E
:1003C7003006071216F0C206800E75BB0A2087FD9D
:1003D700200902809E020865300898C208E53C544F
:1003E700F0B42016D1762010026143C21A903E4421
:1003F700E493F51CF102D21A6143C210E53DB490B3
:10040700028047B480028002617AE53C540FF541CF
:100417007542011218FD53E6FD903DDEE493B4FFEB
:100427000343EF10120C6020040BE53C540FF54119
:10043700754200617AD218E53C540FF541754208C0
:100447003006FD1216F0C206617AD2B3E53C540FAE
:100457004410F54175420175108075110E903E00EC
:10046700740493F512A3740493F513C2D7E51335F7
:100477004DF5C3E5123400F5C4C2D7E513954DF524
:10048700C5E5129400F5C6903E00740293F510A3DB
:10049700740293F511120C243087FD2087FD3087F5
:1004A700FD2087FD43E602D21AB16B300809E53D0E
:1004B700B40004C2088023301202803A3009E820D1
:1004C70004E5780030060C1216F0C2063008D80092
:1004D70043EF10D8EF80EB3006FDC281120986C2C8
:1004E7009575A72053C6F375A700C2A5C2A2D281EE
:1004F7001216F01218747516FF7517FC75A710C23F
:100507009A75A70078003006351216F0C206300833
:0D0517002DE53C54F0B41026E53DB48021E4
:100524007516FA75175F75A710C29A8516A58517F3
:10053400A48516A38517A2D29A75A7001218FD8167
:100544001DC212C20CC204754A00903E00E4740637
:1005540093F51AA3740693F51BD286617AD8AA8000
:10056400A643EF1000800012087A300302A1FC12A7
:1005740008AC1208E675BB0A30062B1216F0C20648
:10058400300823E54154F0B41015E542A2E7B2D790
:10059400928653427FE542754A00120BB38059B4E8
:1005A4000004C295C15A1209E330044C854E8C856F
:1005B4004F8AD28C308DFDC28CC28D43B201AB12F6
:1005C400AA13C2EB1211D775BB1053B2FE30190433
:1005D400D2098024201410201318801C20EB0280E0
:1005E4001712142830D70B1209E320070B120B60E3
:1005F40080061209E3120B0D30035B53E6FDC04283
:10060400C041E53C540FF541754201120C60D041E4
:10061400D04220040EE53C540FF54175420043EFEF
:1006240010617A75106075110E75106075110E9059
:100634003E00740293F510A3740293F511120C2476
:100644003087FD2087FD3087FD2087FD43E6027556
:100654004A00C207C20322851E82851D83A38582A8
:100664001E85831DE583B40308C2B3751D00751E82
:100674000022120E96E54154072420F541754201EB
:0D068400754301754400D2B37547A0C20F45
:100691003087FD2087FD3087FD120801E5415407B1
:1006A1002420F5417542013006161216F0C20630BB
:1006B10008F5C208E53C54F0B400EC43EF1080E7C4
:1006C1003087FD2087FD309209151CE51CB400D749
:1006D100801A120EB0E54154072420F541754202FB
:1006E1007543AA754455751CFFD21022C210120C15
:1006F10052E5415407F541754200754300754400C8
:1007010022301905754200E1AE3087FD1208AC12A6
:1007110008E63006211216F0C206300819E54154E8
:10072100F0B40012E542754200F1B2C208807E8049
:1007310005120BB3807720920EF1BA903E44E493F8
:10074100F51C7542028017151CE51CB4001075429A
:1007510000E541540FF541F1B78052754201208700
:10076100FD7880D8FE0075BB0A758CF4758A80D23D
:100771008C308DFDC28CC28DAB12AA13C2EB12114B
:10078100D775BB1053B2FE201410201318801C2003
:10079100EB02A1FC12142830D70B3087FD20070B88
:1007A100120B6080063087FD120B0DE102C2192287
:1007B10022C2951216F0C29522120EB0008512F0D7
:1007C100782BE2B5F00A8513F0782CE2B5F001221E
:1007D100F1D4222087FD3087FD782BE2F512782CA9
:0F07E100E2F513C2D7E513354DF5C3E512340029
:1007F000F5C4C2D7E513954DF5C5E5129400F5C6CD
:100800002275106075110E903E38E493F512A3E442
:1008100093F513C2D7E513354DF5C3E5123400F552
:10082000C4C2D7E513954DF5C5E5129400F5C69100
:10083000243087FD2087FD3087FD2087FD3087FD30
:100840002087FD3087FD2087FD3087FD2087FD3024
:1008500087FD2087FD3087FD2087FD3087FD2087BD
:10086000FD43E60222C2957800D8FE3006F9121642
:10087000F0C2063008F10043EF1031E3E54AB4E07E
:10088000028003054A22AB1AAA1BA9BEA8BDE88AAA
:10089000F0C395F0E98BF095F020D708D207D51872
:1008A000083120227518FFC207C20322903E36E4A9
:1008B00093FBA3E493FA1211BAE5BEB40F09E5BDA8
:1008C000B4FF0431278011E5BEB40004312780084D
:1008D00012142830D702313230150A900104E5BED7
:1008E000F0A3E5BDF022903E30E493FBA3E493FA3D
:1008F000121196E5BEB40F09E5BDB4FF04313D8089
:1009000011E5BEB40004313D800812142830D7022E
:10091000314830150A900106E5BEF0A3E5BDF0228E
:06092000C204C295D203DF
:1009260022D2097541E175421A016522D209754143
:10093600E1754214016522D2097541E1754219013A
:100946006522D2097541E1754215016522D2097504
:1009560041E17542142280FE80FE1218DED2811219
:1009660011D7C2817B007A8012142820D7EC710D32
:100976001218DE80E580FE20A6FD1218DE1218DEB3
:1009860030A5FD20A5FD53D8BFE5FC8531F0C2D7C3
:1009960095F020D744151075DA0075CC0075DD0288
:1009A6008510DE75CC4675FA0075F90075962143FB
:1009B600D840D29530A2FDE5F92510C2D79511F59C
:1009C600FB8510FC75DA462087FD3087FD3006B0C2
:1009D600C2061216F080A980FE43D84022C0BBC0D2
:1009E600C4C0C3C0C6C0C575BB1020ECFDD2EC3078
:1009F600EDFDC2ED20196BD2EC30EDFDC2EDE5BE8A
:100A0600B407F185BEC485BDC3D2EC30EDFDC2EDA1
:100A1600D2EC30EDFDC2EDD2EC30EDFDC2EDE5BD20
:100A260085C3F0C2D795F0E5BE85C4F095F030D702
:100A3600C375C4FF75C3FF75C60075C500C2EBD28A
:100A4600EC30EDFDC2EDD2EC30EDFDC2EDC2EBD2E5
:100A5600EC30EDFDC2ED20190985BEC485BDC3305D
:100A6600EBDBD0C5D0C6D0C3D0C4D0BB22C0C4C077
:100A7600C3C0C6C0C520ECFDD2EC30EDFDC2EDD240
:080A8600EC30EDFDC2EDE5BE10
:100A8E00B405F485BEC485BDC3D2EC30EDFDC2ED18
:100A9E00D2EC30EDFDC2EDD2EC30EDFDC2EDE5BD98
:100AAE0085C3F0C2D795F0E5BE85C4F095F020D78A
:100ABE00C675C4FF75C3FF75C60075C500C2EBD2FF
:100ACE00EC30EDFDC2ED85BEC685BDC530EBEE80CA
:100ADE00A6D0C5D0C6D0C3D0C422710D1218DE1256
:100AEE0018DE1218DEE5ECB411F0C295223087FD47
:100AFE00E5ECB43003C29522710D1218FD80EE2084
:100B0E00194D30A5FD20A5FDC28153D8BF75A71084
:100B1E00E5FCB4300543D8408032151075DA007507
:100B2E00CC0075DD028510DE75CC4675FA0075F9C0
:100B3E000075962143D840D29530A2FDE5F92510D7
:100B4E00C2D79511F5FB8510FC75DA4675A700D254
:100B5E00812220194D30A5FD20A5FDC28153D8BF9D
:100B6E0075A710E5FCB4A00543D84080320510757A
:100B7E00DA0075CC0075DD028510DE75CC4675FA8F
:100B8E000075F90043D840D29530A2FD30A2FDE5A4
:100B9E00F92510C2D79511F5FB8510FC75DA46754F
:100BAE00A700D28122903E00E542C2D7940B30D7E7
:100BBE00402087FD3087FD903E00E54275F004A48D
:100BCE00F582E493F512A3E493F513A3E493F51AD7
:100BDE00A3E493F51BC2D7E513354DF5C3E51234E7
:010BEE000006
:100BEF00F5C4C2D7E513954DF5C5E5129400F5C6CA
:100BFF00C2082275A71053D8BF75EC0075F50075A4
:100C0F00850075DE0043D84075A7001218DE121854
:100C1F00DE53D8BF22C28153D8BF75FB008510FCAD
:100C2F008511DD8510DE75DA4675CC4675FA0075CF
:100C3F00F9007596212087FD3087FD43D840D29566
:100C4F00D281222087053087FD80032087FDC29542
:100C5F002275A730759B85759F9A759D08439D409A
:100C6F0075990375A70075A72053C6F375A700756F
:100C7F00150391F430060FC2061216F0E53C54F03E
:100C8F00B40003C2042278083087FD2087FD3006A8
:100C9F002F3008271216F075A72053C6F375A7003B
:100CAF0053D8BF75DA0075CC0075F90075FA007569
:100CBF00A72043C60C75A700C29522C2061216F0D4
:100CCF00D8C6300417E515C2D775F00395F020D7B5
:100CDF00037515031515E515B40097220515E515D0
:100CEF00B4408F2222903E40E493F510A3E493F595
:100CFF001175A72043C60C75A70053D8BF75DA002E
:100D0F0075CC0075FB008510FC8511DD8510DE7537
:100D1F00FA0075F90075962175DA4675CC4620876D
:100D2F00FD3087FD3006051216F0C206C28143D88A
:100D3F0040D2952087FDD28131E331E331E330A5F5
:100D4F00FD20A5FDD2A2C2A575A72053C6F375A796
:0D0D5F000053D8BF75DA0075CC0075F9009F
:100D6C0075FA0075A72043C60C75A700C295903E76
:100D7C0048740093F9740193C395BDE995BE20D7CF
:100D8C00058000D20422C204223087FD7800D8FEF0
:100D9C003087F62087FD7800D8FE2087F622D19682
:100DAC00E54154072420F54175430075440075470F
:100DBC00A0C20FC2AF209236D2B3D1B0782CE2F5DC
:100DCC0043782DE2F544801EE543940920D70E7537
:100DDC00A73075844075850775A700800975A73005
:100DEC0075850675A7007547A01218FD80C780C5CC
:100DFC0020081C300FBFE541540724E0F541754233
:100E0C00693008FDC208E54154F00043EF1022C2DE
:100E1C0008E54154F0B4009D00227547A075A71059
:100E2C00D29A75A700C20F209248D1B075A730781E
:100E3C0026E2F5847825E2F58575A700802B782CC1
:100E4C00E2F543782DE2F544E543940920D70E757D
:100E5C00A73075844075850675A700800C75A73082
:100E6C0075844075850675A7007547A01218FDD2CC
:100E7C001022300FB2E541540724E0F54175426968
:100E8C00C210E54154F043EF102290116C78247499
:100E9C000093F6A308E8B42EF6F116F1251218FD0E
:080EAC0012105E22F1F9742717
:100EB40075F0601211021210767810D8FE7427753E
:100EC400F0601211022278267924E2F70809E8B8C2
:100ED4002BF878267929E2F70809E8B82BF8F125E8
:100EE4001218FD901176F116121051F186300DFB97
:100EF4001210DA1210BDF186300DFB1218FD121813
:100F0400FD1218FD1218FD1218FD1218FD80E700DD
:100F140080FE780090114CE493F208A3E8B420F723
:100F240022C281742712110F74FF12110FD2811281
:100F340010761210831210A0740175F001121102C0
:100F4400740275F001121102740475F03312110267
:100F5400740675F00F121102740075F00E75F00F1F
:100F6400121102121069121076741C75F00112111C
:100F740002741D75F006121102740575F000121149
:100F8400022212105EB40E02802EB41E1074277555
:100F9400F01E121102121076121069801BB42E0A70
:100FA400742775F01E121102800EB460028027743B
:100FB4002775F0FF121102221218B7C2B2121020C4
:100FC400D2B21218C412105E2092FD12105EB460E8
:100FD400028003C20D22F1F9742775F06012110228
:100FE4001210767810D8FE742775F060121102D2B0
:100FF4000D12104822C28178207461310F74FFF5FC
:0F100400A330FFFDE5A3C2FF74FFF5A330FFFD8E
:10101300E5A3C2FFF208E8B440EFD281223123C234
:1010230081780074A0310FE2F5A3312A30FFFDC2AD
:10103300FF08E8B41DF1E52E310FE52F310F742BB6
:10104300310FD281227820E208E8B440FA227826D0
:101053007906E2F30809E8B42BF822C28174073158
:101063000F3117D28122C28174E1310F74FF31171E
:10107300D28122C28174E2310F74FF310FD28122F7
:10108300C2817430310FE524310FE525310FE52698
:10109300310FE527310FE528310FD28122C2817448
:1010A3002A310FE529310FE52A310FE52B310FE501
:1010B3002C310FE52D310FD28122C2817410310FF3
:1010C3003117F5243117F5253117F5263117F52793
:1010D3003117F528D28122C281740A310F3117F5F5
:1010E300293117F52A3117F52B3117F52C3117F55F
:1010F3002DD28122C2817409310F3117D28122C2CC
:10110300814420310FE5F0310FD28122F5A330FF66
:10111300FDC2FF2274FFF5A330FFFDE5A3C2FF224A
:07112300752EFF752FFF225E
:10112A00C000C0E07808622FC3E52E13F52EE52F24
:10113A0013F52F5006632EA0632F01D8EBD0E0D011
:10114A0000221F0A0010000011360002A20000004F
:10115A00000000000000000000000000000000B8CD
:10116A005ACDF7F7F7F7F7F7F7F7F7F76820000F11
:10117A0001BA11360002A262DB002F0000000B0048
:10118A00000000010000000000BB002BC0BBC0B281
:10119A0075B25A75BB1120ECFDD2EC30EDFDC2EDF3
:1011AA00D2EC30EDFDC2EDA9BEA8BDD0B2D0BB22B3
:1011BA00C0BB75BB0920ECFDD2EC30EDFDC2EDD20F
:1011CA00EC30EDFDC2EDA9BEA8BDD0BB22C2B6204F
:1011DA00ECFDD2EC30EDFDC2ED758200754B007569
:1011EA0083007123EFF0A3EEF0054B054B854B828C
:1011FA00E54BB420EAD2B67F007E007D0078017903
:10120A0003C2D7E2F5F0E325F0FD1819E2F5F0E3A1
:10121A0035F0FEEF3400FF78047905C2D7E32DFDDF
:10122A00E23EFEEF3400FF08080909E8B420ECC2E8
:10123A00D7EF13FFEE13FEED13FDC2D7EF13FFEE48
:10124A0013FEED13FDC2D7EF13FFEE13FEED13FDF0
:10125A00C2D7EF13FFEE13FEED13FDC2D7EF13FF54
:10126A00EE13F9ED13F8301508900100E9F0A3E840
:10127A00F0C281201014903E00E54275F004A4F5F6
:10128A0082E493F512A3E493F513A3E493F51AA366
:10129A00E493F51BC2D7E513354DF5C3E5123400C7
:1012AA00F5C4C2D7E513954DF5C5E5129400F5C608
:1012BA00D28171D071E1227123C2D7EE8AF025F072
:1012CA00FEEF8BF035F0FFC2D7EF13FBEE13FA7186
:1012DA0023C2D7EE8AF025F0FEEF8BF035F0FFC27D
:1012EA00D7EF13FBEE13FA80FE7F007E00780079B9
:1012FA0000C2EBD2EC30EDFDC2EDC2D7E5BE13F968
:10130A00FFE5BD13F8FEC2EBD2EC30EDFDC2EDC233
:10131A00D7E5BE13F9E5BD13F8C2EBD2EC30EDFD0B
:10132A00C2EDE5BEFFE5BDFE22C2D7E5BE13FFE56D
:10133A00BD13FEC2EBD2EC30EDFDC2EDC2D7E5BE65
:0E134A0013FDE5BD13FCC2D7EE2CFEEF2DFF08
:10135800C2D7EF13FFEE13FE22C2EBD2EC30EDFD45
:10136800C2EDC2D7E5BD28F8E5BE39F9C2D7E91301
:10137800F9E813F8C2D7E913F9E813F8E9FFE8FE2A
:10138800C2EBD2EC30EDFDC2EDA9BEA8BDC2EBD2D6
:10139800EC30EDFDC2EDC2D7E5BD28F8E5BE39F960
:1013A800C2D7E913F9E813F8C2D7E913F9E813F833
:1013B800C2D7EF29F9EE38F8C2D7E913F9E813F8DC
:1013C800C2D7E913F9E813F8C2D7E895C3E995C479
:1013D80030D703C21322D21322C2D7E895C5E995A4
:1013E800C620D703C21422D2142220ECFDD2EC303E
:1013F800EDFDC2EDD2EC30EDFDC2EDC2D7A9BEA81D
:10140800BD30150A900102E5BEF0A3E5BDF022E566
:10141800BE13F9E5BD13F8C2D7E913F9E813F822AA
:0F142800E88AF0C395F0E98BF095F0225388FD28
:10143700E5E45408B40827C217C29575A72043C628
:101447000C43D10C75917775B6C075B50C75AE5751
:1014570075BFC075BE0C75A70075E4068023D2174B
:1014670075A72043C60C43D10C7591C975B6C075D5
:10147700B5F075AE9F75BFC075BECC75A70075E496
:101487000E22C00053917F300C251546A846B800A0
:101497001E75460C1545A845B8001400C295C20C28
:1014A700E541540F2400C204F541754300D212D020
:1014B700002243EF102275A71053C07B75A700C207
:1014C700AC75493CC20BC20A7540A5D2AC22C0E03C
:1014D700C28120A633201A16C295E541540F240075
:1014E700F54175420053E6FDD219C2D7802EC29549
:1014F700754216E541540F24E0C204D209F5415361
:10150700E6FDD219C2D78014C295754212E541543F
:101517000F24E0C204D209F54153E6FDD0E0D281A1
:10152700220514539BCF2230870975AB10C287530E
:10153700BFCF2275AB20D28753BFCF22C001C000D7
:10154700C0E0C0D0C0F0E54860021548200A21E598
:1015570099B43E1175A710D2C275A700D20A85406B
:10156700F025F0F540D0F0D0D0D0E0D000D0012267
:10157700200B20E599A849F68540F025F0F54005B0
:0A15870049A849B84002D20BD0F089
:10159100D0D0D0E0D000D0012275493CC20BC20AA4
:1015A10075A710C2C285D2D485D3D575A700E59998
:1015B1008540F0B5F00D8019D0F0D0D0D0E0D0004A
:1015C100D001227540A5D0F0D0D0D0E0D000D0011C
:1015D1002230160575F001800375F002E53C540FC9
:1015E100B5F0E030030100D2067540A5E53C54F0AA
:1015F100B4D00BD0F0D0D0D0E0D000D00122B44094
:101601004EC2ACC298D299E53DB40102E15EB4008C
:1016110004F15E8024B40204F15E801DB40304F180
:101621005E8016B40404F15E800F78007800D8FE65
:10163100E212D7A808E8B409F73099FDC206C299A9
:10164100C298D2ACD0F0D0D0D0E0D000D00122B43A
:101651005043C2ACC298D299E53D540F75F0202594
:10166100F0A8F0743E12D7A0E53C12D7A0E53D12D8
:10167100D7A0E212D7A008E8E212D7A074A512D72A
:10168100A03099FDC299C298D2ACD0F0D0D0D0E0B0
:10169100D000D00122B46023E53F30E70AD20CE547
:1016A1003FC2E7F5458009C20C800543EF10D1F038
:1016B100D0F0D0D0D0E0D000D0012230091EE53CDE
:1016C10054F0B4001FE53C540FF5417542007543D9
:0616D10000754400D1F099
:1016D70075A70043EF10853C41853D42D208D0F005
:1016E700D0D0D0E0D000D00122C0E0C2ACC2987503
:1016F700F0A5D299743E12D7A025F0F5F0C0F0E519
:101707004154F0F5F030160474018002740225F09C
:10171700D0F012D7A025F0F5F0E54212D7A025F0BA
:10172700F5F0E54312D7A025F0F5F0E54154F0B404
:101737001009300C06E545D2E78002E54412D7A030
:1017470025F0F5F0E5F012D7A03099FDC206C29951
:10175700C298D2ACD0E022E53DB40026743E12D741
:10176700A0E53C12D7A0E53D12D7A09000FDE49379
:1017770012D7A0A3E49312D7A0745512D7A030991B
:10178700FD22B40251743E12D7A0E53C12D7A0E562
:101797003D12D7A0900097E49312D7A0A3E4931229
:1017A700D7A0A3E49312D7A0A3E49312D7A09000E5
:1017B700FDE49312D7A0A3E49312D7A0A3E4931256
:1017C700D7A07583FF7582C090FFC07810E493128D
:1017D700D7A0A3D8F822B40105F1F043EF10B40362
:1017E7000412D6002212184822799012D7F3F7096B
:1017F700B9A0F8758130744F12D7A0744B12D7A0D7
:09180700903E007800E493F2A386
:1018100008B880F875830075820012D695E582B409
:1018200080F8744312D7A0745212D7A0744312D711
:10183000A0743D12D7A012D6F0E812D7A8E912D7AB
:10184000A83099FD43EF1022900100E012D7A0A329
:10185000E012D7A0A3E012D7A0A3E012D7A0A3E084
:1018600012D7A0A3E012D7A0A3E012D7A0A3E01242
:10187000D7A0A322903DDE740093B4FF02801878B5
:1018800000E493F2A308B804F812D7707800E205D8
:10189000E0F2903DDE119822C0A8C2AF438F015301
:1018A0008FFD780075B7A575B7F1E2F0A308B8040D
:1018B000F3538FFED0A822758200758300A3E583C1
:1018C000B401FA22758200758300A3E583B403FA9C
:1018D00022758200758300A3E583B40EFA22758217
:1018E000007583E4A3E583B4FFFA22781CD8FE22B6
:1018F000758200758300A3E583B43EFA22758200E9
:10190000758300A3E583B444FA22758200758300D1
:07191000A3E583B43DFA22B8
:023DDE0000697A
:103DE0009FC5B9AEEE0570D6CD72AF3921B533D2CD
:103DF0009D8E026E9A0C11CDE5FC537C01BD2E0CFC
:103E00000280601000800410020003E002A001C0E4
:103E1000034001A00420018005200180065001809C
:103E20000700010008200100092001000000000037
:103E300001000B880D800940038008F00AFFF8801C
:103E4000650E0B0880A50170018500690000000067
:0C3E500000000000000000000000000066
:023FF0000EF8C9
:10D60000D18C3099FDC202F11E200213EAB410023F
:10D610008010E583B400F0E582B47FEB3002034371
:10D62000EF10903E00C082C083903FF0E493F5126B
:10D63000A3E493F513D083D082F170C0A8C2AF43A6
:10D640008F01538FFD780075B7A575B7F1E2F0A390
:10D6500008B880F3538FFED0A8C0A8C2AF438F0193
:10D66000538FFD903FF0E51275B7A575B7F1F0A3A4
:10D67000E51375B7A575B7F1F0538FFED0A8D1F0BB
:10D68000E8F1A8E9F1A83099FD43EF10742AF1A060
:10D69000743EF1A022743A75F000F1A07410C0E05D
:10D6A00025F0F5F0D0E0F1A8E583C0E025F0F5F035
:10D6B000D0E0F1A8E582C0E025F0F5F0D0E0F1A8D7
:10D6C0007400C0E025F0F5F0D0E0F1A87810E4E0B7
:10D6D000C0E025F0F5F0D0E0F1A8A318B800EF7491
:10D6E00000C2D795F0F1A8740AF1A0740DF1A02240
:10D6F00075A72043CE0443CE0875D220438680759B
:10D70000D30175CE5D75CF5675CF5675CF565386FE
:10D710007F53CEFEE5CBF8E5CBF975A70022F1EB00
:10D72000B43AFBF1F375F000C0E025F0F5F0D0E07D
:10D73000C2D79401F9F1F3F58325F0F5F0F1F3F593
:10D740008225F0F5F0F1F3FA25F0F5F0C083E583DA
:10D75000F583F1F3F0A325F0F5F0D9F6F1F3F02518
:10D76000F0F5F0D083F1F325F0B4000122D20222CB
:10D77000C0A8C2AF75B7A575B7F1438F02438F013B
:10D78000F0538FFE538FFDD0A82222C0E0C0F0E4FA
:10D79000F5F0E493A36004F1A080F7D0F0D0E0228C
:10D7A0003099FDC299F59922C0E0C4F1BAF1A0D038
:10D7B000E0C0E0F1BAF1A0D0E022540FB40A00407A
:10D7C000022407243022C39430B40A00401BB41151
:10D7D0000040139407B41000400FB42A004007948F
:10D7E00020B410004003C374FFB3223098FDE599C4
:10D7F000C29822C0F0C000C298F1EBF500F1C6401B
:10D80000F6C4F5F0E500C29812D7EBF50012D7C6C2
:10D8100040F445F0F5F0E500E5F0D000D0F0220A44
:02D820000D00F9
:00000001FF
