:02000000415964
:04000300121442325F
:040023001215783208
:040043001214AB32B6
:0400630012155D32E3
:04006B0012156332D5
:0400730012145F32D2
:04008B0012148F328A
:0800930012149332C00102F0C7
:0300FD008201007D
:1001000075FF80E4D5E0FDE4D5E0FD75EF062275CE
:1001100097DE7597AD53D9BF75D90375DC4675AEBB
:100120004675AF4675CC4675960022758840758930
:1001300021758E12758DE575C80475A7107594200C
:100140007595F07592207593F07591077598027505
:10015000D2F775D3AD75D3CE75D5AD75D4F775C05F
:100160000075A700227598522275A14075F8017597
:10017000A2032275BB1075BC0875B9BF75DF1F756A
:10018000E88375B25A75B3002275A730759B8575E3
:100190009F9A759D08439D4075990175A70022752A
:1001A000A730E59144C0F591903E3AA3E493F584DD
:1001B000903E3AE493F585E59344C0F593903E3C38
:1001C000A3E493F589903E3CE493F58A75A7002259
:1001D000E5D14480F5D12275A72075F1FE75F2674F
:1001E00075F3E775F4FC75A40E75A52275A6247544
:1001F0009C0475D4CB75D5DC75CC8775E18375E32C
:100200004075FC4075FB4075A7002275A90075B1CB
:100210001C43B1802275A71075E68243E64075F352
:100220000C75A70075A71075BB0275EE0275A700C7
:1002300075E40743880175A8102275A72043C60CF2
:1002400043D10C75917575B6C075B53075AE7575C1
:10025000BFC075BE0C75A700227597DE7597AD758A
:100260008160C2B2D215C21500007800D8FE00002D
:01027000008D
:1002710075108075110E12010012010F12012B125F
:10028100017312018912019F1201D012016512013D
:10029100691201D712020B12021512023A75A71048
:1002A10075BC0075A700D286C209C208C20AC298ED
:1002B100C299C2A17583007582007583FB7582FDA9
:1002C100C2B2C204C216301604740180027402F56F
:1002D100417542007543007544007516FA75175F44
:1002E10075A710C29A8516A58517A48516A385172B
:1002F100A2D29A75A700C2077518FFC203C206C22F
:1003010089C212C21875A71075A700120DA3120D8C
:10031100A3120DA3D2B6D2B643B810D2AF7540A581
:1003210075493C75460FC20C75453175A710C29AC7
:1003310075A7007F127E347D5675F020EF84000092
:10034100751D00751E00754A00903E3EE493F54E02
:10035100A3E493F54F903E43E493F54D903E00E4C2
:10036100740693F51AA3740693F51B903E47E49324
:10037100F531C2A1C2193087FDD13F2009571208BA
:10038100C02009511208FA20094B903E32E493FB38
:10039100A3E493FA12143630D708200938754202C3
:1003A100801E903E34E493FBA3E493FA121436309A
:1003B100D7082009207542038006200918754200DC
:0803C100300607121725C206E1
:1003C900800E75BB0A2087FD20090280A1020879E9
:1003D90030089BC208E53C54F0B42009D191301093
:1003E9008DF1208089C210E53DB490028047B48028
:1003F9000280026177E53C540FF5417542011219FB
:100409003153E6FD903DDEE493B4FF0343EF101250
:100419000C6E20040BE53C540FF5417542006177E1
:10042900D217E53C540FF5417542083006FD121705
:1004390025C2066177D2B2E53C540F4410F54175E7
:10044900420175108075110E903E00740493F512E7
:10045900A3740493F513C2D7E513354DF5C3E5121B
:100469003400F5C4C2D7E513954DF5C5E5129400DE
:10047900F5C6903E00740293F510A3740293F5112A
:10048900120C323087FD2087FD3087FD2087FD4320
:10049900E602B156300809E53DB40004C2088023DC
:1004A900301202803A3009EA2004E7780030060C5D
:1004B900121725C2063008DA0043EF10D8EF80EB97
:1004C9003006FDC2B612099AC2A175A72053C6F318
:1004D90075A700C2A5C2A2D2B61217251218A8750F
:1004E90016FF7517FC75A710C29A75A7007800301A
:1004F9000635121725C20630082DE53C54F0B41014
:1005090026E53DB480217516FA75175F75A710C2E7
:100519009A8516A58517A48516A38517A2D29A755B
:05052900A700121931CA
:10052E00810AC212C20CC204754A00903E00E474E5
:10053E000693F51AA3740693F51BD2866177D8AA93
:10054E0080A643EF1000800012088E300302A1E057
:10055E001208C01208FA75BB0A30062B121725C2F4
:10056E0006300823E54154F0B41015E542A2E7B277
:10057E00D7928653427FE542754A00120BC18052D4
:10058E00B40004C2A1C13E1209F7300445854E8C59
:10059E00854F8AD28C308DFDC28CC28D43B201AB99
:1005AE0012AA13C2EB1211E575BB1053B2FE201442
:1005BE0010201318801C20EB02801712143630D72F
:1005CE000B1209F720070B120B6E80061209F71299
:1005DE000B1B30035B53E6FDC042C041E53C540F9C
:1005EE00F541754201120C6ED041D04220040EE549
:1005FE003C540FF54175420043EF10617775106062
:10060E0075110E75106075110E903E00740293F503
:10061E0010A3740293F511120C323087FD2087FD62
:10062E003087FD2087FD43E602754A00C207C203EC
:10063E0022A2B392E0A21892E15403B400028022E7
:10064E00B40105D218D2B222B40205C218C2B22227
:10065E00B40301222230180A30B307A2B392B29229
:10066E00182230B202D17622851E82851D83A38583
:0F067E00821E85831DE583B40308C2B2751D007B
:10068D00751E0022120EA4E54154072420F5417574
:10069D004201754301754400D2B27547A0C20F30B7
:1006AD0087FD2087FD3087FD120815E5415407248D
:1006BD0020F541754201751CA5300616121725C28D
:1006CD00063008F5C208E53C54F0B400EC43EF10D9
:1006DD0080E73087FD2087FD309209151CE51CB49D
:1006ED0000D7801A120EBEE54154072420F541753E
:1006FD0042027543AA754455751CFFD21022C210D3
:10070D00120C60E5415407F54175420075430075C3
:10071D00440022301905754200E1C23087FD1208F0
:10072D00C01208FA300621121725C206300819E545
:10073D004154F0B40012E542754200F1C6C2088082
:10074D00748005120BC1806D20920AF1CE751CFFCD
:10075D007542028011151CE51CB4C00A754200F1EA
:10076D00CB80527542012087FD7880D8FE0075BB85
:10077D000A758CF4758A80D28C308DFDC28CC28D39
:10078D00AB12AA13C2EB1211E575BB1053B2FE20CA
:10079D001410201318801C20EB02A1E01214363027
:1007AD00D70B3087FD20070B120B6E80063087FDAF
:1007BD00120B1BE120C2192222C2A1121725C2A1C0
:1007CD0022120EBE008512F0782BE2B5F00A8513C9
:1007DD00F0782CE2B5F00122F1E8222087FD308778
:0807ED00FD782BE2F512782CD7
:1007F500E2F513C2D7E513354DF5C3E5123400F51F
:10080500C4C2D7E513954DF5C5E5129400F5C6228A
:1008150075106075110E903E38E493F512A3E493BC
:10082500F513C2D7E513354DF5C3E5123400F5C40C
:10083500C2D7E513954DF5C5E5129400F5C691327D
:100845003087FD2087FD3087FD2087FD3087FD201F
:1008550087FD3087FD2087FD3087FD2087FD3087A8
:10086500FD2087FD3087FD2087FD3087FD2087FD32
:1008750043E60222C2A17800D8FE3006F9121725F8
:10088500C2063008F10043EF1031F7E54AB4E00243
:100895008003054A22AB1AAA1BA9BEA8BDE88AF0A7
:1008A500C395F0E98BF095F020D708D207D5180845
:1008B5003134227518FFC207C20322903E36E493F5
:1008C500FBA3E493FA1211C8E5BEB40F09E5BDB464
:1008D500FF04313B8011E5BEB40004313B800812B2
:1008E500143630D702314630150A900104E5BEF0C2
:1008F500A3E5BDF022903E30E493FBA3E493FA1206
:1009050011A4E5BEB40F09E5BDB4FF043151801152
:10091500E5BEB400043151800812143630D70231D7
:090925005C30150A900106E5BEE4
:10092E00F0A3E5BDF022C204C2A1D20322D2097502
:10093E0041E175421A017922D2097541E1754214DD
:10094E00017922D2097541E1754219017922D20944
:10095E007541E1754215017922D2097541E1754261
:10096E00142280FE80FE121912D2811211E5C2816C
:10097E007B007A8012143620D7EC711B121912806C
:10098E00E580FE20A6FD12191212191230A5FD20C7
:10099E00A5FD53D8BFE5FC8531F0C2D795F020D721
:1009AE0044151075DA0075CC0075DD028510DE7504
:1009BE00CC4675FA0075F90075962143D840D2A140
:1009CE0030A2FDE5F92510C2D79511F5FB8510FC77
:1009DE0075DA462087FD3087FD3006B0C206121745
:1009EE002580A980FE43D84022C0BBC0C4C0C3C06E
:1009FE00C6C0C575BB1020ECFDD2EC30EDFDC2EDCE
:100A0E00D2EC30EDFDC2EDE5BEB407F485BEC48573
:100A1E00BDC3D2EC30EDFDC2EDD2EC30EDFDC2ED3A
:100A2E00D2EC30EDFDC2EDE5BD85C3F0C2D795F039
:100A3E00E5BE85C4F095F030D7C675C4FF75C3FF0B
:100A4E0075C60075C500C2EBD2EC30EDFDC2EDD21D
:100A5E00EC30EDFDC2EDC2EBD2EC30EDFDC2ED851A
:100A6E00BEC485BDC330EBDED0C5D0C6D0C3D0C4A6
:100A7E00D0BB22C0C4C0C3C0C6C0C520ECFDD2ECE2
:100A8E0030EDFDC2EDD2EC30EDFDC2EDE5BEB405AC
:100A9E00F485BEC485BDC3D2EC30EDFDC2EDD2EC03
:100AAE0030EDFDC2EDD2EC30EDFDC2EDE5BD85C3FE
:100ABE00F0C2D795F0E5BE85C4F095F020D7C67587
:100ACE00C4FF75C3FF75C60075C500C2EBD2EC300E
:100ADE00EDFDC2ED85BEC685BDC530EBEE80A6D060
:100AEE00C5D0C6D0C3D0C422711B1219121219124E
:100AFE00121912E5ECB411F0C2A1223087FDE5EC1B
:100B0E00B43003C2A122711B12193180EE20194D8F
:100B1E0030A5FD20A5FDC2B653D8BF75A710E5FCC4
:100B2E00B4300543D8408032151075DA0075CC000C
:100B3E0075DD028510DE75CC4675FA0075F9007507
:100B4E00962143D840D2A130A2FDE5F92510C2D797
:100B5E009511F5FB8510FC75DA4675A700D2B62205
:100B6E0020194D30A5FD20A5FDC2B653D8BF75A7DF
:100B7E0010E5FCB4880543D8408032051075DA00C4
:100B8E0075CC0075DD028510DE75CC4675FA0075E4
:100B9E00F90043D840D2A130A2FD30A2FDE5F925DF
:100BAE0010C2D79511F5FB8510FC75DA4675A700B6
:100BBE00D2B622903E00E542C2D7940B30D74020E9
:100BCE0087FD3087FD903E00E54275F004A4F58266
:100BDE00E493F512A3E493F513A3E493F51AA3E4B7
:030BEE0093F51B61
:100BF100C2D7E513354DF5C3E5123400F5C4C2D7AC
:100C0100E513954DF5C5E5129400F5C6C2082275A8
:100C1100A71053D8BF75EC0075F50075850075DE1A
:100C21000043D84075A70012191212191253D8BFE8
:100C310022C2B653D8BF75FB008510FC8511DD8536
:100C410010DE75DA4675CC4675FA0075F9007596B1
:100C5100212087FD3087FD43D840D2A1D2B6222082
:100C610087053087FD80032087FDC2A12275A7304B
:100C7100759B85759F9A759D08439D407599037570
:100C8100A70075A72053C6F375A700751503B10218
:100C910030060FC206121725E53C54F0B40003C21A
:100CA100042278083087FD2087FD30062F30082781
:100CB10012172575A72053C6F375A70053D8BF7522
:100CC100DA0075CC0075F90075FA0075A72043C6E6
:100CD1000C75A700C2A122C206121725D8C630047E
:100CE10017E515C2D775F00395F020D703751503E5
:100CF1001515E515B40097220515E515B4408F22A9
:100D010022903E40E493F510A3E493F51175A720DA
:100D110043C60C75A70053D8BF75DA0075CC0075B2
:100D2100FB008510FC8511DD8510DE75FA0075F973
:100D31000075962175DA4675CC462087FD3087FD12
:100D4100300605121725C206C2B643D840D2A120EB
:100D510087FDD2B631F731F731F730A5FD20A5FD7A
:070D6100D2A2C2A575A72074
:100D680053C6F375A70053D8BF75DA0075CC007564
:100D7800F90075FA0075A72043C60C75A700C2A133
:100D8800903E00740693F9740793C395BDE995BE28
:100D980020D7058000D20422C204223087FD7800C3
:100DA800D8FE3087F62087FD7800D8FE2087F62207
:100DB800D1A4E54154072420F5417543007544004A
:100DC8007547A0C20FC2AF209236D2B2D1BE782CDE
:100DD800E2F543782DE2F544801EE543940920D7D7
:100DE8000E75A73075844075850775A7008009754D
:100DF800A73075850675A7007547A012193180C7F9
:100E080080C520081C300FBFE541540724E0F54198
:100E18007542693008FDC208E54154F00043EF10FF
:100E280022C208E54154F0B4009D00227547A07520
:100E3800A710D29A75A700C20F209248D1BE75A7F5
:100E4800307826E2F5847825E2F58575A700802BB1
:100E5800782CE2F543782DE2F544E543940920D750
:100E68000E75A73075844075850675A700800C75CA
:100E7800A73075844075850675A7007547A01219B7
:100E880031D21022300FB2E541540724E0F5417504
:100E98004269C210E54154F043EF102290117A786C
:0D0EA80024740093F6A308E8B42EF6F1259B
:100EB500F13412193112106C22121007742775F0D3
:100EC500601211101210847810D8FE742775F06026
:100ED5001211102278267924E2F70809E8B82BF8D0
:100EE50078267929E2F70809E8B82BF8F1341219C0
:100EF50031901184F12512105FF195300DFB121020
:100F0500E81210CBF195300DFB121931121931127F
:100F1500193112193112193112193180E70080FE89
:100F2500780090115AE493F208A3E8B420F722C29E
:100F350081742712111D74FF12111DD281121084A4
:100F45001210911210AE740175F001121110740295
:100F550075F001121110740475F033121110740636
:100F650075F00F121110740075F00E75F00F121157
:100F750010121077121084741C75F0011211107480
:100F85001D75F006121110740575F000121110226E
:100F950012106CB40E02802EB41E10742775F01E4C
:100FA500121110121084121077801BB42E0A7427A8
:100FB50075F01E121110800EB4600280277427751B
:100FC500F0FF121110221218EBC28312102ED283D9
:100FD5001218F812106C2092FD12106CB460028089
:100FE50003C20D22121007742775F060121110123A
:100FF50010847810D8FE742775F0603110D20D1169
:0E1005005622C28178207461311D74FFF5A35C
:1010130030FFFDE5A3C2FF74FFF5A330FFFDE5A399
:10102300C2FFF208E8B440EFD281223131C28178A5
:101033000074A0311DE2F5A3313830FFFDC2FF0873
:10104300E8B41DF1E52E311DE52F311D742B311D43
:10105300D281227820E208E8B440FA227826790681
:10106300E2F30809E8B42BF822C2817407311D3179
:1010730025D28122C28174E1311D74FF3125D281D1
:1010830022C28174E2311D74FF311DD28122C281DB
:101093007430311DE524311DE525311DE526311D53
:1010A300E527311DE528311DD28122C281742A3101
:1010B3001DE529311DE52A311DE52B311DE52C31B7
:1010C3001DE52D311DD28122C2817410311D3125C0
:1010D300F5243125F5253125F5263125F52731254B
:1010E300F528D28122C281740A311D3125F52931B7
:1010F30025F52A3125F52B3125F52C3125F52DD272
:101103008122C2817409311D3125D28122C28144D9
:1011130020311DE5F0311DD28122F5A330FFFDC240
:09112300FF2274FFF5A330FFFD6B
:10112C00E5A3C2FF22752EFF752FFF22C000C0E081
:10113C007808622FC3E52E13F52EE52F13F52F50EB
:10114C0006632EA0632F01D8EBD0E0D000221F0A3B
:10115C000010000011360002A20000000000000088
:10116C000000000000000000000000B85ACDF7F7A6
:10117C00F7F7F7F7F7F7F7F76820000F01BA113612
:10118C000002A262DB002F0000000B000000000137
:10119C000000000000BB002BC0BBC0B275B25A757A
:1011AC00BB1120ECFDD2EC30EDFDC2EDD2EC30EDFC
:1011BC00FDC2EDA9BEA8BDD0B2D0BB22C0BB75BBD1
:1011CC000920ECFDD2EC30EDFDC2EDD2EC30EDFDA2
:1011DC00C2EDA9BEA8BDD0BB22C2B620ECFDD2EC9C
:1011EC0030EDFDC2ED758200754B007583007131D9
:1011FC00EFF0A3EEF0054B054B854B82E54BB4208D
:10120C00EAD2B67F007E007D0078017903C2D7E276
:10121C00F5F0E325F0FD1819E2F5F0E335F0FEEFFB
:10122C003400FF78047905C2D7E32DFDE23EFEEFD2
:10123C003400FF08080909E8B420ECC2D7EF13FF0B
:10124C00EE13FEED13FDC2D7EF13FFEE13FEED13FD
:10125C00FDC2D7EF13FFEE13FEED13FDC2D7EF1354
:05126C00FFEE13FEED92
:1012710013FDC2D7EF13FFEE13F9ED13F830150884
:10128100900100E9F0A3E8F0C2B6201014903E00EE
:10129100E54275F004A4F582E493F512A3E493F515
:1012A10013A3E493F51AA3E493F51BC2D7E5133511
:1012B1004DF5C3E5123400F5C4C2D7E513954DF5DC
:1012C100C5E5129400F5C6D2B671DE71EF22713117
:1012D100C2D7EE8AF025F0FEEF8BF035F0FFC2D7D2
:1012E100EF13FBEE13FA7131C2D7EE8AF025F0FE4F
:1012F100EF8BF035F0FFC2D7EF13FBEE13FA80FE50
:101301007F007E0078007900C2EBD2EC30EDFDC2A7
:10131100EDC2D7E5BE13F9FFE5BD13F8FEC2EBD26E
:10132100EC30EDFDC2EDC2D7E5BE13F9E5BD13F812
:10133100C2EBD2EC30EDFDC2EDE5BEFFE5BDFE2214
:10134100C2D7E5BE13FFE5BD13FEC2EBD2EC30ED13
:0F135100FDC2EDC2D7E5BE13FDE5BD13FCC2D74B
:10136000EE2CFEEF2DFFC2D7EF13FFEE13FE22C2CD
:10137000EBD2EC30EDFDC2EDC2D7E5BD28F8E5BEFD
:1013800039F9C2D7E913F9E813F8C2D7E913F9E834
:1013900013F8E9FFE8FEC2EBD2EC30EDFDC2EDA997
:1013A000BEA8BDC2EBD2EC30EDFDC2EDC2D7E5BDAB
:1013B00028F8E5BE39F9C2D7E913F9E813F8C2D71E
:1013C000E913F9E813F8C2D7EF29F9EE38F8C2D7D4
:1013D000E913F9E813F8C2D7E913F9E813F8C2D70B
:1013E000E895C3E995C430D703C21322D21322C2B1
:1013F000D7E895C5E995C620D703C21422D2142296
:1014000020ECFDD2EC30EDFDC2EDD2EC30EDFDC2B2
:10141000EDC2D7A9BEA8BD30150A900102E5BEF005
:10142000A3E5BDF022E5BE13F9E5BD13F8C2D7E987
:0A14300013F9E813F822E88AF0C36C
:10143A0095F0E98BF095F022C2A1C28953D8BF80FA
:10144A00FE120AF6C28922C289120B1B1219121243
:10145A001912C28922C00053917F300C251546A863
:10146A0046B8001E75460C1545A845B8001400C2BA
:10147A00A1C20CE541540F2400C204F54175430092
:10148A00D212D0002243EF102275A71053C07B75E9
:10149A00A700C2AC75493CC20BC20A7540A5D2ACC2
:1014AA0022C0E0C2B68065C2B612099AE542540F5C
:1014BA00D2B6B401028055E54214F542E542A2E7EC
:1014CA00C2E7B2D7928653427FD0E022903E00E52F
:1014DA004275F004A4F582E493F512A3E493F5139C
:1014EA00A3E493F51AA3E493F51BC2D7E513354D8C
:1014FA00F5C3E5123400F5C4C2D7E513954DF5C519
:10150A00E5129400F5C6D0E02220A62EC2A1E5413C
:10151A00540F2400F54175420053E6FDD219C2D793
:10152A00802C754216E541540F24E0C204D209F515
:10153A004153E6FDD219C2D78014C2A1754212E501
:10154A0041540F24E0C204D209F54153E6FDD0E02C
:10155A00D2B6220514539BCF2230870975AB10C22D
:04156A008753BFCF15
:10156E002275AB20D28753BFCF22C001C000C0E08E
:10157E00C0D0C0F0E54860021548200A21E599B4B4
:10158E003E1175A710D2C275A700D20A8540F0256C
:10159E00F0F540D0F0D0D0D0E0D000D00122200B1A
:1015AE0020E599A849F68540F025F0F5400549A8B3
:1015BE0049B84002D20BD0F0D0D0D0E0D000D0014C
:1015CE002275493CC20BC20A75A710C2C285D2D47D
:1015DE0085D3D575A700E5998540F0B5F00D801936
:1015EE00D0F0D0D0D0E0D000D001227540A5D0F000
:1015FE00D0D0D0E0D000D0012230160575F0018099
:10160E000375F002E53C540FB5F0E030030100D253
:10161E00067540A5E53C54F0B4D00BD0F0D0D0D038
:10162E00E0D000D00122B4404EC2ACC298D299E5AF
:10163E003DB40102E193B40004F1938024B402049A
:10164E00F193801DB40304F1938016B40404F19356
:10165E00800F78007800D8FEE212D7A808E8B40907
:10166E00F73099FDC206C299C298D2ACD0F0D0D054
:10167E00D0E0D000D00122B45043C2ACC298D2996F
:10168E00E53D540F75F02025F0A8F0743E12D7A05A
:10169E00E53C12D7A0E53D12D7A0E212D7A008E88C
:0416AE00E212D7A0CD
:1016B20074A512D7A03099FDC299C298D2ACD0F0CD
:1016C200D0D0D0E0D000D00122B46023E53F30E793
:1016D2000AD20CE53FC2E7F5458009C20C800543FA
:1016E200EF10F125D0F0D0D0D0E0D000D0012230E0
:1016F200091EE53C54F0B4001FE53C540FF541755A
:101702004200754300754400F12575A70043EF10B0
:10171200853C41853D42D208D0F0D0D0D0E0D00007
:10172200D00122C0E0C2ACC29875F0A5D299743E35
:1017320012D7A025F0F5F0C0F0E54154F0F5F030F5
:10174200160474018002740225F0D0F012D7A0258D
:10175200F0F5F0E54212D7A025F0F5F0E54312D7F7
:10176200A025F0F5F0E54154F0B41009300C06E57F
:1017720045D2E78002E54412D7A025F0F5F0E5F066
:1017820012D7A03099FDC206C299C298D2ACD0E05D
:1017920022E53DB40026743E12D7A0E53C12D7A044
:1017A200E53D12D7A09000FDE49312D7A0A3E493E5
:1017B20012D7A0745512D7A03099FD22B4025174E9
:1017C2003E12D7A0E53C12D7A0E53D12D7A090006B
:1017D20097E49312D7A0A3E49312D7A0A3E49312A1
:1017E200D7A0A3E49312D7A09000FDE49312D7A050
:0117F200A353
:1017F300E49312D7A0A3E49312D7A07583FF758255
:10180300C090FFC07810E49312D7A0A3D8F822B4F5
:101813000105112443EF10B4030412D60022117CF6
:1018230022799012D7F3F709B9A0F8758130744F74
:1018330012D7A0744B12D7A0903E007800E493F225
:10184300A308B880F875830075820012D695E582E7
:10185300B480F8744312D7A0745212D7A074431201
:10186300D7A0743D12D7A012D6F0E812D7A8E91278
:10187300D7A83099FD43EF1022900100E012D7A0C2
:10188300A3E012D7A0A3E012D7A0A3E012D7A0A38E
:10189300E012D7A0A3E012D7A0A3E012D7A0A3E041
:1018A30012D7A0A322903DDE740093B4FF028018E8
:1018B3007800E493F2A308B804F812D7707800E232
:1018C30005E0F2903DDE11CC22C0A8C2AF438F01E8
:1018D300538FFD780075B7A575B7F1E2F0A308B88B
:1018E30004F3538FFED0A822758200758300A3E50D
:1018F30083B401FA22758200758300A3E583B403E0
:10190300FA22758200758300A3E583B40EFA22756B
:0E19130082007583E4A3E583B4FFFA22781CFA
:10192100D8FE22758200758300A3E583B43EFA22B6
:10193100758200758300A3E583B444FA22758200A1
:0A194100758300A3E583B43DFA228C
:023DDE0000697A
:103DE0009FC5B9AEEE0570D6CD72AF3921B533D2CD
:103DF0009D8E026E9A0C11CDE5FC537C01BD2E0CFC
:103E00000280601000800410020003E002A001C0E4
:103E1000034001A00420018005200180065001809C
:103E20000700010008200100092001000000000037
:103E300001000B880D800940038008F00FFFF88017
:103E4000650E0B0840A5017003006900000000002A
:0B3E5000000000000000000000000067
:023FF0000EF8C9
:10D60000D18C3099FDC202F11E200213EAB410023F
:10D610008010E583B400F0E582B47FEB3002034371
:10D62000EF10903E00C082C083903FF0E493F5126B
:10D63000A3E493F513D083D082F170C0A8C2AF43A6
:10D640008F01538FFD780075B7A575B7F1E2F0A390
:10D6500008B880F3538FFED0A8C0A8C2AF438F0193
:10D66000538FFD903FF0E51275B7A575B7F1F0A3A4
:10D67000E51375B7A575B7F1F0538FFED0A8D1F0BB
:10D68000E8F1A8E9F1A83099FD43EF10742AF1A060
:10D69000743EF1A022743A75F000F1A07410C0E05D
:10D6A00025F0F5F0D0E0F1A8E583C0E025F0F5F035
:10D6B000D0E0F1A8E582C0E025F0F5F0D0E0F1A8D7
:10D6C0007400C0E025F0F5F0D0E0F1A87810E4E0B7
:10D6D000C0E025F0F5F0D0E0F1A8A318B800EF7491
:10D6E00000C2D795F0F1A8740AF1A0740DF1A02240
:10D6F00075A72043CE0443CE0875D220438680759B
:10D70000D30175CE5D75CF5675CF5675CF565386FE
:10D710007F53CEFEE5CBF8E5CBF975A70022F1EB00
:10D72000B43AFBF1F375F000C0E025F0F5F0D0E07D
:10D73000C2D79401F9F1F3F58325F0F5F0F1F3F593
:10D740008225F0F5F0F1F3FA25F0F5F0C083E583DA
:10D75000F583F1F3F0A325F0F5F0D9F6F1F3F02518
:10D76000F0F5F0D083F1F325F0B4000122D20222CB
:10D77000C0A8C2AF75B7A575B7F1438F02438F013B
:10D78000F0538FFE538FFDD0A82222C0E0C0F0E4FA
:10D79000F5F0E493A36004F1A080F7D0F0D0E0228C
:10D7A0003099FDC299F59922C0E0C4F1BAF1A0D038
:10D7B000E0C0E0F1BAF1A0D0E022540FB40A00407A
:10D7C000022407243022C39430B40A00401BB41151
:10D7D0000040139407B41000400FB42A004007948F
:10D7E00020B410004003C374FFB3223098FDE599C4
:10D7F000C29822C0F0C000C298F1EBF500F1C6401B
:10D80000F6C4F5F0E500C29812D7EBF50012D7C6C2
:10D8100040F445F0F5F0E500E5F0D000D0F0220A44
:02D820000D00F9
:00000001FF
