:02000000415964
:04000300121268323B
:040023001213593229
:040043001212CF3294
:0400630012133E3204
:04006B0012134432F6
:0400730012128332B0
:04008B001212B33268
:080093001212B732C00102F0A5
:0300FD008201007D
:1001000075FF80E4D5E0FDE4D5E0FD75EF062275CE
:1001100097DE7597AD53D9BF75D90375DC4675AEBB
:100120004675AF4675CC4675960022758840758930
:1001300021758E12758DE575C80475A7107594200C
:100140007595F07592207593F07591077598027505
:10015000D2F775D3AD75D3CE75D5AD75D4F775C05F
:100160000075A700227598522275A14075F8017597
:10017000A2032275BB1075BC0875B9BF75DF1F756A
:10018000E88375B25A75B3002275A730759B8575E3
:100190009F9A759D08439D4075990175A70022752A
:1001A000A730E59144C0F591903E3AA3E493F584DD
:1001B000903E3AE493F585E59344C0F593903E3C38
:1001C000A3E493F589903E3CE493F58A75A7002259
:1001D000E5D14480F5D12275A72075F1FE75F2674F
:1001E00075F3E775F4FC75A40E75A52275A6247544
:1001F0009C0475D4CB75D5DC75CC8775E18375E32C
:100200004075FC4075FB4075A7002275A90075B1CB
:100210001C43B1802275A71075E68243E64075F352
:100220000C75A70075A71075BB0275EE0275A700C7
:1002300075E40743880175A8102275A72043C60CF2
:1002400043D10C75917775B6C075B50C75AE577501
:10025000BFC075BE0C75A700227597DE7597AD758A
:100260008160C2B2D215C21500007800D8FE00002D
:01027000008D
:1002710075108075110E12010012010F12012B125F
:10028100017312018912019F1201D012016512013D
:10029100691201D712020B12021512023A75A71048
:1002A10075BC0075A700D286C209C208C20AC298ED
:1002B100C299C2A17583007582007583FB7582FDA9
:1002C100C2B2C204C216301604740180027402F56F
:1002D100417542007543007544007516FA75175F44
:1002E10075A710C29A8516A58517A48516A385172B
:1002F100A2D29A75A700C2077518FFC203C206C22F
:1003010089C212C21875A71075A700120C2D120C04
:100311002D120C2DD28343B810D2AF7540A575496B
:100321003C75460FC20C75453175A710C29A75A769
:10033100007F127E347D5675F020EF840000751D1C
:1003410000751E00754A00903E3EE493F54EA3E40D
:1003510093F54F903E43E493F54D903E00E47406CF
:1003610093F51AA3740693F51BC2A13087FDD1182A
:100371002009571208952009511208CF20094B90E6
:100381003E32E493FBA3E493FA12125C30D70820C7
:100391000938754202801E903E34E493FBA3E49336
:1003A100FA12125C30D7082009207542038006201A
:1003B1000918754200300607121506C206800E752F
:0D03C100BB0A2087FD20090280A102084729
:1003CE0030089BC208E53C54F0B42009D16A3010C5
:1003DE008DD1F88089E53DB490028047B4800280CB
:1003EE0002616CE53C540FF5417542011217125330
:1003FE00E6FD903DDEE493B4FF0343EF10120B0FC6
:10040E0020040BE53C540FF541754200616CD21788
:10041E00E53C540FF5417542083006FD121506C233
:10042E0006616CD2B2E53C540F4410F541754201A1
:10043E0075108075110E903E00740493F512A3741E
:10044E000493F513C2D7E513354DF5C3E512340009
:10045E00F5C4C2D7E513954DF5C5E5129400F5C662
:10046E00903E00740293F510A3740293F511120AD4
:10047E00C53087FD2087FD3087FD2087FD43E602CE
:10048E00B141300809E53DB40004C20880223012A3
:10049E000280323009EA2004E7780030060B12158C
:1004AE0006C2063008DA43EF10D8F080EC3006FDB5
:1004BE00C2A175A72053C6F375A700C2A5C2A2128A
:1004CE0015061216897516FF7517FC75A710C29AB8
:1004DE0075A7007800300635121506C20630082DB5
:1004EE00E53C54F0B41026E53DB480217516FA753E
:1004FE00175F75A710C29A8516A58517A48516A332
:10050E008517A2D29A75A70012171261FDC212C2E8
:10051E000CC204754A00903E00E4740693F51AA3CB
:10052E00740693F51BD286616CD8AA80A643EF1091
:10053E0000800012085C1208951208CF75BB0A43A2
:10054E00B20130062B121506C206300823E54154BF
:10055E00F0B41015E542A2E7B2D7928653427FE57A
:10056E0042754A00120A548056B40004C2A1C11743
:10057E002087FD7800D8FE2087C8300442854E8C37
:10058E00854F8AD28C308DFDC28CC28DAB12AA13D0
:10059E00C2EB12104C75BB1053B2FE201410201378
:1005AE0018801C20EB02801712125C30D70B30879C
:1005BE00FD20070B1209F480063087FD12099430D6
:1005CE00034753E6FDC042C041E53C540FF541756B
:1005DE004201120B0FD041D04220040EE53C540FC5
:1005EE00F54175420043EF10616C75106075110E88
:1005FE0075106075110E120AC53087FD2087FD43F8
:10060E00E602754A00C207C20322A2B392E0A21804
:10061E0092E15403B400028022B40105D218D2B282
:10062E0022B40205C218C2B222B40301222230182B
:10063E000A30B307A2B392B292182230B202D14F4F
:10064E0022851E82851D83A385821E85831DE583DB
:10065E00B40308C2B2751D00751E0022120D2EE5E0
:10066E004154072420F5417542017543017544003C
:10067E00D2B27547A0C20F3087FD2087FD3087FDAF
:08068E00F1E3E54154072420CB
:10069600F541754201751CA5300616121506C206EF
:1006A6003008F5C208E53C54F0B400EC43EF108086
:1006B600E73087FD2087FD309209151CE51CB40044
:1006C600D7801A120D47E54154072420F54175429B
:1006D600027543AA754455751CFFD21022C210122A
:1006E6000B01E5415407F541754200754300754419
:1006F60000223087FD1208951208CF300621121508
:1007060006C206300819E54154F0B40012E54275F8
:100716004200F194C20880748005120A54806D204C
:10072600920AF19C751CFF7542028011151CE51C8E
:10073600B4C00A754200F19980527542012087FDC6
:100746007880D8FE0075BB0A758CF4758A80D28CC9
:10075600308DFDC28CC28DAB12AA13C2EB12104CA7
:1007660075BB1053B2FE201410201318801C20EB0A
:1007760002A1CD12125C30D70B3087FD20070B1279
:1007860009F480063087FD120994C1F82222C2A11D
:10079600121506C2A122120D47008512F0782BE22F
:1007A600B5F00A8513F0782CE2B5F00122F1B622F5
:1007B6002087FD3087FD782BE2F512782CE2F513C1
:1007C600C2D7E513354DF5C3E5123400F5C4C2D7DB
:1007D600E513954DF5C5E5129400F5C62275106032
:0B07E60075110E903E38E493F512A34D
:1007F100E493F513C2D7E513354DF5C3E512340083
:10080100F5C4C2D7E513954DF5C5E5129400F5C6BB
:1008110051C53087FD2087FD3087FD2087FD30875A
:10082100FD2087FD3087FD2087FD3087FD2087FD76
:100831003087FD2087FD3087FD2087FD3087FD2033
:1008410087FD43E60222C2A17800D8FE3006F912E4
:100851001506C2063008F10043EF103087FDE54A66
:10086100B4E0028003054A22758CFF758AC0D28CE0
:10087100308DFDC28CC28DAB1AAA1B121226121228
:100881005C20D708D207D518083109227518FFC294
:1008910007C20322903E36E493FBA3E493FA1210BD
:1008A1002FE5BEB40F09E5BDB4FF0431108011E599
:1008B100BEB400043110800812125C30D702311B23
:1008C10030150A900104E5BEF0A3E5BDF022903E8B
:1008D10030E493FBA3E493FA12100BE5BEB40F09C5
:1008E100E5BDB4FF0431268011E5BEB40004312614
:1008F100800812125C30D702313130150A9001069E
:10090100E5BEF0A3E5BDF022C204C2A1D20322D20A
:10091100097541E175421A014722D2097541E17514
:100921004214014722D2097541E17542190147225A
:02093100D209E9
:100933007541E1754215014722D2097541E17542BE
:10094300142280FE80FE1216F3D28112104CC28153
:100953007B007A8012125C20D7EC31941216F3805C
:10096300E580FE20A6FD1216F31216F3319412163B
:10097300F31216F31216F3E5ECB411F0C2A1223010
:1009830087FDE5ECB43003C2A12231941217128023
:10099300EE30A5FD20A5FD75A710E5ECB43002806F
:1009A3004C53D8BF75DC0075AE0075AF0075CC0035
:1009B30075F90075FA00E5EB75EB00E5EC14F5EC61
:1009C300E5F48511F4E5F514F5F5E584758400E5A2
:1009D3008514F585E5DD8511DDE5DE14F5DE75DCD1
:1009E3004675AE4675AF4675CC4643D84075A700ED
:1009F3002230A5FD20A5FD75A710E5ECB4A5028066
:100A03004C53D8BF75DC0075AE0075AF0075CC00D4
:100A130075F90075FA00E5EB75EB00E5EC04F5EC10
:100A2300E5F48511F4E5F504F5F5E584758400E551
:100A33008504F585E5DD8511DDE5DE04F5DE75DC90
:100A43004675AE4675AF4675CC4643D84075A7008C
:100A530022903E00E542C2D7940B30D7402087FD59
:100A63003087FD903E00E54275F004A4F582E493DF
:100A7300F512A3E493F513A3E493F51AA3E493F512
:050A83001BC2D7E513C2
:100A8800354DF5C3E5123400F5C4C2D7E513954DCD
:100A9800F5C5E5129400F5C6C2082275A71053D80B
:100AA800BF75EC0075F50075850075DE0043D8400C
:100AB80075A7001216F31216F353D8BF2275A72094
:100AC80043C60C75A70075DC4675AE4675AF46750E
:100AD800CC4675EB008510EC8511F48510F575840E
:100AE800008510858511DD8510DE7596002087FD4F
:100AF8003087FD43D840D2A1222087053087FD806A
:100B0800032087FDC2A12275A730759B85759F9A22
:100B1800759D08439D4075990175A70075A72053D9
:100B2800C6F375A700751503717930060FC2061252
:100B38001506E53C54F0B40003C204227808308757
:100B4800FD2087FD300605C206121506D8F03004D0
:100B580017E515C2D775F00395F020D7037515036F
:100B68001515E515B400C1220515E515B440B922DF
:100B780022903E40E493F510A3E493F51175A72065
:100B880043C60C75A70075DC4675AE4675AF46754D
:100B9800CC4675EB008510EC8511F48510F575844D
:100BA800008510858511DD8510DE7596002087FD8E
:100BB8003087FD300605121506C20643D840D2A17B
:100BC80012171275140030A5FD20A5FD75A7205336
:100BD800C6F375A70053D8BF75DC0075AE0075AFB6
:100BE8000075CC0075F90075FA00D2A2C2A575A7E8
:100BF80030539BCF439D2075A70043E6201216E68D
:020C0800C2A187
:100C0A0053E6DF903E42E493F5F0E514B400028027
:100C1A000FB40102800AC2D795F030D703D204225A
:100C2A00C204223087FD7800D8FE3087F62087FD7F
:100C3A007800D8FE2087F622B12EE54154072420F9
:100C4A00F5417543007544007547A0C20FC2AF2035
:100C5A009236D2B2B147782CE2F543782DE2F544C8
:100C6A00801EE543940920D70E75A7307584407518
:100C7A00850775A700800975A73075850675A700D1
:100C8A007547A012171280C780C520081C300FBFF5
:100C9A00E541540724E0F5417542693008FDC20870
:100CAA00E54154F00043EF1022C208E54154F0B484
:100CBA00009D00227547A075A710D29A75A700C299
:100CCA000F209248B14775A7307826E2F584782537
:100CDA00E2F58575A700802B782CE2F543782DE2A2
:100CEA00F544E543940920D70E75A73075844075FD
:100CFA00850675A700800C75A73075844075850632
:100D0A0075A7007547A0121712D21022300FB2E54C
:100D1A0041540724E0F541754269C210E54154F097
:100D2A0043EF1022900FE17824740093F6A308E8A9
:100D3A00B42EF6B1A7B1B6121712D1D322D16E745E
:0A0D4A002775F060F177D1EB781007
:100D5400D8FE742775F060F1772278267924E2F7BB
:100D64000809E8B82BF878267929E2F70809E8B8E1
:100D74002BF8B1B6121712900FEBB1A7D1C6D10858
:100D8400300DFBF14FF132D108300DFB1217121266
:100D9400171212171212171212171212171280E7D3
:100DA4000080FE7800900FC1E493F208A3E8B42019
:100DB400F722C2817427F18474FFF184D281D1EBCC
:100DC400D1F8F115740175F001F177740275F00131
:100DD400F177740475F033F177740675F00FF177D9
:100DE400740075F00E75F00FF177D1DED1EB741C41
:100DF40075F001F177741D75F006F177740575F0DF
:100E040000F17722D1D3B40E028029B41E0D7427C9
:100E140075F01EF177D1EBD1DE8019B42E09742759
:100E240075F01EF177800DB460028023742775F08D
:100E3400FFF177221216CCC283D195D2831216D930
:100E4400D1D32092FDD1D3B460028003C20D22D14C
:100E54006E742775F060F177D1EB7810D8FE7427A3
:100E640075F060F177D20DD1BD22C2817820746112
:100E7400F18474FFF5A330FFFDE5A3C2FF74FFF511
:0A0E8400A330FFFDE5A3C2FFF20852
:100E8E00E8B440EFD28122F198C281780074A0F1CB
:100E9E0084E2F5A3F19F30FFFDC2FF08E8B41DF117
:100EAE00E52EF184E52FF184742BF184D281227822
:100EBE0020E208E8B440FA2278267906E2F308091F
:100ECE00E8B42BF822C2817407F184F18CD281220E
:100EDE00C28174E1F18474FFF18CD28122C28174DB
:100EEE00E2F18474FFF184D28122C2817430F184E4
:100EFE00E524F184E525F184E526F184E527F184E6
:100F0E00E528F184D28122C281742AF184E529F187
:100F1E0084E52AF184E52BF184E52CF184E52DF1AD
:100F2E0084D28122C2817410F184F18CF524F18C6B
:100F3E00F525F18CF526F18CF527F18CF528D2816B
:100F4E0022C281740AF184F18CF529F18CF52AF113
:100F5E008CF52BF18CF52CF18CF52DD28122C281E2
:100F6E007409F184F18CD28122C2814420F184E58E
:100F7E00F0F184D28122F5A330FFFDC2FF2274FF6F
:100F8E00F5A330FFFDE5A3C2FF22752EFF752FFFDF
:090F9E0022C000C0E07808622FB7
:100FA700C3E52E13F52EE52F13F52F5006632EA05C
:100FB700632F01D8EBD0E0D000221F0A00100000F9
:100FC70011360002A200000000000000000000002F
:100FD70000000000000000B85ACDF7F7F7F7F7F761
:100FE700F7F7F7F76820000F01BA11360002A2627F
:100FF700DB002F0000000B000000000100000000D4
:1010070000BB002BC0BBC0B275B25A75BB1120EC38
:10101700FDD2EC30EDFDC2EDD2EC30EDFDC2EDA915
:10102700BEA8BDD0B2D0BB22C0BB75BB0920ECFDAA
:10103700D2EC30EDFDC2EDD2EC30EDFDC2EDA9BE34
:10104700A8BDD0BB22C28320ECFDD2EC30EDFDC29F
:10105700ED758200754B007583003157EFF0A3EEF5
:10106700F0054B054B854B82E54BB420EAD2837FD5
:10107700007E007D0078017903C2D7E2F5F0E32511
:10108700F0FD1819E2F5F0E335F0FEEF3400FF78D4
:10109700047905C2D7E32DFDE23EFEEF3400FF08D9
:1010A700080909E8B420ECC2D7EF13FFEE13FEEDF1
:1010B70013FDC2D7EF13FFEE13FEED13FDC2D7EFFB
:1010C70013FFEE13FEED13FDC2D7EF13FFEE13FE72
:0C10D700ED13FDC2D7EF13FFEE13F9ED8F
:1010E30013F8301508900100E9F0A3E8F05104511A
:1010F30015223157C2D7EE8AF025F0FEEF8BF0357B
:10110300F0FFC2D7EF13FBEE13FA3157C2D7EE8AC3
:10111300F025F0FEEF8BF035F0FFC2D7EF13FBEEB7
:1011230013FA80FE7F007E0078007900C2EBD2ECD8
:1011330030EDFDC2EDC2D7E5BE13F9FFE5BD13F8EF
:10114300FEC2EBD2EC30EDFDC2EDC2D7E5BE13F922
:10115300E5BD13F8C2EBD2EC30EDFDC2EDE5BEFF09
:10116300E5BDFE22C2D7E5BE13FFE5BD13FEC2EB0C
:10117300D2EC30EDFDC2EDC2D7E5BE13FDE5BD13E4
:10118300FCC2D7EE2CFEEF2DFFC2D7EF13FFEE13F9
:10119300FE22C2EBD2EC30EDFDC2EDC2D7E5BD2895
:1011A300F8E5BE39F9C2D7E913F9E813F8C2D7E96C
:1011B30013F9E813F8E9FFE8FEC2EBD2EC30EDFDDA
:0211C300C2ED7B
:1011C500A9BEA8BDC2EBD2EC30EDFDC2EDC2D7E59C
:1011D500BD28F8E5BE39F9C2D7E913F9E813F8C215
:1011E500D7E913F9E813F8C2D7EF29F9EE38F8C2B1
:1011F500D7E913F9E813F8C2D7E913F9E813F8C2E8
:10120500D7E895C3E995C430D703C21322D2132278
:10121500C2D7E895C5E995C620D703C21422D214D2
:101225002220ECFDD2EC30EDFDC2EDD2EC30EDFD2F
:10123500C2EDC2D7A9BEA8BD30150A900102E5BE10
:10124500F0A3E5BDF022E5BE13F9E5BD13F8C2D75D
:10125500E913F9E813F822E88AF0C395F0E98BF071
:1012650095F022C2A1C28953D8BF80FE12096FC270
:101275008922C289120994D1F3D1F3C28922C0000F
:1012850053917F300C251546A846B8001E75460CAF
:101295001545A845B8001400C2A1C20CE541540F7C
:1012A5002400C204F541754300D212D0002243EF59
:1012B500102275A71053C07B75A700C2AC75493CB9
:1012C500C20BC20A7540A5D2AC22C0E0C2A1D207AA
:1012D500C204C2A1D203751800E542540FB401023D
:1012E500801BE54214F542E542A2E7C2E7B2D79278
:1012F5008653427F120A54D0E02220A625C2A1754A
:10130500A72053C6F375A700C2A5C2A2754216E56C
:1013150041540F24E0C204D209F54153E6FDC2D77A
:101325008014C2A1754212E541540F24E0C204D2D3
:1013350009F54153E6FDD0E0220514539BCF223039
:10134500870975AB10C28753BFCF2275AB20D287F3
:1013550053BFCF22C001C000C0E0C0D0C0F0E548F7
:1013650060021548200A21E599B43E1175A710D2EF
:10137500C275A700D20A8540F025F0F540D0F0D01F
:10138500D0D0E0D000D00122200B20E599A849F665
:101395008540F025F0F5400549A849B84002D20B33
:1013A500D0F0D0D0D0E0D000D0012275493CC20B9E
:1013B500C20A75A710C2C285D2D485D3D575A70038
:1013C500E5998540F0B5F00D8019D0F0D0D0D0E08A
:1013D500D000D001227540A5D0F0D0D0D0E0D0000B
:1013E500D0012230160575F001800375F002E53C49
:1013F500540FB5F0E030030100D2067540A5E53C79
:0914050054F0B4D00BD0F0D0D0AB
:10140E00D0E0D000D00122B4404EC2ACC298D299E6
:10141E00E53DB40102A174B40004B1748024B40299
:10142E0004B174801DB40304B1748016B40404B105
:10143E0074800F78007800D8FEE212D7A808E8B4BE
:10144E0009F73099FDC206C299C298D2ACD0F0D03D
:10145E00D0D0E0D000D00122B45043C2ACC298D25A
:10146E0099E53D540F75F02025F0A8F0743E12D783
:10147E00A0E53C12D7A0E53D12D7A0E212D7A008F6
:10148E00E8E212D7A074A512D7A03099FDC299C276
:10149E0098D2ACD0F0D0D0D0E0D000D00122B46041
:1014AE0023E53F30E70AD20CE53FC2E7F545800958
:1014BE00C20C800543EF10B106D0F0D0D0D0E0D0F2
:1014CE0000D0012230091EE53C54F0B4001FE53C6B
:1014DE00540FF541754200754300754400B1067511
:1014EE00A70043EF10853C41853D42D208D0F0D095
:1014FE00D0D0E0D000D00122C0E0C2ACC29875F0CE
:10150E00A5D299743E12D7A025F0F5F0C0F0E541B2
:10151E0054F0F5F030160474018002740225F0D0F8
:10152E00F012D7A025F0F5F0E54212D7A025F0F580
:10153E00F0E54312D7A025F0F5F0E54154F0B410D4
:06154E0009300C06E54522
:10155400D2E78002E54412D7A025F0F5F0E5F012B9
:10156400D7A03099FDC206C299C298D2ACD0E0226D
:10157400E53DB40026743E12D7A0E53C12D7A0E5A1
:101584003D12D7A09000FDE49312D7A0A3E49312D8
:10159400D7A0745512D7A03099FD22B40251743EDD
:1015A40012D7A0E53C12D7A0E53D12D7A090009732
:1015B400E49312D7A0A3E49312D7A0A3E49312D781
:1015C400A0A3E49312D7A09000FDE49312D7A0A3A4
:1015D400E49312D7A0A3E49312D7A07583FF758276
:1015E400C090FFC07810E49312D7A0A3D8F822B417
:1015F4000105D10543EF10B4030412D60022D15DD6
:1016040022799012D7F3F709B9A0F8758130744F95
:1016140012D7A0744B12D7A0903E007800E493F246
:10162400A308B880F875830075820012D695E58208
:10163400B480F8744312D7A0745212D7A074431222
:10164400D7A0743D12D7A012D6F0E812D7A8E91299
:10165400D7A83099FD43EF1022900100E012D7A0E3
:10166400A3E012D7A0A3E012D7A0A3E012D7A0A3AF
:10167400E012D7A0A3E012D7A0A3E012D7A0A3E062
:1016840012D7A0A322903DDE740093B4FF02801809
:101694007800E493F2A308B804F812D7707800E253
:1016A40005E0F2903DDED1AD22C0A8C2AF438F0168
:1016B400538FFD780075B7A575B7F1E2F0A308B8AC
:1016C40004F3538FFED0A822758200758300A3E52E
:1016D40083B401FA22758200758300A3E583B40301
:1016E400FA22758200758300A3E583B40EFA22758D
:1016F40082007583E4A3E583B4FFFA22781CD8FE44
:1017040022758200758300A3E583B43EFA227582B4
:1017140000758300A3E583B444FA227582007583BF
:0817240000A3E583B43DFA22A5
:023DDE0000697A
:103DE0009FC5B9AEEE0570D6CD72AF3921B533D2CD
:103DF0009D8E026E9A0C11CDE5FC537C01BD2E0CFC
:103E00000280601001200210020003E002B001C035
:103E100003B001A0046001800520018006700180CC
:103E20000720018008000180088001800000000058
:103E300001000B880D80094002800E800FFFF78083
:103E4000D00E0B0840A5010203006900000000002D
:0B3E5000000000000000000000000067
:023FF0000EF8C9
:10D60000D18C3099FDC202F11E200213EAB410023F
:10D610008010E583B400F0E582B47FEB3002034371
:10D62000EF10903E00C082C083903FF0E493F5126B
:10D63000A3E493F513D083D082F170C0A8C2AF43A6
:10D640008F01538FFD780075B7A575B7F1E2F0A390
:10D6500008B880F3538FFED0A8C0A8C2AF438F0193
:10D66000538FFD903FF0E51275B7A575B7F1F0A3A4
:10D67000E51375B7A575B7F1F0538FFED0A8D1F0BB
:10D68000E8F1A8E9F1A83099FD43EF10742AF1A060
:10D69000743EF1A022743A75F000F1A07410C0E05D
:10D6A00025F0F5F0D0E0F1A8E583C0E025F0F5F035
:10D6B000D0E0F1A8E582C0E025F0F5F0D0E0F1A8D7
:10D6C0007400C0E025F0F5F0D0E0F1A87810E4E0B7
:10D6D000C0E025F0F5F0D0E0F1A8A318B800EF7491
:10D6E00000C2D795F0F1A8740AF1A0740DF1A02240
:10D6F00075A72043CE0443CE0875D220438680759B
:10D70000D30175CE5D75CF5675CF5675CF565386FE
:10D710007F53CEFEE5CBF8E5CBF975A70022F1EB00
:10D72000B43AFBF1F375F000C0E025F0F5F0D0E07D
:10D73000C2D79401F9F1F3F58325F0F5F0F1F3F593
:10D740008225F0F5F0F1F3FA25F0F5F0C083E583DA
:10D75000F583F1F3F0A325F0F5F0D9F6F1F3F02518
:10D76000F0F5F0D083F1F325F0B4000122D20222CB
:10D77000C0A8C2AF75B7A575B7F1438F02438F013B
:10D78000F0538FFE538FFDD0A82222C0E0C0F0E4FA
:10D79000F5F0E493A36004F1A080F7D0F0D0E0228C
:10D7A0003099FDC299F59922C0E0C4F1BAF1A0D038
:10D7B000E0C0E0F1BAF1A0D0E022540FB40A00407A
:10D7C000022407243022C39430B40A00401BB41151
:10D7D0000040139407B41000400FB42A004007948F
:10D7E00020B410004003C374FFB3223098FDE599C4
:10D7F000C29822C0F0C000C298F1EBF500F1C6401B
:10D80000F6C4F5F0E500C29812D7EBF50012D7C6C2
:10D8100040F445F0F5F0E500E5F0D000D0F0220A44
:02D820000D00F9
:00000001FF
