:02000000219845
:03003B00F13A3265
:03007300F14B321C
:03008B00F15D32F2
:0300FD00C104003B
:1001000075D84053D9BF75D90475DA0075FC1F75D1
:10011000DD0043D94022758850758921758E0A7596
:100120008CF0758D967593AF7595AF75A710759812
:100130000375A700227598522275A14075F80175C4
:10014000A2032275BB0E75BC0875DF1F75E88375A9
:10015000B25A75B30022E5D14480F5D12275A720AB
:1001600075F1FE75F2DF75F3D775A40E75A51375DD
:10017000D48775D52075CCA875E10375E20175E3C8
:100180004075A70075A90075B11C43B1802275F3B5
:100190000475E68075A8A022C2947597DE7597ADA8
:1001A00075FF80C296C29712010012011612013526
:1001B00012013912014312015612015D120184121B
:1001C000018E75FF8043EF0275A71075D59B75D41E
:1001D000A075D39B75D2A0C2C790180AE493F5A569
:1001E000A3E493F5A475A70075815075300075825E
:1001F0000075830074007400F0A3E583B402F70077
:1002000000C292C293C2A0D296C2974391047531A4
:100210000075DA00F110901808E493F5C4A3E49394
:10022000F5C375C50075C600C2027800F103D8FC9D
:10023000120832740012083974001208399008BB91
:100240007824740093F6A308E8B42EF6780090089A
:0E0250009BE493F208A3E8B420F791C8780B62
:10025E00901800E493F2A308E493F2D1D275A7109C
:10026E00D2C230C7FDC2C730C7FDC2C730C7FDC23C
:10027E00C730C7FDC2C730C7FDC2C730C7FDC2C732
:10028E0030C7FDC2C730C7FDC2C730C7FDC2C77574
:10029E00A700F103B1173000F9D2CA75DA46D2942D
:1002AE00901800780BE493F2780CA3E493F2F2B179
:1002BE0017F103B11775A710D2C230C7FDC2C730F0
:1002CE00C7FDC2C730C7FDC2C730C7FDC2C730C7E2
:1002DE00FDC2C730C7FDC2C730C7FDC2C730C7FD9C
:1002EE00C2C730C7FDC2C775A700F103B1173000F2
:1002FE00F9C2A0F103F11D61C520B41BD29475A7FC
:10030E0010C29A75A700901802780BE493F2780C3D
:10031E00A3E493F2F261C520B31BD29475A710C269
:10032E009A75A700901804780BE493F2780CA3E466
:10033E0093F2F261C575A710A29A75A70020D71A7D
:10034E0090180A75A710E493F5A5A3E493F5A47588
:10035E00A70075A710D29A75A700901800780BE425
:10036E0093F2780CA3E493F2F2804C8017E5BD75FE
:0D037E00F0D0C2D795F0E5BE75F00895F0FF
:10038B0030D704913D803330943090085BE5BE93B9
:10039B00E5BEC2D713FAE5BD13FBEA2402FA780BCC
:1003AB00EAF2780CEB54F0F28010D293B292780B05
:1003BB00740CF2780C74BAF28000B117F103B11718
:1003CB00D2A041C30075BB12C2EBD2EC30EDFDC223
:1003DB00EBC2EDD2EC30EDFDC2EBC2EDD2EC30ED69
:1003EB00FDC2ED20EB0122300224901804780BE4BF
:1003FB0093F2780CA3E493F2F2901808E493F5C40B
:10040B00A3E493F5C375C50075C600C2022290180C
:10041B0002780BE493F2780CA3E493F2F2901806B3
:10042B00E493F5C6A3E493F5C575C3FF75C4FFD27A
:10043B000222E5BD75F040C2D795F0E5BE75F00719
:10044B0095F020D711780B7401F2780C7423F2D24B
:10045B0092C293C29422E5BD75F030C2D795F0E5F8
:10046B00BE75F00695F020D70F780B7403F2780C5D
:10047B007435F2B292D29422E5BD75F020C2D795B5
:10048B00F0E5BE75F00495F020D711780B7404F2EB
:04049B00780C742342
:10049F00F2B293C292D29422780B7405F2780C7454
:1004AF0069F2D293D292D29422900805F16F7820FC
:1004BF00E2F18C08E8B840F822C2827427B1FA74CE
:1004CF00FFB1FAD282D126D133D150740175F00128
:1004DF00D1B2740275F001D1B2740475F033D1B298
:1004EF00740675F00FD1B2740075F00ED1B2D11938
:1004FF00D126741C75F001D1B2741D75F006D1B2FE
:10050F00740575F000D1B222D10EB40E02802DB455
:10051F001E0D742775F01ED1B2D126D119801DB4CE
:10052F002E09742775F01ED1B28011B4600280506D
:10053F00742775F0FFD1B2D119C20022D1E5C28163
:10054F00D1D2D281D1F2D10E758C00758A00D28CA6
:10055F0030870E308DFAC28DC28CD119D126C200D0
:10056F0022C28CD10EB42E15742775F02ED1B2D1B4
:10057F0019742775F0FED1B2D200228003C2002277
:10058F00D1BF742775F060D1B2D1267810D8FE7420
:10059F002775F060D1B2D20022D133D16DD18AC28A
:1005AF00827427B1FA74FFB1FAD282D10ED1A7802B
:1005BF00FEB1C6F0A380FA780874003090FDA292C5
:0605CF0033D8042090FD6A
:1005D500222090FD80EF758200758300B1F0F0A3B5
:1005E500E583B402F70080FE00000030FFFDC2FF86
:1005F500E5A32280F6F5A330FFFDC2FF2274FFF5C7
:10060500A330FFFDE5A3C2FF22C2827407B1FAD170
:1006150002D28222C28274E1B1FA74FFD102D2827F
:1006250022C28274E2B1FA74FFB1FAD28222C28286
:100635007430B1FAE524B1FAE525B1FAE526B1FA47
:10064500E527B1FAE528B1FAD28222C282742AB12D
:10065500FAE529B1FAE52AB1FAE52BB1FAE52CB1AB
:10066500FAE52DB1FAD28222C2827410B1FAD10212
:10067500F524D102F525D102F526D102F527D102BF
:10068500F528D28222C282740AB1FAD102F529D1A3
:1006950002F52AD102F52BD102F52CD102F52DD286
:1006A5008222C2827409B1FAD102D28222C2824464
:1006B50020B1FAE5F0B1FAD28222C28278207461C3
:1006C500B1FAD102F208E8B440F8D28222C28278A7
:1006D5000074A0B1FAE2B1FA08E8B420F8D2822297
:0C06E500758200758300A3E583B401FA60
:1006F10022C2B2758200758300A3E583B403FAD2E6
:10070100B222758200758300A3E583B43EFA227597
:100711008200758300A3E583B4F8FA22C0BB75BBE0
:100721000BD2EC30EDFDC2EDD2EC30EDFDC2EDD2DD
:10073100EC30EDFDC2EDD0BB22C2CF0531E531B4C5
:100741000A0775DA00753100222253917F3096062F
:10075100C29600D29722C29700D29622C29AC29F15
:1007610022C29475A710C29AC29F75A70022C0E049
:10077100C0F0E4F5F0E493A36004F18480F7D0F0D5
:10078100D0E0223099FDC299F59922C0E0C4F19ED2
:10079100F184D0E0C0E0F19EF184D0E022540FB4A6
:1007A1000A0040022407243022C39430B40A0040D6
:1007B1001BB4110040139407B41000400FB42A0079
:1007C10040079420B410004003C374FFB322309853
:1007D100FDE599C29822C0F0C000C298F1CFF500A2
:1007E100F1AA40F6C4F5F0E500F184C298F1CFF525
:1007F10000F1AA40F645F0F5F0E500F184E5F0D00E
:1008010000D0F0220A0D000A0D54455354205245E0
:10081100535055455354410A0D20202020202020BB
:1008210056454C4F434944414420554152540A0DC9
:1008310000752EFF752FFF22C000C0E07808622FDF
:04084100C3E52E13CA
:10084500F52EE52F13F52F5006632EA0632F01D843
:10085500EBD0E0D0002201010102020304050607E6
:1008650008090A0B0C0D0202020202020202020230
:100875000202020202020202020202020202020253
:100885000202020202020202020202020202020243
:100895000202020202021F0A0010000011360002C5
:1008A500A2000000000000000000000000000000A1
:1008B500000000B85ACDF7F7F7F7F7F7F7F7F7F7AE
:101800000210021304100100013BC090FFFFFFFF14
:00000001FF
