:02000000219845
:03003B00D1E432DB
:03007300D1F53292
:03008B00F1073248
:0300FD00C104003B
:1001000075D84053D9BF75D90475DA0075FC1F75D1
:10011000DD0043D94022758850758921758E0A7596
:100120008CF0758D967593AF7595AF75A710759812
:100130000375A700227598522275A14075F80175C4
:10014000A2032275BB0E75BC0875DF1F75E88375A9
:10015000B25A75B30022E5D14480F5D12275A720AB
:1001600075F1FE75F2DF75F3D775A40E75A51375DD
:10017000D48775D52075CCA875E10375E20175E3C8
:100180004075A70075A90075B11C43B1802275F3B5
:100190000475E68075A8A022C2947597DE7597ADA8
:1001A00075FF80C296C29712010012011612013526
:1001B00012013912014312015612015D120184121B
:1001C000018E75FF8043EF0275A71075D59B75D41E
:1001D000A075D39B75D2A0C2C790180AE493F5A569
:1001E000A3E493F5A475A70075815075300075825E
:1001F0000075830074007400F0A3E583B402F70077
:1002000000C292C293C2A0D296C2974391047531A4
:100210000075DA00D1BA901808E493F5C4A3E4930A
:10022000F5C375C50075C600C2027800D1ADD8FC13
:10023000F1D77400F1DE7400F1DE90086078247468
:100240000093F6A308E8B42EF67800900840E493F3
:0B025000F208A3E8B420F79172780BCD
:10025B00901800E493F2A308E493F2D17C75A710F5
:10026B00D2C230C7FDC2C730C7FDC2C730C7FDC23F
:10027B00C730C7FDC2C730C7FDC2C730C7FDC2C735
:10028B0030C7FDC2C730C7FDC2C730C7FDC2C77577
:10029B00A700D1AD91C13000F9D2CA75DA4675A766
:1002AB0010D29A75A700901800780BE493F2780C93
:1002BB00A3E493F2F291C1D1AD91C175A710D2C253
:1002CB0030C7FDC2C730C7FDC2C730C7FDC2C7307C
:1002DB00C7FDC2C730C7FDC2C730C7FDC2C730C7D5
:1002EB00FDC2C730C7FDC2C730C7FDC2C775A70067
:1002FB00D1AD91C13000F9C2A0D1ADD1C7802820BA
:10030B00B411901802780BE493F2780CA3E493F2F7
:10031B00F2805120B311901804780BE493F2780C0F
:10032B00A3E493F2F2803D8017E5BD75F0D0C2D700
:10033B0095F0E5BE75F00895F030D70471E7802491
:10034B00309421901802780BE493F2780CA3E49389
:10035B00F2F28010D293B292780B740CF2780C7488
:10036B00BAF2800091C1D1AD91C1D2A041C6007546
:09037B00BB12C2EBD2EC30EDFD27
:10038400C2EBC2EDD2EC30EDFDC2EBC2EDD2EC30EB
:10039400EDFDC2ED20EB0122300224901804780B0D
:1003A400E493F2780CA3E493F2F2901808E493F542
:1003B400C4A3E493F5C375C50075C600C2022290B8
:1003C4001802780BE493F2780CA3E493F2F29018F9
:1003D40006E493F5C6A3E493F5C575C3FF75C4FF9E
:1003E400D20222E5BD75F040C2D795F0E5BE75F0A6
:1003F4000795F020D711780B7401F2780C7423F26E
:10040400D292C293C29422E5BD75F030C2D795F062
:10041400E5BE75F00695F020D70F780B7403F278DB
:100424000C7435F2B292D29422E5BD75F020C2D795
:1004340095F0E5BE75F00495F020D711780B74049F
:10044400F2780C7423F2B293C292D29422780B7491
:1004540005F2780C7469F2D293D292D29422900766
:10046400AAF1147820E2F13108E8B840F822C282F7
:100474007427B1A474FFB1A4D282B1D0B1DDB1FAB2
:10048400740175F001D15C740275F001D15C7404DF
:0A04940075F033D15C740675F00FAB
:10049E00D15C740075F00ED15CB1C3B1D0741C7513
:1004AE00F001D15C741D75F006D15C740575F00019
:1004BE00D15C22B1B8B40E02802DB41E0D74277516
:1004CE00F01ED15CB1D0B1C3801DB42E0974277556
:1004DE00F01ED15C8011B460028050742775F0FF5D
:1004EE00D15CB1C3C20022D18FC281D17CD281D165
:1004FE009CB1B8758C00758A00D28C30870E308D09
:10050E00FAC28DC28CB1C3B1D0C20022C28CB1B8B6
:10051E00B42E15742775F02ED15CB1C3742775F007
:10052E00FED15CD200228003C20022D169742775ED
:10053E00F060D15CB1D07810D8FE742775F060D120
:10054E005CD20022B1DDD117D134C2827427B1A49E
:10055E0074FFB1A4D282B1B8D15180FEB170F0A3B4
:10056E0080FA780874003090FDA29233D80420905F
:10057E00FD222090FD80EF758200758300B19AF008
:10058E00A3E583B402F70080FE00000030FFFDC239
:10059E00FFE5A32280F6F5A330FFFDC2FF2274FF14
:1005AE00F5A330FFFDE5A3C2FF22C2827407B1A4FA
:1005BE00B1ACD28222C28274E1B1A474FFB1ACD2CA
:0405CE008222C28241
:1005D20074E2B1A474FFB1A4D28222C2827430B197
:1005E200A4E524B1A4E525B1A4E526B1A4E527B18B
:1005F200A4E528B1A4D28222C282742AB1A4E52938
:10060200B1A4E52AB1A4E52BB1A4E52CB1A4E52D52
:10061200B1A4D28222C2827410B1A4B1ACF524B1C9
:10062200ACF525B1ACF526B1ACF527B1ACF528D2C5
:100632008222C282740AB1A4B1ACF529B1ACF52A06
:10064200B1ACF52BB1ACF52CB1ACF52DD28222C2F6
:10065200827409B1A4B1ACD28222C2824420B1A474
:10066200E5F0B1A4D28222C28278207461B1A4B131
:10067200ACF208E8B440F8D28222C282780074A0B8
:10068200B1A4E2B1A408E8B420F8D28222758200B3
:10069200758300A3E583B401FA22C2B275820075A4
:1006A2008300A3E583B403FAD2B222758200758374
:1006B20000A3E583B43EFA22758200758300A3E5A8
:1006C20083B4F8FA22C0BB75BB0BD2EC30EDFDC28D
:1006D200EDD2EC30EDFDC2EDD2EC30EDFDC2EDD04D
:1006E200BB22C2CF0531E531B40A0775DA00753194
:0906F20000222253917F3096068C
:1006FB00C29600D29722C29700D29622D29475A7A7
:10070B0010C29AC29F75A70022C0E0C0F0E4F5F0BA
:10071B00E493A36004F12980F7D0F0D0E022309964
:10072B00FDC299F59922C0E0C4F143F129D0E0C094
:10073B00E0F143F129D0E022540FB40A0040022427
:10074B0007243022C39430B40A00401BB41100407C
:10075B00139407B41000400FB42A0040079420B440
:10076B0010004003C374FFB3223098FDE599C29883
:10077B0022C0F0C000C298F174F500F14F40F6C4EE
:10078B00F5F0E500F129C298F174F500F14F40F650
:10079B0045F0F5F0E500F129E5F0D000D0F0220AA4
:1007AB000D000A0D54455354205245535055455393
:1007BB0054410A0D2020202020202056454C4F4329
:1007CB004944414420554152540A0D00752EFF7582
:1007DB002FFF22C000C0E07808622FC3E52E13F56F
:1007EB002EE52F13F52F5006632EA0632F01D8EBA8
:1007FB00D0E0D00022010101020203040506070824
:10080B00090A0B0C0D020202020202020202020290
:10081B0002020202020202020202020202020202AD
:10082B00020202020202020202020202020202029D
:10083B0002020202021F0A0010000011360002A27F
:10084B00000000000000000000000000000000009D
:0F085B000000B85ACDF7F7F7F7F7F7F7F7F7F709
:10180000010003A004560100013B8090FFFFFFFF91
:00000001FF
