:02000000415964
:0400030012124B3258
:040023001213113271
:040043001212B232B1
:040063001212F6324D
:04006B001212FC323F
:0400730012126632CD
:04008B001212963285
:0800930012129A32C00102F0C2
:0300FD008201007D
:1001000075FF80E4D5E0FDE4D5E0FD75EF062275CE
:1001100097DE7597AD53D9BF75D90375DC4675AEBB
:100120004675AF4675CC4675960022758840758930
:1001300021758E12758DE575C80475A7107594200C
:100140007595F07592207593F07591077598027505
:10015000D2F775D3AD75D3CE75D5AD75D4F775C05F
:100160000075A700227598522275A14075F8017597
:10017000A2032275BB1075BC0875B9BF75DF1F756A
:10018000E88375B25A75B3002275A730759B8575E3
:100190009F9A759D08439D4075990175A70022752A
:1001A000A730E59144C0F591903E3AA3E493F584DD
:1001B000903E3AE493F585E59344C0F593903E3C38
:1001C000A3E493F589903E3CE493F58A75A7002259
:1001D000E5D14480F5D12275A72075F1FE75F2674F
:1001E00075F3E775F4FC75A40E75A50275A6267562
:1001F0009C0C75D4CB75D5E475CC8775E10375E39C
:100200004075FC4075FB4075A7002275A90075B1CB
:100210001C43B1802275A71075E68243E64075F352
:100220000C75A70075A71075BB0275EE0275A700C7
:1002300075E40743880175A8102275A72043C60CF2
:1002400043D10C75917775B6C075B50C75AE577501
:10025000BFC075BE0C75A700227597DE7597AD758A
:100260008160C2B2D215C21500007800D8FE00002D
:01027000008D
:1002710075108075110E12010012010F12012B125F
:10028100017312018912019F1201D012016512013D
:10029100691201D712020B12021512023A75A71048
:1002A10075BC0075A700C209C208C20AC298C299EA
:1002B100C2A17583007582007583FB7582FDC295AD
:1002C100C2B2C20430B304740180027402F54175F4
:1002D10042007543007544007516FA75175F75A7DE
:1002E10010C29A8516A58517A48516A38517A2D2D3
:1002F1009A75A700C2077518FFC203C206C289C258
:100301001275A71075A700120C0C120C0C120C0C14
:10031100D28343B810D2AF7540A575493C75460FDD
:10032100C20C75453175A710C29A75A7007F127E60
:10033100347D5675F020EF840000751D00751E0098
:10034100754A00903E3EE493F54EA3E493F54F9039
:100351003E43E493F54D903E00E4740693F51AA3F1
:10036100740693F51B3087FD30B20312090720098B
:100371005712085820095112089220094B903E3219
:10038100E493FBA3E493FA12123F30D70820093813
:10039100754203801E903E34E493FBA3E493FA126A
:1003A100123F30D708200920754202800620091823
:1003B1007542003006071214BEC206800E75BB0AD4
:1003C1002087FD200902809D02080A300897C20893
:1003D100E53C54F0B42009D12C301089D1BA808584
:1003E100E53DB48080E53C540FF54175420112169C
:1003F100CA53E6FD903DDEE493B4FF0343EF1012D0
:100401000AEC20040BE53C540FF54175420061668E
:10041100D2B2E53C540F4410F5417542017510808C
:1004210075110E903E00740493F512A3740493F5B4
:1004310013C2D7E513354DF5C3E5123400F5C4C237
:10044100D7E513954DF5C5E5129400F5C6903E002C
:10045100740293F510A3740293F511120AA2308766
:10046100FD2087FD3087FD2087FD3087FD2087FD3A
:100471003087FD2087FD3087FD2087FD3087FD20F7
:1004810087FD3087FD2087FD3087FD2087FD43E60E
:1004910002B136300809E53DB40004C208802230BB
:1004A100120280253009EA2004E7780030060B1299
:1004B10014BEC2063008DA43EF10D8F080EC3006E3
:1004C100FDC2A11214BE1216417516FF7517FC75F7
:1004D100A710C29A75A70078003006351214BEC263
:1004E1000630082DE53C54F0B41026E53DB48021DA
:1004F1007516FA75175F75A710C29A8516A5851727
:10050100A48516A38517A2D29A75A7001216CA61EF
:10051100F2C212C20CC204754A00903E00E4740695
:1005210093F51AA3740693F51B6166D8AC80A843B2
:03053100EF1000C8
:10053400800012081F12085812089275BB0A43B2B1
:10054400013006201214BEC206300818E54154F0EA
:10055400B4100AE542754A00120A318056B4000408
:10056400C2A1C12B2087FD7800D8FE2087D3300498
:1005740042854E8C854F8AD28C308DFDC28CC28DC3
:10058400AB12AA13C2EB12102F75BB1053B2FE208C
:100594001410201318801C20EB02801712123F3015
:1005A400D70B3087FD20070B1209D180063087FD59
:1005B40012097130037153E6FDC042C041E53C5459
:1005C4000FF541754201120AECD041D04220040ECD
:1005D400E53C540FF54175420043EF106166751018
:1005E4006075110E75106075110E120AA23087FD28
:1005F4002087FD3087FD2087FD3087FD2087FD3073
:1006040087FD2087FD3087FD2087FD3087FD20870B
:10061400FD3087FD2087FD3087FD2087FD43E602FE
:10062400754A00C207C20322120D11E54154072482
:1006340020F541754201754301754400D2B27547F6
:10064400A0C20F3087FD2087FD3087FDF1A5E5416D
:1006540054072420F541754201751CA53006161275
:1006640014BEC2063008F5C208E53C54F0B400ECF0
:1006740043EF1080E73087FD2087FD309209151C79
:10068400E51CB400D7801A120D2AE5415407242032
:10069400F5417542027543AA754455751CFFD21085
:1006A40022C210120ADEE5415407F5417542007575
:0206B400430001
:1006B600754400223087FD12085812089230062130
:1006C6001214BEC206300819E54154F0B40012E512
:1006D60042754200F156C20880748005120A3180C4
:1006E6006D20920AF15E751CFF7542028011151C81
:1006F600E51CB4C00A754200F15B805275420120C8
:1007060087FD7880D8FE0075BB0A758CF4758A80E3
:10071600D28C308DFDC28CC28DAB12AA13C2EB12E5
:10072600102F75BB1053B2FE201410201318801C16
:1007360020EB02A1B712123F30D70B3087FD2007FE
:100746000B1209D180063087FD120971C1BA222227
:10075600C2A11214BEC2A122120D2A008512F0787F
:100766002BE2B5F00A8513F0782CE2B5F00122F100
:1007760078222087FD3087FD782BE2F512782CE26F
:10078600F513C2D7E513354DF5C3E5123400F5C4AC
:10079600C2D7E513954DF5C5E5129400F5C6227549
:1007A600106075110E903E38E493F512A3E493F5AC
:1007B60013C2D7E513354DF5C3E5123400F5C4C2AF
:1007C600D7E513954DF5C5E5129400F5C6120AA2B4
:1007D6003087FD2087FD3087FD2087FD3087FD208F
:1007E60087FD3087FD2087FD3087FD2087FD308718
:1007F600FD2087FD3087FD2087FD3087FD2087FDA2
:0808060043E60222C2A17800C2
:10080E00D8FE3006F91214BEC2063008F10043EFCE
:10081E00103087FDE54AB4E0028003054A22758C4C
:10082E00FF758AC0D28C308DFDC28CC28DAB1AAAD8
:10083E001B12120912123F20D708D207D518081121
:10084E00CB227518FFC207C20322903E36E493FBFB
:10085E00A3E493FA121012E5BEB40F09E5BDB4FF7E
:10086E000411D28011E5BEB4000411D28008121218
:10087E003F30D70211DD30150A900104E5BEF0A31A
:10088E00E5BDF022903E30E493FBA3E493FAF1EE43
:10089E00E5BEB40F09E5BDB4FF0411E88011E5BE55
:1008AE00B4000411E8800812123F30D70211F33061
:1008BE00150A900106E5BEF0A3E5BDF022C204C202
:1008CE00A1D20322D2097541E175421A010A22D240
:1008DE00097541E1754214010A22D2097541E1758B
:1008EE004219010A22D2097541E1754215010A2207
:1008FE00D2097541E175421422851E82851D83A39E
:10090E0085821E85831DE583B40308C2B2751D0062
:10091E00751E002280FE80FE1216ABD28112102FA1
:10092E00C2817B007A8012123F20D7EC31711216F1
:10093E00AB80E580FE20A6FD1216AB1216AB317110
:03094E001216ABD3
:100951001216AB1216ABE5ECB411F0C2A12230872E
:10096100FDE5ECB43003C2A12231711216CA80EE4A
:1009710030A5FD20A5FD75A710E5ECB43002804C33
:1009810053D8BF75DC0075AE0075AF0075CC00752E
:10099100F90075FA00E5EB75EB00E5EC14F5ECE513
:1009A100F48511F4E5F514F5F5E584758400E58524
:1009B10014F585E5DD8511DDE5DE14F5DE75DC4632
:1009C10075AE4675AF4675CC4643D84075A7002233
:1009D10030A5FD20A5FD75A710E5ECB49002804C73
:1009E10053D8BF75DC0075AE0075AF0075CC0075CE
:1009F100F90075FA00E5EB75EB00E5EC04F5ECE5C3
:100A0100F48511F4E5F504F5F5E584758400E585D3
:100A110004F585E5DD8511DDE5DE04F5DE75DC46F1
:100A210075AE4675AF4675CC4643D84075A70022D2
:100A3100903E00E542C2D7940B30D7402087FD306D
:100A410087FD903E00E54275F004A4F582E493F53C
:100A510012A3E493F513A3E493F51AA3E493F51B0E
:100A6100C2D7E513354DF5C3E5123400F5C4C2D73D
:100A7100E513954DF5C5E5129400F5C6C20822753A
:100A8100A71053D8BF75EC0075F50075850075DEAC
:100A91000043D84075A7001216AB1216AB53D8BF4E
:040AA1002275A720F3
:100AA50043C60C75A70075DC4675AE4675AF467531
:100AB500CC4675EB008510EC8511F48510F5758431
:100AC500008510858511DD8510DE7596002087FD72
:100AD5003087FD43D840D2A1222087053087FD808D
:100AE500032087FDC2A12275A730759B85759F9A46
:100AF500759D08439D4075990175A70075A72053FD
:100B0500C6F375A7007515037158D20430060FC2D8
:100B1500061214BEE53C54F0B40003C20422780862
:100B25003087FD2087FD300605C2061214BED8F0B9
:100B3500300417E515C2D775F00395F020D7037576
:100B450015031515E515B400BF220515E515B440C7
:100B5500B72222903E40E493F510A3E493F5117576
:100B6500A72043C60C75A70075DC4675AE4675AF64
:100B75004675CC4675EB008510EC8511F48510F5AE
:100B85007584008510858511DD8510DE759600203C
:100B950087FD3087FD3006051214BEC20643D840D6
:100BA500D2A11216CA75140030A5FD20A5FD75A7A2
:100BB5002053C6F375A70053D8BF75DC0075AE008A
:100BC50075AF0075CC0075F90075FA00D2A2C2A503
:100BD50075A730539BCF439D2075A70043E6201290
:100BE500169EC2A153E6DF903E42E493F5F0E5146C
:100BF500B40002800FB40102800AC2D795F030D745
:100C050003D20422C204223087FD7800D8FE308743
:0C0C1500F62087FD7800D8FE2087F6222C
:100C2100B111E54154072420F54175430075440095
:100C31007547A0C20FC2AF209236D2B2B12A782C2A
:100C4100E2F543782DE2F544801EE543940920D76F
:100C51000E75A73075844075850775A700800975E5
:100C6100A73075850675A7007547A01216CA80C7FB
:100C710080C520081E300FBFD295E541540724E0FE
:100C8100F5417542693008FDC208E54154F0004361
:100C9100EF1022C208E54154F0B4009B00D2952226
:100CA1007547A075A710D29A75A700C20F20924868
:100CB100B12A75A7307826E2F5847825E2F58575A5
:100CC100A700802B782CE2F543782DE2F544E5432B
:100CD100940920D70E75A73075844075850675A7D0
:100CE10000800C75A73075844075850675A7007561
:100CF10047A01216CAD21022300FB2E54154072480
:100D0100E0F541754269C210E54154F043EF10220C
:100D1100900FC47824740093F6A308E8B42EF6B1BA
:100D21008AB1991216CAD1B622D151742775F060D1
:100D3100F15AD1CE7810D8FE742775F060F15A229D
:100D410078267924E2F70809E8B82BF8782679297A
:100D5100E2F70809E8B82BF8B1991216CA900FCE3C
:100D6100B18AD1A9B1EB300DFBF132F115B1EB3004
:100D71000DFB1216CA1216CA1216CA1216CA12167A
:100D8100CA1216CA80E70080FE7800900FA4E4938F
:100D9100F208A3E8B420F722C2817427F16774FF37
:100DA100F167D281D1CED1DBD1F8740175F001F1B7
:100DB1005A740275F001F15A740475F033F15A74E2
:100DC1000675F00FF15A740075F00E75F00FF15AB7
:100DD100D1C1D1CE741C75F001F15A741D75F006A4
:100DE100F15A740575F000F15A22D1B6B40E0280A1
:100DF10029B41E0D742775F01EF15AD1CED1C180D0
:100E010019B42E09742775F01EF15A800DB46002D1
:100E11008023742775F0FFF15A22121684C283D100
:100E210078D283121691D1B62092FDD1B6B4600268
:100E31008003C20D22D151742775F060F15AD1CED1
:100E41007810D8FE742775F060F15AD20DD1A02226
:100E5100C28178207461F16774FFF5A330FFFDE56D
:100E6100A3C2FF74FFF5A330FFFDE5A3C2FFF208A3
:100E7100E8B440EFD28122F17BC281780074A0F105
:100E810067E2F5A3F18230FFFDC2FF08E8B41DF16E
:0E0E9100E52EF167E52FF167742BF167D28132
:100E9F00227820E208E8B440FA2278267906E2F3B5
:100EAF000809E8B42BF822C2817407F167F16FD2F9
:100EBF008122C28174E1F16774FFF16FD28122C286
:100ECF008174E2F16774FFF167D28122C2817430BD
:100EDF00F167E524F167E525F167E526F167E52779
:100EEF00F167E528F167D28122C281742AF167E5A3
:100EFF0029F167E52AF167E52BF167E52CF167E545
:100F0F002DF167D28122C2817410F167F16FF52440
:100F1F00F16FF525F16FF526F16FF527F16FF528D4
:100F2F00D28122C281740AF167F16FF529F16FF551
:100F3F002AF16FF52BF16FF52CF16FF52DD2812280
:100F4F00C2817409F167F16FD28122C2814420F10D
:100F5F0067E5F0F167D28122F5A330FFFDC2FF22D2
:100F6F0074FFF5A330FFFDE5A3C2FF22752EFF75B9
:100F7F002FFF22C000C0E07808622FC3E52E13F5C3
:100F8F002EE52F13F52F5006632EA0632F01D8EBFC
:100F9F00D0E0D000221F0A0010000011360002A27C
:100FAF000000000000000000000000000000000032
:100FBF000000B85ACDF7F7F7F7F7F7F7F7F7F76835
:100FCF0020000F01BA11360002A262DB002F0000D1
:100FDF00000B00000000010000000000BB002BC050
:100FEF00BBC0B275B25A75BB1120ECFDD2EC30ED1F
:080FFF00FDC2EDD2EC30EDFD66
:10100700C2EDA9BEA8BDD0B2D0BB22C0BB75BB097B
:1010170020ECFDD2EC30EDFDC2EDD2EC30EDFDC29F
:10102700EDA9BEA8BDD0BB22C28320ECFDD2EC3017
:10103700EDFDC2ED758200754B00758300313AEF07
:10104700F0A3EEF0054B054B854B82E54BB420EA48
:10105700D2837F007E007D0078017903C2D7E2F555
:10106700F0E325F0FD1819E2F5F0E335F0FEEF3473
:1010770000FF78047905C2D7E32DFDE23EFEEF3489
:1010870000FF08080909E8B420ECC2D7EF13FFEE08
:1010970013FEED13FDC2D7EF13FFEE13FEED13FDA5
:1010A700C2D7EF13FFEE13FEED13FDC2D7EF13FF09
:1010B700EE13FEED13FDC2D7EF13FFEE13F9ED1399
:1010C700F8301508900100E9F0A3E8F031E731F8AE
:1010D70022313AC2D7EE8AF025F0FEEF8BF035F0D9
:0410E700FFC2D7EF7E
:1010EB0013FBEE13FA313AC2D7EE8AF025F0FEEF7E
:1010FB008BF035F0FFC2D7EF13FBEE13FA80FE7FB8
:10110B00007E0078007900C2EBD2EC30EDFDC2ED31
:10111B00C2D7E5BE13F9FFE5BD13F8FEC2EBD2EC67
:10112B0030EDFDC2EDC2D7E5BE13F9E5BD13F8C234
:10113B00EBD2EC30EDFDC2EDE5BEFFE5BDFE22C20C
:10114B00D7E5BE13FFE5BD13FEC2EBD2EC30EDFDD0
:10115B00C2EDC2D7E5BE13FDE5BD13FCC2D7EE2C25
:10116B00FEEF2DFFC2D7EF13FFEE13FE22C2EBD221
:10117B00EC30EDFDC2EDC2D7E5BD28F8E5BE39F97F
:10118B00C2D7E913F9E813F8C2D7E913F9E813F852
:10119B00E9FFE8FEC2EBD2EC30EDFDC2EDA9BEA833
:1011AB00BDC2EBD2EC30EDFDC2EDC2D7E5BD28F8E8
:1011BB00E5BE39F9C2D7E913F9E813F8C2D7E91339
:0111CB00F92A
:1011CC00E813F8C2D7EF29F9EE38F8C2D7E913F9CA
:1011DC00E813F8C2D7E913F9E813F8C2D7E895C3B6
:1011EC00E995C430D703C21322D21322C2D7E89593
:1011FC00C5E995C620D703C21422D2142220ECFDD7
:10120C00D2EC30EDFDC2EDD2EC30EDFDC2EDC2D72B
:10121C00A9BEA8BD30150A900102E5BEF0A3E5BD3C
:10122C00F022E5BE13F9E5BD13F8C2D7E913F9E8CE
:10123C0013F822E88AF0C395F0E98BF095F022C2FE
:10124C00A1C28953D8BF80FE12094CC28922C2891F
:10125C00120971D1ABD1ABC28922C00053917F303E
:10126C000C251546A846B8001E75460C1545A84514
:10127C00B8001400C2A1C20CE541540F2400C204F2
:10128C00F541754300D212D0002243EF102275A70E
:10129C001053C07B75A700C2AC75493CC20BC20A87
:1012AC007540A5D2AC22C0E08013C2A1D207C20403
:1012BC00C2A1D203751800D0E02220A616C2A175D7
:0E12CC004216E541540F24E0C204D209F54158
:1012DA0053E6FD8014C2A1754212E541540F24E081
:1012EA00C204D209F54153E6FDD0E0220514539B0E
:1012FA00CF2230870975AB10C28753BFCF2275AB97
:10130A0020D28753BFCF22C001C000C0E0C0D0C0E6
:10131A00F0E54860021548200A21E599B43E1175A6
:10132A00A710D2C275A700D20A8540F025F0F54071
:10133A00D0F0D0D0D0E0D000D00122200B20E59907
:10134A00A849F68540F025F0F5400549A849B84076
:10135A0002D20BD0F0D0D0D0E0D000D00122754913
:10136A003CC20BC20A75A710C2C285D2D485D3D596
:10137A0075A700E5998540F0B5F00D8019D0F0D039
:10138A00D0D0E0D000D001227540A5D0F0D0D0D086
:10139A00E0D000D0012230B30575F001800375F06A
:1013AA0002E53C540FB5F0E030030100D206754067
:1013BA00A5E53C54F0B4D00BD0F0D0D0D0E0D000AA
:1013CA00D00122B4404EC2ACC298D299E53DB401D4
:1013DA0002A12CB40004B12C8024B40204B12C80E4
:1013EA001DB40304B12C8016B40404B12C800F7808
:1013FA00007800D8FEE212D7A808E8B409F73099B5
:10140A00FDC206C299C298D2ACD0F0D0D0D0E0D0FA
:07141A0000D00122B4504391
:10142100C2ACC298D299E53D540F75F02025F0A8C1
:10143100F0743E12D7A0E53C12D7A0E53D12D7A02B
:10144100E212D7A008E8E212D7A074A512D7A03003
:1014510099FDC299C298D2ACD0F0D0D0D0E0D000E2
:10146100D00122B46023E53F30E70AD20CE53FC248
:10147100E7F5458009C20C800543EF1091BED0F01D
:10148100D0D0D0E0D000D0012230091EE53C54F08C
:10149100B4001FE53C540FF54175420075430075DA
:1014A100440091BE75A70043EF10853C41853D4244
:1014B100D208D0F0D0D0D0E0D000D00122C0E0C21C
:1014C100ACC29875F0A5D299743E12D7A025F0F55B
:1014D100F0C0F0E54154F0F5F030B304740180023E
:1014E100740225F0D0F012D7A025F0F5F0E54212F4
:1014F100D7A025F0F5F0E54312D7A025F0F5F0E5EA
:101501004154F0B41009300C06E545D2E78002E5FC
:101511004412D7A025F0F5F0E5F012D7A03099FDDF
:10152100C206C299C298D2ACD0E022E53DB40026F1
:10153100743E12D7A0E53C12D7A0E53D12D7A0908A
:1015410000FDE49312D7A0A3E49312D7A07455121F
:10155100D7A03099FD22B40251743E12D7A0E53CC8
:0B15610012D7A0E53D12D7A090009724
:10156C00E49312D7A0A3E49312D7A0A3E49312D7C9
:10157C00A0A3E49312D7A09000FDE49312D7A0A3EC
:10158C00E49312D7A0A3E49312D7A07583FF7582BE
:10159C00C090FFC07810E49312D7A0A3D8F822B45F
:1015AC000105B1BD43EF10B4030412D60022D115CE
:1015BC0022799012D7F3F709B9A0F8758130744FDE
:1015CC0012D7A0744B12D7A0903E007800E493F28F
:1015DC00A308B880F875830075820012D695E58251
:1015EC00B480F8744312D7A0745212D7A07443126B
:1015FC00D7A0743D12D7A012D6F0E812D7A8E912E2
:10160C00D7A83099FD43EF1022900100E012D7A02B
:10161C00A3E012D7A0A3E012D7A0A3E012D7A0A3F7
:10162C00E012D7A0A3E012D7A0A3E012D7A0A3E0AA
:10163C0012D7A0A322903DDE740093B4FF02801851
:10164C007800E493F2A308B804F812D7707800E29B
:10165C0005E0F2903DDED16522C0A8C2AF438F01F8
:10166C00538FFD780075B7A575B7F1E2F0A308B8F4
:10167C0004F3538FFED0A822758200758300A3E576
:04168C0083B401FA28
:1016900022758200758300A3E583B403FA22758264
:1016A00000758300A3E583B40EFA2275820075836A
:1016B000E4A3E583B4FFFA22781CD8FE22758200E9
:1016C000758300A3E583B43EFA227582007583001A
:1016D000A3E583B444FA22758200758300A3E583F1
:0416E000B43DFA22F9
:023DDE0000697A
:103DE0009FC5B9AEEE0570D6CD72AF3921B533D2CD
:103DF0009D8E026E9A0C11CDE5FC537C01BD2E0CFC
:103E00000280600A01000210022003E0030001C0EA
:103E1000040001A00585018006500180074701804C
:103E200008680180090001800A000180000000008C
:103E300003400D000D8009F0028007800FF0F7802D
:103E4000700E0B0840A50000000069000000000093
:0B3E5000000000000000000000000067
:023FF0000EF8C9
:10D60000D18C3099FDC202F11E200213EAB410023F
:10D610008010E583B400F0E582B47FEB3002034371
:10D62000EF10903E00C082C083903FF0E493F5126B
:10D63000A3E493F513D083D082F170C0A8C2AF43A6
:10D640008F01538FFD780075B7A575B7F1E2F0A390
:10D6500008B880F3538FFED0A8C0A8C2AF438F0193
:10D66000538FFD903FF0E51275B7A575B7F1F0A3A4
:10D67000E51375B7A575B7F1F0538FFED0A8D1F0BB
:10D68000E8F1A8E9F1A83099FD43EF10742AF1A060
:10D69000743EF1A022743A75F000F1A07410C0E05D
:10D6A00025F0F5F0D0E0F1A8E583C0E025F0F5F035
:10D6B000D0E0F1A8E582C0E025F0F5F0D0E0F1A8D7
:10D6C0007400C0E025F0F5F0D0E0F1A87810E4E0B7
:10D6D000C0E025F0F5F0D0E0F1A8A318B800EF7491
:10D6E00000C2D795F0F1A8740AF1A0740DF1A02240
:10D6F00075A72043CE0443CE0875D220438680759B
:10D70000D30175CE5D75CF5675CF5675CF565386FE
:10D710007F53CEFEE5CBF8E5CBF975A70022F1EB00
:10D72000B43AFBF1F375F000C0E025F0F5F0D0E07D
:10D73000C2D79401F9F1F3F58325F0F5F0F1F3F593
:10D740008225F0F5F0F1F3FA25F0F5F0C083E583DA
:10D75000F583F1F3F0A325F0F5F0D9F6F1F3F02518
:10D76000F0F5F0D083F1F325F0B4000122D20222CB
:10D77000C0A8C2AF75B7A575B7F1438F02438F013B
:10D78000F0538FFE538FFDD0A82222C0E0C0F0E4FA
:10D79000F5F0E493A36004F1A080F7D0F0D0E0228C
:10D7A0003099FDC299F59922C0E0C4F1BAF1A0D038
:10D7B000E0C0E0F1BAF1A0D0E022540FB40A00407A
:10D7C000022407243022C39430B40A00401BB41151
:10D7D0000040139407B41000400FB42A004007948F
:10D7E00020B410004003C374FFB3223098FDE599C4
:10D7F000C29822C0F0C000C298F1EBF500F1C6401B
:10D80000F6C4F5F0E500C29812D7EBF50012D7C6C2
:10D8100040F445F0F5F0E500E5F0D000D0F0220A44
:02D820000D00F9
:00000001FF
