:02000000415C61
:0400030012125A3249
:0400230012135C3226
:040043001212FB3268
:040063001213413201
:04006B0012134732F3
:040073001212AF3284
:04008B001212DF323C
:080093001212E332C00102F079
:0300FD008201007D
:1001000075FF80E4D5E0FDE4D5E0FD75EF062275CE
:1001100097DE7597AD53D9BF75D90375DC4675AEBB
:100120004675AF4675CC4675960022758840758930
:1001300021758E12758DE575C80475A7107594200C
:100140007595F07592207593F07591077598027505
:10015000D2F775D3AD75D3CE75D5AD75D4F775C05F
:100160000075A700227598522275A14075F8017597
:10017000A2032275BB1075BC0875B9BF75DF1F756A
:10018000E88375B25A75B3002275A730759B8575E3
:100190009F9A759D08439D4075990175A70022752A
:1001A000A730E59144C0F591903E3AA3E493F584DD
:1001B000903E3AE493F585E59344C0F593903E3C38
:1001C000A3E493F589903E3CE493F58A75A7002259
:1001D000E5D14480F5D12275A72075F1FE75F2674F
:1001E00075F3E775F4FC75A40675A50275A624756C
:1001F0009C0C75D4CB75D5E475CC8775E10375E39C
:100200004075FC4075FB4075A7002275862075A9D6
:100210000175B11C43B1802275A71075E68243E6D3
:100220004075F30C75A70075A71075BB0275EE023B
:1002300075A70075E40643880175A8112275A720EB
:1002400043C60C43D10C75917775B6C075B50C7566
:10025000AE5775BFC075BE0C75A700227597DE75C9
:1002600097AD758160C2B3D215C21500007800D871
:03027000FE00008D
:100273000075108075110E12010012010F12012B6F
:1002830012017312018912019F1201D0120165122A
:1002930001691201D712020B12021812023D75A74F
:1002A3001075BC0075A700C209C208C20AC298C271
:1002B30099C2957583007582007583FB7582FDC2B3
:1002C300B3C204D216301604740180027402F541DD
:1002D3007542007543007544007516FA75175F750E
:1002E300A710C29A8516A58517A48516A38517A2FC
:1002F300D29A75A700C2077518FFC203C206C28946
:10030300C21275A71075A700120C1F120C1F120C36
:100313001FD2B643B810D2AF7540A575493C754698
:100323000FC20C75453175A710C29A75A7007F12CD
:100333007E347D5675F020EF840000751D00751E18
:1003430000754A00903E3EE493F54EA3E493F54FC7
:10035300903E43E493F54D903E00E4740693F51A02
:10036300A3740693F51B3087FD30B30312091A20DB
:10037300095712086B2009511208A520094B903E1A
:1003830032E493FBA3E493FA12124E30D708200908
:1003930038754202801E903E34E493FBA3E493FA43
:1003A30012124E30D7082009207542038006200917
:1003B30018754200300607121509C206800E75BB78
:0F03C3000A2087FD200902809D02081D3008973F
:1003D200C208E53C54F0B42009D13F301089D1CD98
:1003E2008085E53DB490028047B480028002616955
:1003F200E53C540FF54175420112171553E6FD9085
:100402003DDEE493B4FF0343EF10120AFF20040B16
:10041200E53C540FF5417542006169D218E53C5440
:100422000FF5417542083006FD121509C2066169D1
:10043200D2B3E53C540F4410F5417542017510806A
:1004420075110E903E00740493F512A3740493F593
:1004520013C2D7E513354DF5C3E5123400F5C4C216
:10046200D7E513954DF5C5E5129400F5C6903E000B
:10047200740293F510A3740293F511120AB5308732
:10048200FD2087FD3087FD2087FD43E602B1403025
:100492000809E53DB40004C208802230120280320D
:1004A2003009EA2004E7780030060B121509C2066B
:1004B2003008DA43EF10D8F080EC3006FDC29575B3
:1004C200A72053C6F375A700C2A5C2A2121509122E
:1004D200168C7516FF7517FC75A710C29A75A700C2
:1004E2007800300635121509C20630082DE53C5455
:1004F200F0B41026E53DB480217516FA75175F75C4
:10050200A710C29A8516A58517A48516A38517A2DA
:10051200D29A75A70012171561FEC212C20CC2044C
:0F052200754A00903E00E4740693F51AA3740620
:1005310093F51B6169D8AC80A843EF1000800012CD
:10054100083212086B1208A575BB0A43B2013006C6
:1005510029121509C206300821E54154F0B41013DF
:10056100E542A2E7B2D753427FE542754A00120A3B
:10057100448056B40004C295C13E2087FD7800D85E
:10058100FE2087CA300442854E8C854F8AD28C303A
:100591008DFDC28CC28DAB12AA13C2EB12103E7537
:1005A100BB1053B2FE201410201318801C20EB0244
:1005B100801712124E30D70B3087FD20070B12091E
:1005C100E480063087FD12098430037153E6FDC0D3
:1005D10042C041E53C540FF541754201120AFFD07A
:1005E10041D04220040EE53C540FF54175420043D1
:1005F100EF10616975106075110E75106075110E3F
:10060100120AB53087FD2087FD3087FD2087FD3038
:1006110087FD2087FD3087FD2087FD3087FD2087FE
:10062100FD3087FD2087FD3087FD2087FD3087FD68
:100631002087FD43E602754A00C207C20322120D5C
:1006410020E54154072420F54175420175430175A8
:100651004400D2B37547A0C20F3087FD2087FD301B
:1006610087FDF1B8E54154072420F5417542017534
:100671001CA5300616121509C2063008F5C208E598
:100681003C54F0B400EC43EF1080E73087FD208745
:10069100FD309209151CE51CB400D7801A120D39E2
:0E06A100E54154072420F5417542027543AA35
:1006AF00754455751CFFD21022C210120AF1E54194
:1006BF005407F54175420075430075440022308799
:1006CF00FD12086B1208A5300621121509C206305B
:1006DF000819E54154F0B40012E542754200F16982
:1006EF00C20880748005120A44806D20920AF1714D
:1006FF00751CFF7542028011151CE51CB4C00A75EC
:10070F004200F16E80527542012087FD7880D8FE3D
:10071F000075BB0A758CF4758A80D28C308DFDC242
:10072F008CC28DAB12AA13C2EB12103E75BB1053C5
:10073F00B2FE201410201318801C20EB02A1CA1245
:10074F00124E30D70B3087FD20070B1209E48006BD
:10075F003087FD120984C1CD2222C295121509C21C
:10076F009522120D39008512F0782BE2B5F00A852B
:10077F0013F0782CE2B5F00122F18B222087FD30A7
:10078F0087FD782BE2F512782CE2F513C2D7E5132B
:10079F00354DF5C3E5123400F5C4C2D7E513954DB9
:1007AF00F5C5E5129400F5C62275106075110E900F
:1007BF003E38E493F512A3E493F513C2D7E513354E
:1007CF004DF5C3E5123400F5C4C2D7E513954DF5C9
:1007DF00C5E5129400F5C6120AB53087FD2087FDD6
:1007EF003087FD2087FD3087FD2087FD3087FD2076
:0507FF0087FD3087FDBD
:100804002087FD3087FD2087FD3087FD2087FD3060
:1008140087FD2087FD43E60222C2957800D8FE308A
:1008240006F9121509C2063008F10043EF103087AB
:10083400FDE54AB4E0028003054A22758CFF758AFF
:10084400C0D28C308DFDC28CC28DAB1AAA1B121281
:100854001812124E20D708D207D5180811DE2275B7
:1008640018FFC207C20322903E36E493FBA3E4932D
:10087400FA121021E5BEB40F09E5BDB4FF0411E579
:100884008011E5BEB4000411E5800812124E30D781
:100894000211F030150A900104E5BEF0A3E5BDF0A5
:1008A40022903E30E493FBA3E493FAF1FDE5BEB459
:1008B4000F09E5BDB4FF0411FB8011E5BEB40004CB
:1008C40011FB800812124E30D702310630150A90FF
:1008D4000106E5BEF0A3E5BDF022C204C295D20331
:1008E40022D2097541E175421A011D22D2097541CE
:1008F400E1754214011D22D2097541E175421901C5
:100904001D22D2097541E1754215011D22D20975D6
:1009140041E175421422851E82851D83A385821EB2
:1009240085831DE583B40308C2B3751D00751E00DD
:100934002280FE80FE1216F6D28112103EC2817B06
:03094400007A80B6
:1009470012124E20D7EC31841216F680E580FE2075
:10095700A6FD1216F61216F631841216F61216F6C0
:100967001216F6E5ECB411F0C295223087FDE5ECDE
:10097700B43003C29522318412171580EE30A5FDDD
:1009870020A5FD75A710E5ECB43002804C53D8BF05
:1009970075DC0075AE0075AF0075CC0075F9007594
:1009A700FA00E5EB75EB00E5EC14F5ECE5F48511E1
:1009B700F4E5F514F5F5E584758400E58514F5850A
:1009C700E5DD8511DDE5DE14F5DE75DC4675AE4641
:1009D70075AF4675CC4643D84075A7002230A5FDB4
:1009E70020A5FD75A710E5ECB4A402804C53D8BF31
:1009F70075DC0075AE0075AF0075CC0075F9007534
:100A0700FA00E5EB75EB00E5EC04F5ECE5F4851190
:100A1700F4E5F504F5F5E584758400E58504F585C9
:100A2700E5DD8511DDE5DE04F5DE75DC4675AE46F0
:100A370075AF4675CC4643D84075A70022903E0057
:100A4700E542C2D7940B30D7402087FD3087FD9011
:100A57003E00E54275F004A4F582E493F512A3E4A1
:100A670093F513A3E493F51AA3E493F51BC2D7E513
:100A770013354DF5C3E5123400F5C4C2D7E5139518
:100A87004DF5C5E5129400F5C6C2082275A71053A7
:020A9700D8BFC6
:100A990075EC0075F50075850075DE0043D8407565
:100AA900A7001216F61216F653D8BF2275A72043CF
:100AB900C60C75A70075DC4675AE4675AF4675CC94
:100AC9004675EB008510EC8511F48510F5758400E9
:100AD9008510858511DD8510DE7596002087FD302E
:100AE90087FD43D840D295222087053087FD8003B2
:100AF9002087FDC2952275A730759B85759F9A75CC
:100B09009D08439D4075990175A70075A72053C697
:100B1900F375A700751503716BD20430060FC20671
:100B2900121509E53C54F0B40003C20422780830D8
:100B390087FD2087FD300605C206121509D8F03059
:100B49000417E515C2D775F00395F020D70375157D
:100B5900031515E515B400BF220515E515B440B711
:100B69002222903E40E493F510A3E493F51175A772
:100B79002043C60C75A70075DC4675AE4675AF46B1
:100B890075CC4675EB008510EC8511F48510F5756B
:100B990084008510858511DD8510DE759600208716
:100BA900FD3087FD300605121509C20643D840D22B
:100BB9009512171575140030A5FD20A5FD75A72000
:100BC90053C6F375A70053D8BF75DC0075AE007521
:100BD900AF0075CC0075F90075FA00D2A2C2A575EF
:100BE900A730539BCF439D2075A70043E6201216DB
:100BF900E9C29553E6DF903E42E493F5F0E514B47B
:100C09000002800FB40102800AC2D795F030D703E1
:030C1900D20422E0
:100C1C00C204223087FD7800D8FE3087F62087FD8D
:100C2C007800D8FE2087F622B120E5415407242015
:100C3C00F5417543007544007547A0C20FC2AF2043
:100C4C009236D2B3B139782CE2F543782DE2F544E3
:100C5C00801EE543940920D70E75A7307584407526
:100C6C00850775A700800975A73075850675A700DF
:100C7C007547A012171580C780C520081C300FBF00
:100C8C00E541540724E0F5417542693008FDC2087E
:100C9C00E54154F00043EF1022C208E54154F0B492
:100CAC00009D00227547A075A710D29A75A700C2A7
:100CBC000F209248B13975A7307826E2F584782553
:100CCC00E2F58575A700802B782CE2F543782DE2B0
:100CDC00F544E543940920D70E75A730758440750B
:100CEC00850675A700800C75A73075844075850640
:100CFC0075A7007547A0121715D21022300FB2E558
:100D0C0041540724E0F541754269C210E54154F0A5
:100D1C0043EF1022900FD37824740093F6A308E8C5
:100D2C00B42EF6B199B1A8121715D1C522D16074A1
:100D3C002775F060F169D1DD7810D8FE742775F055
:100D4C0060F1692278267924E2F70809E8B82BF8D3
:040D5C007826792953
:100D6000E2F70809E8B82BF8B1A8121715900FDDC3
:100D7000B199D1B8B1FA300DFBF141F124B1FA309B
:100D80000DFB12171512171512171512171512173A
:100D90001512171580E70080FE7800900FB3E493DA
:100DA000F208A3E8B420F722C2817427F17674FF19
:100DB000F176D281D1DDD1EAF107740175F001F14C
:100DC00069740275F001F169740475F033F16974A6
:100DD0000675F00FF169740075F00E75F00FF1698A
:100DE000D1D0D1DD741C75F001F169741D75F00668
:100DF000F169740575F000F16922D1C5B40E028065
:100E000029B41E0D742775F01EF169D1DDD1D08093
:100E100019B42E09742775F01EF169800DB46002B3
:100E20008023742775F0FFF169221216CFC2B2D168
:100E300087D2B21216DCD1C52092FDD1C5B46002B2
:100E40008003C20D22D160742775F060F169D1DD95
:100E50007810D8FE742775F060F169D20DD1AF22F9
:100E6000C28178207461F17674FFF5A330FFFDE54F
:100E7000A3C2FF74FFF5A330FFFDE5A3C2FFF20894
:100E8000E8B440EFD28122F18AC281780074A0F1E7
:0C0E900076E2F5A3F19130FFFDC2FF08EF
:100E9C00E8B41DF1E52EF176E52FF176742BF176A1
:100EAC00D281227820E208E8B440FA22782679062A
:100EBC00E2F30809E8B42BF822C2817407F176F149
:100ECC007ED28122C28174E1F17674FFF17ED281EF
:100EDC0022C28174E2F17674FFF176D28122C28152
:100EEC007430F176E524F176E525F176E526F17698
:100EFC00E527F176E528F176D28122C281742AF1B8
:100F0C0076E529F176E52AF176E52BF176E52CF1FB
:100F1C0076E52DF176D28122C2817410F176F17EC4
:100F2C00F524F17EF525F17EF526F17EF527F17E8F
:100F3C00F528D28122C281740AF176F17EF529F16D
:100F4C007EF52AF17EF52BF17EF52CF17EF52DD276
:100F5C008122C2817409F176F17ED28122C2814450
:100F6C0020F176E5F0F176D28122F5A330FFFDC2B7
:100F7C00FF2274FFF5A330FFFDE5A3C2FF22752EFF
:100F8C00FF752FFF22C000C0E07808622FC3E52E4A
:100F9C0013F52EE52F13F52F5006632EA0632F01AA
:100FAC00D8EBD0E0D000221F0A0010000011360050
:100FBC0002A2000000000000000000000000000081
:100FCC0000000000B85ACDF7F7F7F7F7F7F7F7F787
:100FDC00F76820000F01BA11360002A262DB002F65
:100FEC000000000B00000000010000000000BB002E
:030FFC002BC0BB4C
:100FFF00C0B275B25A75BB1120ECFDD2EC30EDFDCD
:10100F00C2EDD2EC30EDFDC2EDA9BEA8BDD0B2D07D
:10101F00BB22C0BB75BB0920ECFDD2EC30EDFDC28D
:10102F00EDD2EC30EDFDC2EDA9BEA8BDD0BB22C202
:10103F00B620ECFDD2EC30EDFDC2ED758200754BA4
:10104F00007583003149EFF0A3EEF0054B054B859A
:10105F004B82E54BB420EAD2B67F007E007D00784C
:10106F00017903C2D7E2F5F0E325F0FD1819E2F597
:10107F00F0E335F0FEEF3400FF78047905C2D7E3D3
:10108F002DFDE23EFEEF3400FF08080909E8B42009
:10109F00ECC2D7EF13FFEE13FEED13FDC2D7EF1324
:1010AF00FFEE13FEED13FDC2D7EF13FFEE13FEEDB0
:1010BF0013FDC2D7EF13FFEE13FEED13FDC2D7EFF3
:1010CF0013FFEE13F9ED13F8301508900100E9F056
:0D10DF00A3E8F031F65107223149C2D7EEE7
:1010EC008AF025F0FEEF8BF035F0FFC2D7EF13FB43
:1010FC00EE13FA3149C2D7EE8AF025F0FEEF8BF0F1
:10110C0035F0FFC2D7EF13FBEE13FA80FE7F007EA3
:10111C000078007900C2EBD2EC30EDFDC2EDC2D705
:10112C00E5BE13F9FFE5BD13F8FEC2EBD2EC30EDD2
:10113C00FDC2EDC2D7E5BE13F9E5BD13F8C2EBD283
:10114C00EC30EDFDC2EDE5BEFFE5BDFE22C2D7E5FC
:10115C00BE13FFE5BD13FEC2EBD2EC30EDFDC2EDCC
:10116C00C2D7E5BE13FDE5BD13FCC2D7EE2CFEEFD6
:10117C002DFFC2D7EF13FFEE13FE22C2EBD2EC30E1
:10118C00EDFDC2EDC2D7E5BD28F8E5BE39F9C2D7F1
:10119C00E913F9E813F8C2D7E913F9E813F8E9FFF2
:1011AC00E8FEC2EBD2EC30EDFDC2EDA9BEA8BDC28B
:1011BC00EBD2EC30EDFDC2EDC2D7E5BD28F8E5BEB3
:0511CC0039F9C2D7E96A
:1011D10013F9E813F8C2D7E913F9E813F8C2D7EF06
:1011E10029F9EE38F8C2D7E913F9E813F8C2D7E9BB
:1011F10013F9E813F8C2D7E895C3E995C430D703CA
:10120100C21322D21322C2D7E895C5E995C620D7C9
:1012110003C21422D2142220ECFDD2EC30EDFDC227
:10122100EDD2EC30EDFDC2EDC2D7A9BEA8BD30159F
:101231000A900102E5BEF0A3E5BDF022E5BE13F977
:10124100E5BD13F8C2D7E913F9E813F822E88AF0EB
:10125100C395F0E98BF095F0225388FDE5E454083D
:10126100B40827C217C29575A72043C60C43D10CF9
:1012710075917775B6C075B50C75AE5775BFC075EC
:10128100BE0C75A70075E4068023D21775A720430D
:10129100C60C43D10C7591C975B6C075B5F075AE64
:1012A1009F75BFC075BECC75A70075E40E22C00046
:1012B10053917F300C251546A846B8001E75460C83
:1012C1001545A845B8001400C295C20CE541540F5C
:1012D1002400C204F541754300D212D0002243EF2D
:0812E100102275A71053C07B19
:1012E90075A700C2AC75493CC20BC20A7540A5D2AC
:1012F900AC22C0E08013C295D207C204C295D203C2
:10130900751800D0E02220A618C295754216E5414D
:10131900540F24E0C204D209F54153E6FDC2D78037
:1013290014C295754212E541540F24E0C204D20952
:10133900F54153E6FDD0E0220514539BCF223087B7
:101349000975AB10C28753BFCF2275AB20D2875323
:10135900BFCF22C001C000C0E0C0D0C0F0E54860E6
:10136900021548200A21E599B43E1175A710D2C289
:1013790075A700D20A8540F025F0F540D0F0D0D00D
:10138900D0E0D000D00122200B20E599A849F685AC
:1013990040F025F0F5400549A849B84002D20BD0E4
:1013A900F0D0D0D0E0D000D0012275493CC20BC2A8
:1013B9000A75A710C2C285D2D485D3D575A700E511
:1013C900998540F0B5F00D8019D0F0D0D0D0E0D09B
:1013D90000D001227540A5D0F0D0D0D0E0D000D007
:1013E900012230160575F001800375F002E53C54C1
:1013F9000FB5F0E030030100D2067540A5E53C5475
:10140900F0B4D00BD0F0D0D0D0E0D000D00122B4CD
:10141900404EC2ACC298D299E53DB40102A177B45D
:091429000004B1778024B4020430
:10143200B177801DB40304B1778016B40404B17788
:10144200800F78007800D8FEE212D7A808E8B40925
:10145200F73099FDC206C299C298D2ACD0F0D0D072
:10146200D0E0D000D00122B45043C2ACC298D2998D
:10147200E53D540F75F02025F0A8F0743E12D7A078
:10148200E53C12D7A0E53D12D7A0E212D7A008E8AA
:10149200E212D7A074A512D7A03099FDC299C298C2
:1014A200D2ACD0F0D0D0D0E0D000D00122B46023B2
:1014B200E53F30E70AD20CE53FC2E7F5458009C2B5
:1014C2000C800543EF10B109D0F0D0D0D0E0D000AD
:1014D200D0012230091EE53C54F0B4001FE53C5413
:1014E2000FF541754200754300754400B10975A7B7
:1014F2000043EF10853C41853D42D208D0F0D0D068
:10150200D0E0D000D00122C0E0C2ACC29875F0A5F4
:10151200D299743E12D7A025F0F5F0C0F0E54154FF
:10152200F0F5F030160474018002740225F0D0F058
:1015320012D7A025F0F5F0E54212D7A025F0F5F07C
:10154200E54312D7A025F0F5F0E54154F0B41009B7
:10155200300C06E545D2E78002E54412D7A025F01B
:10156200F5F0E5F012D7A03099FDC206C299C298F3
:05157200D2ACD0E02224
:10157700E53DB40026743E12D7A0E53C12D7A0E59E
:101587003D12D7A09000FDE49312D7A0A3E49312D5
:10159700D7A0745512D7A03099FD22B40251743EDA
:1015A70012D7A0E53C12D7A0E53D12D7A09000972F
:1015B700E49312D7A0A3E49312D7A0A3E49312D77E
:1015C700A0A3E49312D7A09000FDE49312D7A0A3A1
:1015D700E49312D7A0A3E49312D7A07583FF758273
:1015E700C090FFC07810E49312D7A0A3D8F822B414
:1015F7000105D10843EF10B4030412D60022D160CD
:1016070022799012D7F3F709B9A0F8758130744F92
:1016170012D7A0744B12D7A0903E007800E493F243
:10162700A308B880F875830075820012D695E58205
:10163700B480F8744312D7A0745212D7A07443121F
:10164700D7A0743D12D7A012D6F0E812D7A8E91296
:10165700D7A83099FD43EF1022900100E012D7A0E0
:10166700A3E012D7A0A3E012D7A0A3E012D7A0A3AC
:10167700E012D7A0A3E012D7A0A3E012D7A0A3E05F
:1016870012D7A0A322903DDE740093B4FF02801806
:0A1697007800E493F2A308B804F809
:1016A10012D7707800E205E0F2903DDED1B022C0A1
:1016B100A8C2AF438F01538FFD780075B7A575B7E9
:1016C100F1E2F0A308B804F3538FFED0A82275828B
:1016D10000758300A3E583B401FA22758200758346
:1016E10000A3E583B403FA22758200758300A3E5A4
:1016F10083B40EFA227582007583E4A3E583B4FFF7
:10170100FA22781CD8FE22758200758300A3E58336
:10171100B43EFA22758200758300A3E583B444FACE
:0E17210022758200758300A3E583B43DFA2291
:023DDE0000697A
:103DE0009FC5B9AEEE0570D6CD72AF3921B533D2CD
:103DF0009D8E026E9A0C11CDE5FC537C01BD2E0CFC
:103E00000280601001200210020003E0030001C0E4
:103E1000040001A00585018006500180074701804C
:103E2000080801800868018008A8018000000000DF
:103E300001000B880D8009F0028004000FFFF7805D
:103E4000700E0B0840A50000000069000000000093
:0B3E5000000000000000000000000067
:023FF0000EF8C9
:10D60000D18C3099FDC202F11E200213EAB410023F
:10D610008010E583B400F0E582B47FEB3002034371
:10D62000EF10903E00C082C083903FF0E493F5126B
:10D63000A3E493F513D083D082F170C0A8C2AF43A6
:10D640008F01538FFD780075B7A575B7F1E2F0A390
:10D6500008B880F3538FFED0A8C0A8C2AF438F0193
:10D66000538FFD903FF0E51275B7A575B7F1F0A3A4
:10D67000E51375B7A575B7F1F0538FFED0A8D1F0BB
:10D68000E8F1A8E9F1A83099FD43EF10742AF1A060
:10D69000743EF1A022743A75F000F1A07410C0E05D
:10D6A00025F0F5F0D0E0F1A8E583C0E025F0F5F035
:10D6B000D0E0F1A8E582C0E025F0F5F0D0E0F1A8D7
:10D6C0007400C0E025F0F5F0D0E0F1A87810E4E0B7
:10D6D000C0E025F0F5F0D0E0F1A8A318B800EF7491
:10D6E00000C2D795F0F1A8740AF1A0740DF1A02240
:10D6F00075A72043CE0443CE0875D220438680759B
:10D70000D30175CE5D75CF5675CF5675CF565386FE
:10D710007F53CEFEE5CBF8E5CBF975A70022F1EB00
:10D72000B43AFBF1F375F000C0E025F0F5F0D0E07D
:10D73000C2D79401F9F1F3F58325F0F5F0F1F3F593
:10D740008225F0F5F0F1F3FA25F0F5F0C083E583DA
:10D75000F583F1F3F0A325F0F5F0D9F6F1F3F02518
:10D76000F0F5F0D083F1F325F0B4000122D20222CB
:10D77000C0A8C2AF75B7A575B7F1438F02438F013B
:10D78000F0538FFE538FFDD0A82222C0E0C0F0E4FA
:10D79000F5F0E493A36004F1A080F7D0F0D0E0228C
:10D7A0003099FDC299F59922C0E0C4F1BAF1A0D038
:10D7B000E0C0E0F1BAF1A0D0E022540FB40A00407A
:10D7C000022407243022C39430B40A00401BB41151
:10D7D0000040139407B41000400FB42A004007948F
:10D7E00020B410004003C374FFB3223098FDE599C4
:10D7F000C29822C0F0C000C298F1EBF500F1C6401B
:10D80000F6C4F5F0E500C29812D7EBF50012D7C6C2
:10D8100040F445F0F5F0E500E5F0D000D0F0220A44
:02D820000D00F9
:00000001FF
