:02000000415964
:04000300121295320E
:0400230012136A3218
:040043001212FC3267
:0400630012134F32F3
:04006B0012135532E5
:040073001212B03283
:04008B001212E0323B
:080093001212E432C00102F078
:0300FD008201007D
:1001000075FF80E4D5E0FDE4D5E0FD75EF062275CE
:1001100097DE7597AD53D9BF75D90375DC4675AEBB
:100120004675AF4675CC4675960022758840758930
:1001300021758E12758DE575C80475A7107594200C
:100140007595F07592207593F07591077598027505
:10015000D2F775D3AD75D3CE75D5AD75D4F775C05F
:100160000075A700227598522275A14075F8017597
:10017000A2032275BB1075BC0875B9BF75DF1F756A
:10018000E88375B25A75B3002275A730759B8575E3
:100190009F9A759D08439D4075990175A70022752A
:1001A000A730E59144C0F591903E3AA3E493F584DD
:1001B000903E3AE493F585E59344C0F593903E3C38
:1001C000A3E493F589903E3CE493F58A75A7002259
:1001D000E5D14480F5D12275A72075F1FE75F2674F
:1001E00075F3E775F4FC75A40E75A52275A6247544
:1001F0009C0475D4CB75D5DC75CC8775E18375E32C
:100200004075FC4075FB4075A7002275A90075B1CB
:100210001C43B1802275A71075E68243E64075F352
:100220000C75A70075A71075BB0275EE0275A700C7
:1002300075E40743880175A8102275A72043C60CF2
:1002400043D10C75917775B6C075B50C75AE577501
:10025000BFC075BE0C75A700227597DE7597AD758A
:100260008160C2B2D215C21500007800D8FE00002D
:01027000008D
:1002710075108075110E12010012010F12012B125F
:10028100017312018912019F1201D012016512013D
:10029100691201D712020B12021512023A75A71048
:1002A10075BC0075A700D286C209C208C20AC298ED
:1002B100C299C2A17583007582007583FB7582FDA9
:1002C100C2B2C204C216301604740180027402F56F
:1002D100417542007543007544007516FA75175F44
:1002E10075A710C29A8516A58517A48516A385172B
:1002F100A2D29A75A700C2077518FFC203C206C22F
:1003010089C212C21875A71075A700120C5A120CD7
:100311005A120C5AD28343B810D2AF7540A5754911
:100321003C75460FC20C75453175A710C29A75A769
:10033100007F127E347D5675F020EF840000751D1C
:1003410000751E00754A00903E3EE493F54EA3E40D
:1003510093F54F903E43E493F54D903E00E47406CF
:1003610093F51AA3740693F51BC2A13087FDD14200
:100371002009571208C02009511208FA20094B9090
:100381003E32E493FBA3E493FA12128930D708209A
:100391000938754202801E903E34E493FBA3E49336
:1003A100FA12128930D708200920754203800620ED
:1003B1000918754200300607121517C206800E751E
:0D03C100BB0A2087FD20090280A1020872FE
:1003CE0030089BC208E53C54F0B42009D19430109B
:1003DE008DF1238089E53DB490028047B480028080
:1003EE0002616CE53C540FF541754201121723531F
:1003FE00E6FD903DDEE493B4FF0343EF10120B3A9B
:10040E0020040BE53C540FF541754200616CD21788
:10041E00E53C540FF5417542083006FD121517C222
:10042E0006616CD2B2E53C540F4410F541754201A1
:10043E0075108075110E903E00740493F512A3741E
:10044E000493F513C2D7E513354DF5C3E512340009
:10045E00F5C4C2D7E513954DF5C5E5129400F5C662
:10046E00903E00740293F510A3740293F511120AD4
:10047E00F03087FD2087FD3087FD2087FD43E602A3
:10048E00B141300809E53DB40004C20880223012A3
:10049E000280323009EA2004E7780030060B12158C
:1004AE0017C2063008DA43EF10D8F080EC3006FDA4
:1004BE00C2A175A72053C6F375A700C2A5C2A2128A
:1004CE00151712169A7516FF7517FC75A710C29A96
:1004DE0075A7007800300635121517C20630082DA4
:1004EE00E53C54F0B41026E53DB480217516FA753E
:1004FE00175F75A710C29A8516A58517A48516A332
:10050E008517A2D29A75A70012172361FDC212C2D7
:10051E000CC204754A00903E00E4740693F51AA3CB
:10052E00740693F51BD286616CD8AA80A643EF1091
:10053E000080001208871208C01208FA75BB0A4321
:10054E00B20130062B121517C206300823E54154AE
:10055E00F0B41015E542A2E7B2D7928653427FE57A
:10056E0042754A00120A7F8056B40004C2A1C141EE
:10057E002087FD7800D8FE2087C8300442854E8C37
:10058E00854F8AD28C308DFDC28CC28DAB12AA13D0
:10059E00C2EB12107975BB1053B2FE20141020134B
:1005AE0018801C20EB02801712128930D70B30876F
:1005BE00FD20070B120A1F80063087FD1209BF307F
:1005CE00037153E6FDC042C041E53C540FF5417541
:1005DE004201120B3AD041D04220040EE53C540F9A
:1005EE00F54175420043EF10616C75106075110E88
:1005FE0075106075110E120AF03087FD2087FD30E0
:10060E0087FD2087FD3087FD2087FD3087FD208701
:10061E00FD3087FD2087FD3087FD2087FD3087FD6B
:10062E002087FD3087FD2087FD43E602754A00C214
:10063E0007C20322A2B392E0A21892E15403B400BF
:10064E00028022B40105D218D2B222B40205C21819
:10065E00C2B222B40301222230180A30B307A2B369
:10066E0092B292182230B202D17922851E82851D55
:10067E0083A385821E85831DE583B40308C2B275EC
:0F068E001D00751E0022120D5BE541540724204C
:10069D00F541754201754301754400D2B27547A00D
:1006AD00C20F3087FD2087FD3087FD12080EE54112
:1006BD0054072420F541754201751CA5300616120C
:1006CD001517C2063008F5C208E53C54F0B400EC2D
:1006DD0043EF1080E73087FD2087FD309209151C10
:1006ED00E51CB400D7801A120D74E541540724207F
:1006FD00F5417542027543AA754455751CFFD2101C
:10070D0022C210120B2CE5415407F54175420075BC
:10071D004300754400223087FD1208C01208FA30DC
:10072D000621121517C206300819E54154F0B40020
:10073D0012E542754200F1BFC20880748005120AAD
:10074D007F806D20920AF1C7751CFF7542028011E2
:10075D00151CE51CB4C00A754200F1C480527542E7
:10076D00012087FD7880D8FE0075BB0A758CF47565
:10077D008A80D28C308DFDC28CC28DAB12AA13C271
:10078D00EB12107975BB1053B2FE20141020131804
:10079D00801C20EB02A1CD12128930D70B3087FDC2
:1007AD0020070B120A1F80063087FD1209BFE123B7
:1007BD002222C2A1121517C2A122120D7400851298
:1007CD00F0782BE2B5F00A8513F0782CE2B5F00144
:1007DD0022F1E1222087FD3087FD782BE2F512789A
:1007ED002CE2F513C2D7E513354DF5C3E5123400F0
:0407FD00F5C4C2D7A6
:10080100E513954DF5C5E5129400F5C62275106006
:1008110075110E903E38E493F512A3E493F513C2DB
:10082100D7E513354DF5C3E5123400F5C4C2D7E55C
:1008310013954DF5C5E5129400F5C651F03087FDCD
:100841002087FD3087FD2087FD3087FD2087FD3023
:1008510087FD2087FD3087FD2087FD3087FD2087BC
:10086100FD3087FD2087FD3087FD2087FD43E602AF
:1008710022C2A17800D8FE3006F9121517C206303F
:1008810008F10043EF103087FDE54AB4E002800330
:10089100054A22758CFF758AC0D28C308DFDC28CC1
:1008A100C28DAB1AAA1B12125312128920D708D279
:1008B10007D518083134227518FFC207C2032290E8
:1008C1003E36E493FBA3E493FA12105CE5BEB40F49
:1008D10009E5BDB4FF04313B8011E5BEB40004312C
:1008E1003B800812128930D702314630150A900137
:1008F10004E5BEF0A3E5BDF022903E30E493FBA3F6
:10090100E493FA121038E5BEB40F09E5BDB4FF0453
:1009110031518011E5BEB4000431518008121289B1
:1009210030D702315C30150A900106E5BEF0A3E52F
:0F093100BDF022C204C2A1D20322D2097541E156
:1009400075421A017222D2097541E1754214017291
:1009500022D2097541E1754219017222D20975410D
:10096000E1754215017222D2097541E175421422E6
:1009700080FE80FE121704D281121079C2817B00A2
:100980007A8012128920D7EC31BF12170480E580DB
:10099000FE20A6FD12170412170431BF121704120D
:1009A0001704121704E5ECB411F0C2A1223087FD40
:1009B000E5ECB43003C2A12231BF12172380EE3020
:1009C000A5FD20A5FD75A710E5ECB43002804C53C1
:1009D000D8BF75DC0075AE0075AF0075CC0075F939
:1009E0000075FA00E5EB75EB00E5EC14F5ECE5F4C9
:1009F0008511F4E5F514F5F5E584758400E58514B5
:100A0000F585E5DD8511DDE5DE14F5DE75DC467581
:100A1000AE4675AF4675CC4643D84075A700223028
:100A2000A5FD20A5FD75A710E5ECB49A02804C53F6
:100A3000D8BF75DC0075AE0075AF0075CC0075F9D8
:100A40000075FA00E5EB75EB00E5EC04F5ECE5F478
:100A50008511F4E5F504F5F5E584758400E5850474
:100A6000F585E5DD8511DDE5DE04F5DE75DC467531
:100A7000AE4675AF4675CC4643D84075A700229068
:100A80003E00E542C2D7940B30D7402087FD308727
:100A9000FD903E00E54275F004A4F582E493F51262
:100AA000A3E493F513A3E493F51AA3E493F51BC20F
:100AB000D7E513354DF5C3E5123400F5C4C2D7E5CB
:100AC00013954DF5C5E5129400F5C6C2082275A729
:100AD0001053D8BF75EC0075F50075850075DE0004
:100AE00043D84075A70012170412170453D8BF2229
:100AF00075A72043C60C75A70075DC4675AE467514
:100B0000AF4675CC4675EB008510EC8511F4851069
:100B1000F57584008510858511DD8510DE759600DC
:100B20002087FD3087FD43D840D2A12220870530A1
:100B300087FD80032087FDC2A12275A730759B85A4
:100B4000759F9A759D08439D4075990175A700751D
:100B5000A72053C6F375A70075150371A6D20430FC
:100B6000060FC206121517E53C54F0B40003C20488
:100B70002278083087FD2087FD300605C206121551
:100B800017D8F0300417E515C2D775F00395F0209B
:100B9000D7037515031515E515B400BF220515E536
:100BA00015B440B72222903E40E493F510A3E4939D
:100BB000F51175A72043C60C75A70075DC4675AE08
:100BC0004675AF4675CC4675EB008510EC8511F483
:100BD0008510F57584008510858511DD8510DE751D
:100BE00096002087FD3087FD300605121517C206D6
:100BF00043D840D2A112172375140030A5FD20A5BB
:0D0C0000FD75A72053C6F375A70053D8BF9C
:100C0D0075DC0075AE0075AF0075CC0075F900751B
:100C1D00FA00D2A2C2A575A730539BCF439D207574
:100C2D00A70043E6201216F7C2A153E6DF903E421D
:100C3D00E493F5F0E514B40002800FB40102800ACC
:100C4D00C2D795F030D703D20422C204223087FDDB
:100C5D007800D8FE3087F62087FD7800D8FE2087F3
:100C6D00F622B15BE54154072420F541754300752B
:100C7D0044007547A0C20FC2AF209236D2B2B174F4
:100C8D00782CE2F543782DE2F544801EE543940976
:100C9D0020D70E75A73075844075850775A7008020
:100CAD000975A73075850675A7007547A01217231E
:100CBD0080C780C520081C300FBFE541540724E0D4
:100CCD00F5417542693008FDC208E54154F0004315
:100CDD00EF1022C208E54154F0B4009D0022754783
:100CED00A075A710D29A75A700C20F209248B174B3
:100CFD0075A7307826E2F5847825E2F58575A7008D
:100D0D00802B782CE2F543782DE2F544E5439409E8
:100D1D0020D70E75A73075844075850675A70080A0
:100D2D000C75A73075844075850675A7007547A0AD
:100D3D00121723D21022300FB2E541540724E0F5EB
:100D4D0041754269C210E54154F043EF10229010F5
:070D5D000E7824740093F6E8
:100D6400A308E8B42EF6B1D4B1E3121723F100229C
:100D7400D19B742775F060F1A4F1187810D8FE7433
:100D84002775F060F1A42278267924E2F70809E8AF
:100D9400B82BF878267929E2F70809E8B82BF8B1D6
:100DA400E3121723901018B1D4D1F3D135300DFBD1
:100DB400F17CF15FD135300DFB121723121723128A
:100DC400172312172312172312172380E70080FE1C
:100DD4007800900FEEE493F208A3E8B420F722C25F
:100DE400817427F1B174FFF1B1D281F118F125F1C9
:100DF40042740175F001F1A4740275F001F1A47458
:100E04000475F033F1A4740675F00FF1A474007541
:100E1400F00E75F00FF1A4F10BF118741C75F001CC
:100E2400F1A4741D75F006F1A4740575F000F1A425
:100E340022F100B40E028029B41E0D742775F01E31
:100E4400F1A4F118F10B8019B42E09742775F01E62
:100E5400F1A4800DB460028023742775F0FFF1A41F
:100E6400221216DDC283D1C2D2831216EAF1002007
:100E740092FDF100B460028003C20D22D19B74275D
:100E840075F060F1A4F1187810D8FE742775F0603D
:090E9400F1A4D20DD1EA22C281C1
:100E9D0078207461F1B174FFF5A330FFFDE5A3C2B5
:100EAD00FF74FFF5A330FFFDE5A3C2FFF208E8B420
:100EBD0040EFD28122F1C5C281780074A0F1B1E278
:100ECD00F5A3F1CC30FFFDC2FF08E8B41DF1E52E0E
:100EDD00F1B1E52FF1B1742BF1B1D281227820E27D
:100EED0008E8B440FA2278267906E2F30809E8B456
:100EFD002BF822C2817407F1B1F1B9D28122C281DE
:100F0D0074E1F1B174FFF1B9D28122C28174E2F1C1
:100F1D00B174FFF1B1D28122C2817430F1B1E524F7
:100F2D00F1B1E525F1B1E526F1B1E527F1B1E528FE
:100F3D00F1B1D28122C281742AF1B1E529F1B1E575
:100F4D002AF1B1E52BF1B1E52CF1B1E52DF1B1D2DD
:100F5D008122C2817410F1B1F1B9F524F1B9F525F1
:100F6D00F1B9F526F1B9F527F1B9F528D28122C2EB
:100F7D0081740AF1B1F1B9F529F1B9F52AF1B9F593
:100F8D002BF1B9F52CF1B9F52DD28122C28174095D
:100F9D00F1B1F1B9D28122C2814420F1B1E5F0F174
:090FAD00B1D28122F5A330FFFD51
:100FB600C2FF2274FFF5A330FFFDE5A3C2FF227531
:100FC6002EFF752FFF22C000C0E07808622FC3E510
:100FD6002E13F52EE52F13F52F5006632EA0632F43
:100FE60001D8EBD0E0D000221F0A00100000113615
:100FF6000002A20000000000000000000000000047
:101006000000000000B85ACDF7F7F7F7F7F7F7F743
:10101600F7F76820000F01BA11360002A262DB0062
:101026002F0000000B00000000010000000000BBC4
:10103600002BC0BBC0B275B25A75BB1120ECFDD2F5
:10104600EC30EDFDC2EDD2EC30EDFDC2EDA9BEA84F
:10105600BDD0B2D0BB22C0BB75BB0920ECFDD2EC23
:1010660030EDFDC2EDD2EC30EDFDC2EDA9BEA8BD5E
:10107600D0BB22C28320ECFDD2EC30EDFDC2ED7573
:101086008200754B007583003184EFF0A3EEF00506
:101096004B054B854B82E54BB420EAD2837F007E1D
:1010A600007D0078017903C2D7E2F5F0E325F0FD73
:1010B6001819E2F5F0E335F0FEEF3400FF78047915
:1010C60005C2D7E32DFDE23EFEEF3400FF08080916
:1010D60009E8B420ECC2D7EF13FFEE13FEED13FDC3
:1010E600C2D7EF13FFEE13FEED13FDC2D7EF13FFCA
:0A10F600EE13FEED13FDC2D7EF1359
:10110000FFEE13FEED13FDC2D7EF13FFEE13F9ED63
:1011100013F8301508900100E9F0A3E8F0513151BF
:1011200042223184C2D7EE8AF025F0FEEF8BF035F3
:10113000F0FFC2D7EF13FBEE13FA3184C2D7EE8A69
:10114000F025F0FEEF8BF035F0FFC2D7EF13FBEE8A
:1011500013FA80FE7F007E0078007900C2EBD2ECAB
:1011600030EDFDC2EDC2D7E5BE13F9FFE5BD13F8C2
:10117000FEC2EBD2EC30EDFDC2EDC2D7E5BE13F9F5
:10118000E5BD13F8C2EBD2EC30EDFDC2EDE5BEFFDC
:10119000E5BDFE22C2D7E5BE13FFE5BD13FEC2EBDF
:1011A000D2EC30EDFDC2EDC2D7E5BE13FDE5BD13B7
:1011B000FCC2D7EE2CFEEF2DFFC2D7EF13FFEE13CC
:1011C000FE22C2EBD2EC30EDFDC2EDC2D7E5BD2868
:0D11D000F8E5BE39F9C2D7E913F9E813F8C4
:1011DD00C2D7E913F9E813F8E9FFE8FEC2EBD2EC48
:1011ED0030EDFDC2EDA9BEA8BDC2EBD2EC30EDFDD8
:1011FD00C2EDC2D7E5BD28F8E5BE39F9C2D7E9136E
:10120D00F9E813F8C2D7E913F9E813F8C2D7EF29B3
:10121D00F9EE38F8C2D7E913F9E813F8C2D7E91394
:10122D00F9E813F8C2D7E895C3E995C430D703C2DE
:10123D001322D21322C2D7E895C5E995C620D7034C
:10124D00C21422D2142220ECFDD2EC30EDFDC2ED01
:10125D00D2EC30EDFDC2EDC2D7A9BEA8BD30150A46
:10126D00900102E5BEF0A3E5BDF022E5BE13F9E560
:10127D00BD13F8C2D7E913F9E813F822E88AF0C3D1
:10128D0095F0E98BF095F022C2A1C28953D8BF80A9
:10129D00FE12099AC28922C2891209BFF104F10412
:1012AD00C28922C00053917F300C251546A846B83F
:1012BD00001E75460C1545A845B8001400C2A1C204
:0312CD000CE541EC
:1012D000540F2400C204F541754300D212D00022FD
:1012E00043EF102275A71053C07B75A700C2AC75E1
:1012F000493CC20BC20A7540A5D2AC22C0E08013A3
:10130000C2A1D207C204C2A1D203751800D0E02244
:1013100020A625C2A175A72053C6F375A700C2A5B4
:10132000C2A2754216E541540F24E0C204D209F569
:101330004153E6FDC2D78014C2A1754212E5415463
:101340000F24E0C204D209F54153E6FDD0E02205A6
:1013500014539BCF2230870975AB10C28753BFCF80
:101360002275AB20D28753BFCF22C001C000C0E09E
:10137000C0D0C0F0E54860021548200A21E599B4C4
:101380003E1175A710D2C275A700D20A8540F0257C
:10139000F0F540D0F0D0D0D0E0D000D00122200B2A
:1013A00020E599A849F68540F025F0F5400549A8C3
:1013B00049B84002D20BD0F0D0D0D0E0D000D0015C
:1013C0002275493CC20BC20A75A710C2C285D2D48D
:1013D00085D3D575A700E5998540F0B5F00D801946
:1013E000D0F0D0D0D0E0D000D001227540A5D0F010
:1013F000D0D0D0E0D000D0012230160575F00180A9
:101400000375F002E53C540FB5F0E030030100D263
:0B141000067540A5E53C54F0B4D00B7D
:10141B00D0F0D0D0D0E0D000D00122B4404EC2AC3E
:10142B00C298D299E53DB40102A185B40004B185FF
:10143B008024B40204B185801DB40304B1858016E9
:10144B00B40404B185800F78007800D8FEE212D77F
:10145B00A808E8B409F73099FDC206C299C298D220
:10146B00ACD0F0D0D0D0E0D000D00122B45043C2E9
:10147B00ACC298D299E53D540F75F02025F0A8F039
:10148B00743E12D7A0E53C12D7A0E53D12D7A0E2DF
:10149B0012D7A008E8E212D7A074A512D7A03099F2
:1014AB00FDC299C298D2ACD0F0D0D0D0E0D000D051
:1014BB000122B46023E53F30E70AD20CE53FC2E7D7
:1014CB00F5458009C20C800543EF10B117D0F0D061
:1014DB00D0D0E0D000D0012230091EE53C54F0B44E
:1014EB00001FE53C540FF5417542007543007544F0
:1014FB0000B11775A70043EF10853C41853D42D2E3
:10150B0008D0F0D0D0D0E0D000D00122C0E0C2ACE7
:10151B00C29875F0A5D299743E12D7A025F0F5F0BC
:10152B00C0F0E54154F0F5F03016047401800274FC
:10153B000225F0D0F012D7A025F0F5F0E54212D736
:10154B00A025F0F5F0E54312D7A025F0F5F0E54125
:05155B0054F0B410097A
:10156000300C06E545D2E78002E54412D7A025F00D
:10157000F5F0E5F012D7A03099FDC206C299C298E5
:10158000D2ACD0E022E53DB40026743E12D7A0E5EF
:101590003C12D7A0E53D12D7A09000FDE49312D7EE
:1015A000A0A3E49312D7A0745512D7A03099FD22BE
:1015B000B40251743E12D7A0E53C12D7A0E53D120B
:1015C000D7A0900097E49312D7A0A3E49312D7A0DA
:1015D000A3E49312D7A0A3E49312D7A09000FDE454
:1015E0009312D7A0A3E49312D7A0A3E49312D7A099
:1015F0007583FF7582C090FFC07810E49312D7A066
:10160000A3D8F822B40105D11643EF10B403041295
:10161000D60022D16E22799012D7F3F709B9A0F83B
:10162000758130744F12D7A0744B12D7A0903E0032
:101630007800E493F2A308B880F8758300758200FF
:1016400012D695E582B480F8744312D7A074521272
:10165000D7A0744312D7A0743D12D7A012D6F0E8D9
:1016600012D7A8E912D7A83099FD43EF10229001B4
:1016700000E012D7A0A3E012D7A0A3E012D7A0A346
:10168000E012D7A0A3E012D7A0A3E012D7A0A3E056
:0316900012D7A0CE
:10169300A3E012D7A0A322903DDE740093B4FF020F
:1016A30080187800E493F2A308B804F812D770788E
:1016B30000E205E0F2903DDED1BE22C0A8C2AF43F6
:1016C3008F01538FFD780075B7A575B7F1E2F0A3CD
:1016D30008B804F3538FFED0A822758200758300E7
:1016E300A3E583B401FA22758200758300A3E58321
:1016F300B403FA22758200758300A3E583B40EFA5E
:10170300227582007583E4A3E583B4FFFA22781C73
:10171300D8FE22758200758300A3E583B43EFA22C6
:10172300758200758300A3E583B444FA22758200B1
:0A173300758300A3E583B43DFA229C
:023DDE0000697A
:103DE0009FC5B9AEEE0570D6CD72AF3921B533D2CD
:103DF0009D8E026E9A0C11CDE5FC537C01BD2E0CFC
:103E00000280601001000210020003E0040001C003
:103E1000050001A005800180060001800650018098
:103E20000700018007D001800A0001800000000027
:103E300001000B880D8009F0028005A00FFFF780BC
:103E4000700E0B0840A50000000069000000000093
:0B3E5000000000000000000000000067
:023FF0000EF8C9
:10D60000D18C3099FDC202F11E200213EAB410023F
:10D610008010E583B400F0E582B47FEB3002034371
:10D62000EF10903E00C082C083903FF0E493F5126B
:10D63000A3E493F513D083D082F170C0A8C2AF43A6
:10D640008F01538FFD780075B7A575B7F1E2F0A390
:10D6500008B880F3538FFED0A8C0A8C2AF438F0193
:10D66000538FFD903FF0E51275B7A575B7F1F0A3A4
:10D67000E51375B7A575B7F1F0538FFED0A8D1F0BB
:10D68000E8F1A8E9F1A83099FD43EF10742AF1A060
:10D69000743EF1A022743A75F000F1A07410C0E05D
:10D6A00025F0F5F0D0E0F1A8E583C0E025F0F5F035
:10D6B000D0E0F1A8E582C0E025F0F5F0D0E0F1A8D7
:10D6C0007400C0E025F0F5F0D0E0F1A87810E4E0B7
:10D6D000C0E025F0F5F0D0E0F1A8A318B800EF7491
:10D6E00000C2D795F0F1A8740AF1A0740DF1A02240
:10D6F00075A72043CE0443CE0875D220438680759B
:10D70000D30175CE5D75CF5675CF5675CF565386FE
:10D710007F53CEFEE5CBF8E5CBF975A70022F1EB00
:10D72000B43AFBF1F375F000C0E025F0F5F0D0E07D
:10D73000C2D79401F9F1F3F58325F0F5F0F1F3F593
:10D740008225F0F5F0F1F3FA25F0F5F0C083E583DA
:10D75000F583F1F3F0A325F0F5F0D9F6F1F3F02518
:10D76000F0F5F0D083F1F325F0B4000122D20222CB
:10D77000C0A8C2AF75B7A575B7F1438F02438F013B
:10D78000F0538FFE538FFDD0A82222C0E0C0F0E4FA
:10D79000F5F0E493A36004F1A080F7D0F0D0E0228C
:10D7A0003099FDC299F59922C0E0C4F1BAF1A0D038
:10D7B000E0C0E0F1BAF1A0D0E022540FB40A00407A
:10D7C000022407243022C39430B40A00401BB41151
:10D7D0000040139407B41000400FB42A004007948F
:10D7E00020B410004003C374FFB3223098FDE599C4
:10D7F000C29822C0F0C000C298F1EBF500F1C6401B
:10D80000F6C4F5F0E500C29812D7EBF50012D7C6C2
:10D8100040F445F0F5F0E500E5F0D000D0F0220A44
:02D820000D00F9
:00000001FF
