:02000000215786
:10010000758840758920758E08758D962275985270
:100110002275A14075F80175A2032275BB0E75BC4E
:100120000875DF1F75E88375B25A75B30022E5D1F3
:100130004480F5D12275A72075F1FE75F2DF75A414
:100140000E75A51175D48775D53E75E10775E34029
:1001500075A70075A90022C2947597DE7597AD75D5
:10016000FF8012010012010D12011112011B120178
:100170002E12013512015375A71075D59B75D4A0A9
:1001800075D39B75D2A0C2C775A700758150753015
:100190000075820075830074007400F0A3E583B4D9
:1001A00002F70000C292C293C2A07800B114D8FC3A
:1001B000D10E7400D1157400D1159006977824746F
:1001C0000093F6A308E8B42EF67800900677E4933F
:1001D000F208A3E8B420F7C2827427910B74FF9150
:1001E0000BD282913791449161740175F00191C3F2
:1001F000740275F00191C3740475F03391C37406F1
:1002000075F00F91C3740075F00E91C3912A913768
:10021000741C75F00191C3741D75F00691C37405CB
:1002200075F00091C391E375A710D2C230C7FDC22B
:10023000C730C7FDC2C730C7FDC2C730C7FDC2C780
:1002400030C7FDC2C730C7FDC2C730C7FDC2C73007
:09025000C7FDC2C730C7FDC2C7DB
:1002590075A700B11471403000F9C2A0B114B12ED4
:1002690030B42DE5BD75F0D0C2D795F0E5BE75F077
:100279000895F030D70451B58028D293C292D29410
:10028900900637E5BE93780BF2780C7400F2801271
:10029900D293B292D294780B740CF2780C74BAF2AD
:1002A90080007140B1147140D2A04127E5BD75F0BD
:1002B90040C2D795F0E5BE75F00795F020D71178C3
:1002C9000B7401F2780C7423F2D292C293C2942275
:1002D900E5BD75F030C2D795F0E5BE75F00695F02D
:1002E90020D70F780B7403F2780C7435F2B292D2DE
:1002F9009422E5BD75F020C2D795F0E5BE75F004EE
:1003090095F020D711780B7404F2780C7423F2B2AB
:1003190093C292D29422780B7405F2780C7469F224
:10032900D293D292D294229005E1B14B7820E2B1D6
:100339006808E8B840F822911FB40E02802DB41E57
:100349000D742775F01E91C39137912A801DB42E23
:1003590009742775F01E91C38011B4600280387446
:100369002775F0FF91C3912AC2002291F6C28191AB
:10037900E3D281B103911F2087FD911FB42E15741B
:01038900274C
:10038A0075F02E91C3912A742775F0FE91C3D2009D
:10039A00228003C2002291D0742775F06091C39124
:1003AA00377810D8FE742775F06091C3D200229175
:1003BA0044917E919BC2827427910B74FF910BD258
:1003CA0082911F91B880FE71D7F0A380FA780874E1
:1003DA00003090FDA29233D8042090FD222090FD97
:1003EA0080EF7582007583009101F0A3E583B40262
:1003FA00F70080FE00000030FFFDC2FFE5A3228067
:10040A00F6F5A330FFFDC2FF2274FFF5A330FFFD0E
:10041A00E5A3C2FF22C2827407910B9113D28222F2
:10042A00C28274E1910B74FF9113D28222C2827448
:10043A00E2910B74FF910BD28222C2827430910B2B
:10044A00E524910BE525910BE526910BE527910B08
:10045A00E528910BD28222C282742A910BE5299156
:10046A000BE52A910BE52B910BE52C910BE52D91D0
:10047A000BD28222C2827410910B9113F52491132C
:10048A00F5259113F5269113F5279113F528D282B4
:10049A0022C282740A910B9113F5299113F52A91BC
:0304AA0013F52B1C
:1004AD009113F52C9113F52DD28222C282740991EC
:1004BD000B9113D28222C2824420910BE5F0910B55
:1004CD00D28222C28278207461910B9113F208E8D6
:1004DD00B440F8D28222C282780074A0910BE291CE
:1004ED000B08E8B420F8D28222758200758300A330
:1004FD00E583B401FA22C2B2758200758300A3E5CB
:10050D0083B403FAD2B222758200758300A3E5830A
:10051D00B43EFA22758200758300A3E583B4F8FA20
:10052D0022C0BB75BB0BD2EC30EDFDC2EDD2EC3071
:10053D00EDFDC2EDD2EC30EDFDC2EDD0BB22C0E041
:10054D00C0F0E4F5F0E493A36004B16080F7D0F05F
:10055D00D0E0223099FDC299F59922C0E0C4B17A5C
:10056D00B160D0E0C0E0B17AB160D0E022540FB4F8
:10057D000A0040022407243022C39430B40A0040FC
:10058D001BB4110040139407B41000400FB42A009F
:10059D0040079420B410004003C374FFB322309879
:1005AD00FDE599C29822C0F0C000C298B1ABF5002C
:1005BD00B18640F6C4F5F0E500B160C298B1ABF577
:0305CD0000B186F4
:1005D00040F645F0F5F0E500B160E5F0D000D0F070
:1005E000220A0D000A0D54455354205245535055CC
:1005F000455354410A0D2020202020202056454CF0
:100600004F434944414420554152540A0D00752E30
:10061000FF752FFF22C000C0E07808622FC3E52ECF
:1006200013F52EE52F13F52F5006632EA0632F012F
:10063000D8EBD0E0D0002202020202020202020243
:10064000050708090A0B0C0202020202020202025A
:10065000020202020202020202020202020202027A
:10066000020202020202020202020202020202026A
:10067000020202020202021F0A00100000113600EC
:1006800002A20000000000000000000000000000C6
:1006900000000000B85ACDF7F7F7F7F7F7F7F7F7CC
:0106A000F762
:00000001FF
