:02000000218657
:03003B00D145327A
:03007300D1563231
:0300FD00C103013B
:1001000075D84053D9BF75D90475DA0075FC1F75D1
:10011000DD0043D94022758850758922758E087597
:100120008CF0758D967593AF7595AF2275985222A8
:1001300075A14075F80175A2032275BB0E75BC0848
:1001400075DF1F75E88375B25A75B30022E5D14497
:1001500080F5D12275A72075F1FE75F2DF75F3D712
:1001600075A40E75A51375D48775D52075CCA875A3
:10017000E10375E20175E34075A70075A9002275DA
:10018000E68075A8A022C2947597DE7597AD75FFBD
:1001900080C296C29712010012011612012C1201A0
:1001A0003012013A12014D12015412017B12017FEB
:1001B00075A71075D59B75D4A075D39B75D2A0C2B9
:1001C000C775A70075815075300075820075830072
:1001D00074007400F0A3E583B402F70000C292C279
:1001E00093C2A0D296C29743910475310075DA008C
:1001F000D11B7800D10ED8FCF12B7400F1327400C1
:10020000F1329007B47824740093F6A308E8B42E72
:10021000F67800900794E493F208A3E8B420F7C2BC
:10022000827427B10574FFB105D282B131B13EB1FC
:100230005B740175F001B1BD740275F001B1BD745C
:100240000475F033B1BD740675F00FB1BD7400755F
:0F025000F00EB1BDB124B131741C75F001B1BD18
:10025F00741D75F006B1BD740575F000B1BD780B56
:10026F00901800E493F2A308E493F2B1DD75A710A0
:10027F00D2C230C7FDC2C730C7FDC2C730C7FDC22B
:10028F00C730C7FDC2C730C7FDC2C730C7FDC2C721
:10029F0030C7FDC2C730C7FDC2C730C7FDC2C77563
:1002AF00A700D10E913A3000F9D2CA75DA469018EC
:1002BF0000780BE493F2780CA3E493F2F2913AD125
:1002CF000E913A75A710D2C230C7FDC2C730C7FD15
:1002DF00C2C730C7FDC2C730C7FDC2C730C7FDC2D6
:1002EF00C730C7FDC2C730C7FDC2C730C7FDC2C7C1
:1002FF0030C7FDC2C775A700D10E913A3000F9C2C1
:10030F00A0D10E7195D12820B411901802780BE46A
:10031F0093F2780CA3E493F2F2806120B31190185A
:10032F0004780BE493F2780CA3E493F2F2804D80FF
:10033F0017E5BD75F0D0C2D795F0E5BE75F00895FD
:10034F00F030D70471AF8034D294900754E5BE9348
:10035F00E5BEC2D713FAE5BD13FBEA2402FA780B08
:10036F00EAF2780CEB54F0F28012D293B292D2945C
:05037F00780B740CF284
:10038400780C74BAF28000913AD10E913AD2A0411D
:10039400D20075BB1AD2EC30EDFDC2EDD2EC30EDDB
:1003A400FDC2EDD2EC30EDFDC2ED22E5BD75F040AD
:1003B400C2D795F0E5BE75F00795F020D711780BFC
:1003C4007401F2780C7423F2D292C293C29422E59F
:1003D400BD75F030C2D795F0E5BE75F00695F020F6
:1003E400D70F780B7403F2780C7435F2B292D2946E
:1003F40022E5BD75F020C2D795F0E5BE75F00495F1
:10040400F020D711780B7404F2780C7423F2B293B1
:10041400C292D29422780B7405F2780C7469F2D2E9
:1004240093D292D294229006FED1687820E2D185AC
:1004340008E8B840F822B119B40E02802DB41E0D9C
:10044400742775F01EB1BDB131B124801DB42E09DD
:10045400742775F01EB1BD8011B460028038742712
:1004640075F0FFB1BDB124C20022B1F0C281B1DD8B
:10047400D281B1FDB1192087FDB119B42E157427AD
:1004840075F02EB1BDB124742775F0FEB1BDD20054
:10049400228003C20022B1CA742775F060B1BDB1D5
:1004A400317810D8FE742775F060B1BDD20022B146
:0104B4003E09
:1004B500B178B195C2827427B10574FFB105D282B6
:1004C500B119B1B280FE91D1F0A380FA7808740019
:1004D5003090FDA29233D8042090FD222090FD801B
:1004E500EF75820075830091FBF0A3E583B402F7F5
:1004F5000080FE00000030FFFDC2FFE5A32280F66C
:10050500F5A330FFFDC2FF2274FFF5A330FFFDE523
:10051500A3C2FF22C2827407B105B10DD28222C2E5
:100525008274E1B10574FFB10DD28222C28274E2F8
:10053500B10574FFB105D28222C2827430B105E5DE
:1005450024B105E525B105E526B105E527B105E5A4
:1005550028B105D28222C282742AB105E529B105E6
:10056500E52AB105E52BB105E52CB105E52DB1056C
:10057500D28222C2827410B105B10DF524B10DF5F8
:1005850025B10DF526B10DF527B10DF528D282223D
:10059500C282740AB105B10DF529B10DF52AB10D67
:1005A500F52BB10DF52CB10DF52DD28222C2827439
:1005B50009B105B10DD28222C2824420B105E5F010
:0F05C500B105D28222C28278207461B105B10DD6
:1005D400F208E8B440F8D28222C282780074A0B152
:1005E40005E2B10508E8B420F8D2822275820075CC
:1005F4008300A3E583B401FA22C2B2758200758335
:1006040000A3E583B403FAD2B22275820075830095
:10061400A3E583B43EFA22758200758300A3E583C3
:10062400B4F8FA22C0BB75BB0BD2EC30EDFDC2EDC1
:10063400D2EC30EDFDC2EDD2EC30EDFDC2EDD0BB1D
:1006440022C2CF0531E531B40A0775DA00753100ED
:10065400222253917F309606C29600D29722C297E7
:1006640000D29622C0E0C0F0E4F5F0E493A3600465
:10067400D17D80F7D0F0D0E0223099FDC299F59970
:1006840022C0E0C4D197D17DD0E0C0E0D197D17D24
:10069400D0E022540FB40A0040022407243022C3BD
:1006A4009430B40A00401BB4110040139407B410F2
:1006B40000400FB42A0040079420B410004003C344
:1006C40074FFB3223098FDE599C29822C0F0C000AF
:1006D400C298D1C8F500D1A340F6C4F5F0E500D125
:1006E4007DC298D1C8F500D1A340F645F0F5F0E5F8
:0506F40000D17DE5F0DE
:1006F900D000D0F0220A0D000A0D5445535420525F
:1007090045535055455354410A0D2020202020209F
:100719002056454C4F434944414420554152540ABF
:100729000D00752EFF752FFF22C000C0E07808620A
:100739002FC3E52E13F52EE52F13F52F5006632E43
:10074900A0632F01D8EBD0E0D00022010101020201
:10075900030405060708090A0B0C0D02020202022E
:100769000202020202020202020202020202020260
:100779000202020202020202020202020202020250
:1007890002020202020202020202021F0A00100011
:100799000011360002A20000000000000000000065
:1007A9000000000000000000B85ACDF7F7F7F7F78E
:0507B900F7F7F7F7F768
:10180000012302130456FFFFFFFFFFFFFFFFFFFF4F
:00000001FF
