:0200000021A33A
:03003B00F154324B
:03007300F1653202
:03008B00F17732D8
:0300FD00C104003B
:1001000075D84053D9BF75D90475DA0075FC1F4303
:10011000D94022758850758921758E0A758CF075C5
:100120008D967593AF7595AF75A71075980375A7E4
:1001300000227598522275A14075F80175A203221C
:1001400075BB1175BB1075BB0D75AF1175DF77757C
:10015000B94075E88375B25A75B21A75B30022E5D5
:10016000D1448044B0F5D12275A72075F1FE75F217
:10017000DF75F3D775A40E75A51375D48775D520D3
:1001800075CCB875E10375E20175E34075A700759C
:10019000A90075B11C43B1802275F30475E6807522
:1001A000A8A022C2947597DE7597ADC296C2971229
:1001B000010012011312013212013612015F120105
:1001C0006812018F12019943EF0275A71075D59B34
:1001D00075D4A075D39B75D2A0C2C790180AE493BA
:1001E000F5A5A3E493F5A475A700758150753000BB
:1001F00075820075830074007400F0A3E583B40277
:10020000F70000C292C293C2A0D296C29775310085
:1002100075DA00F111901808E493F5C4A3E493F59E
:10022000C375C50075C600C2027800F104D8FC127F
:10023000084B740012085274001208529008D478C7
:1002400024740093F6A308E8B42EF678009008B45E
:0D025000E493F208A3E8B420F791C9780BFD
:10025D00901800E493F2A308E493F2D1D375A7109C
:10026D00D2C230C7FDC2C730C7FDC2C730C7FDC23D
:10027D00C730C7FDC2C730C7FDC2C730C7FDC2C733
:10028D0030C7FDC2C730C7FDC2C730C7FDC2C77575
:10029D00A700F104B118F13BD2003000F5D2CA75B8
:1002AD00DA46901800780BE493F2780CA3E493F2FD
:1002BD00F2B118F104B11875A710D2C230C7FDC242
:1002CD00C730C7FDC2C730C7FDC2C730C7FDC2C7E3
:1002DD0030C7FDC2C730C7FDC2C730C7FDC2C7306A
:1002ED00C7FDC2C730C7FDC2C775A700F104B1185D
:1002FD00D2003000F7C2A0F104F13B30A43C439191
:10030D0004D29475A710C29A75A700901802780BA5
:10031D00E493F2780CA3E493F2F261C920B31BD2FB
:10032D009475A710C29A75A700901804780BE493E2
:10033D00F2780CA3E493F2F261C975A710A29A7535
:10034D00A70020D71A90180A75A710E493F5A5A356
:10035D00E493F5A475A70075A710D29A75A7009020
:10036D001800780BE493F2780CA3E493F2F2804C2E
:0D037D008017E5BD75F0D0C2D795F0E5BE44
:10038A0075F00895F030D704913E80333094309060
:10039A000874E5BE93E5BEC2D713FAE5BD13FBEABE
:1003AA002402FA780BEAF2780CEB54F0F28010D2BD
:1003BA0093B292780B740CF2780C74BAF28000B192
:1003CA0018F104B118D2A041C400C2EBD2EC30ED4E
:1003DA00FDC2EBC2EDD2EC30EDFDC2EBC2EDD2ECC8
:1003EA0030EDFDC2ED20EB01223002249018047892
:1003FA000BE493F2780CA3E493F2F2901808E493D6
:10040A00F5C4A3E493F5C375C50075C600C20222FC
:10041A00901802780BE493F2780CA3E493F2F2902A
:10042A001806E493F5C6A3E493F5C575C3FF75C42E
:10043A00FFD20222E5BD75F040C2D795F0E5BE7540
:10044A00F00795F020D711780B7401F2780C742319
:10045A00F2D292C293C29422E5BD75F030C2D7950A
:10046A00F0E5BE75F00695F020D70F780B7403F20D
:10047A00780C7435F2B292D29422E5BD75F020C29E
:10048A00D795F0E5BE75F00495F020D711780B7476
:04049A0004F2780CE4
:10049E007423F2B293C292D29422780B7405F2783E
:1004AE000C7469F2D293D292D2942290081EF184E7
:1004BE007820E2F1A108E8B840F822C2827427B190
:1004CE00FB74FFB1FBD282D127D134D151740175A7
:1004DE00F001D1B3740275F001D1B3740475F03329
:1004EE00D1B3740675F00FD1B3740075F00ED1B39D
:1004FE00D11AD127741C75F001D1B3741D75F00695
:10050E00D1B3740575F000D1B322D10FB40E0280B1
:10051E002DB41E0D742775F01ED1B3D127D11A80BC
:10052E001DB42E09742775F01ED1B38011B460026C
:10053E008050742775F0FFD1B3D11AC20022D1E6D4
:10054E00C281D1D3D281D1F3D10F758C00758A00BF
:10055E00D28C30870E308DFAC28DC28CD11AD12733
:10056E00C20022C28CD10FB42E15742775F02ED175
:10057E00B3D11A742775F0FED1B3D200228003C214
:10058E000022D1C0742775F060D1B3D1277810D86E
:10059E00FE742775F060D1B3D20022D134D16ED162
:1005AE008BC2827427B1FB74FFB1FBD282D10FD103
:1005BE00A880FEB1C7F0A380FA780874003090FDD1
:0505CE00A29233D804E5
:1005D3002090FD222090FD80EF758200758300B18D
:1005E300F1F0A3E583B402F70080FE00000030FFC2
:1005F300FDC2FFE5A32280F6F5A330FFFDC2FF2273
:1006030074FFF5A330FFFDE5A3C2FF22C282740786
:10061300B1FBD103D28222C28274E1B1FB74FFD158
:1006230003D28222C28274E2B1FB74FFB1FBD28295
:1006330022C2827430B1FBE524B1FBE525B1FBE5B1
:1006430026B1FBE527B1FBE528B1FBD28222C282AA
:10065300742AB1FBE529B1FBE52AB1FBE52BB1FB1C
:10066300E52CB1FBE52DB1FBD28222C2827410B11D
:10067300FBD103F524D103F525D103F526D103F5E9
:1006830027D103F528D28222C282740AB1FBD10397
:10069300F529D103F52AD103F52BD103F52CD10389
:1006A300F52DD28222C2827409B1FBD103D28222F8
:1006B300C2824420B1FBE5F0B1FBD28222C2827830
:1006C300207461B1FBD103F208E8B440F8D282226E
:1006D300C282780074A0B1FBE2B1FB08E8B420F851
:0C06E300D28222758200758300A3E5839B
:1006EF00B401FA22C2B2758200758300A3E583B408
:1006FF0003FAD2B222758200758300A3E583B43E5C
:10070F00FA22758200758300A3E583B4F8FA22C03C
:10071F00BB75BB0BD2EC30EDFDC2EDD2EC30EDFD75
:10072F00C2EDD2EC30EDFDC2EDD0BB2222D2EC30C7
:10073F00EDFDC2EDD2EC30EDFDC2EDC2EBD2EC30EF
:10074F00EDFDC2ED22C2CF0531E531B40A0775DAEE
:10075F0000753100222253917F309606C29600D247
:10076F009722C29700D29622C29475A710C29AC23E
:10077F009F75A70022C0E0C0F0E4F5F0E493A360FA
:10078F0004F19980F7D0F0D0E0223099FDC299F5AD
:10079F009922C0E0C4F1B3F199D0E0C0E0F1B3F118
:1007AF0099D0E022540FB40A0040022407243022CB
:1007BF00C39430B40A00401BB4110040139407B423
:1007CF001000400FB42A0040079420B410004003DB
:1007DF00C374FFB3223098FDE599C29822C0F0C0D0
:1007EF0000C298F1E4F500F1BF40F6C4F5F0E50062
:1007FF00120799C2981207E4F5001207BF40F4459B
:10080F00F0F5F0E500120799E5F0D000D0F0220ADC
:10081F000D000A0D5445535420524553505545531E
:10082F0054410A0D2020202020202056454C4F43B4
:0C083F004944414420554152540A0D0028
:10084B00752EFF752FFF22C000C0E07808622FC302
:10085B00E52E13F52EE52F13F52F5006632EA0630F
:10086B002F01D8EBD0E0D0002201010102020304DA
:10087B0005060708090A0B0C0D020202020202020E
:10088B00020202020202020202020202020202023D
:10089B00020202020202020202020202020202022D
:1008AB000202020202020202021F0A0010000011E1
:1008BB00360002A200000000000000000000000053
:1008CB00000000000000B85ACDF7F7F7F7F7F7F77D
:0308DB00F7F7F735
:101800000200034003100100013BA090FFFFFFFF17
:00000001FF
