:02000000219845
:03003B00F1363269
:03007300F1473220
:03008B00F15932F6
:0300FD00C104003B
:1001000075D84053D9BF75D90475DA0075FC1F75D1
:10011000DD0043D94022758850758921758E0A7596
:100120008CF0758D967593AF7595AF75A710759812
:100130000375A700227598522275A14075F80175C4
:10014000A2032275BB0E75BC0875DF1F75E88375A9
:10015000B25A75B30022E5D14480F5D12275A720AB
:1001600075F1FE75F2DF75F3D775A40E75A51375DD
:10017000D48775D52075CCA875E10375E20175E3C8
:100180004075A70075A90075B11C43B1802275F3B5
:100190000475E68075A8A022C2947597DE7597ADA8
:1001A00075FF80C296C29712010012011612013526
:1001B00012013912014312015612015D120184121B
:1001C000018E75FF8043EF0275A71075D59B75D41E
:1001D000A075D39B75D2A0C2C790180AE493F5A569
:1001E000A3E493F5A475A70075815075300075825E
:1001F0000075830074007400F0A3E583B402F70077
:1002000000C292C293C2A0D296C2974391047531A4
:100210000075DA00F10C901808E493F5C4A3E49398
:10022000F5C375C50075C600C2027800D1FFD8FCC1
:10023000120829740012083074001208309008B2B5
:100240007824740093F6A308E8B42EF6780090089A
:0E02500092E493F208A3E8B420F791C4780B6F
:10025E00901800E493F2A308E493F2D1CE75A710A0
:10026E00D2C230C7FDC2C730C7FDC2C730C7FDC23C
:10027E00C730C7FDC2C730C7FDC2C730C7FDC2C732
:10028E0030C7FDC2C730C7FDC2C730C7FDC2C77574
:10029E00A700D1FFB1133000F9D2CA75DA46901813
:1002AE0000780BE493F2780CA3E493F2F2B113D13D
:1002BE00FFB11375A710D2C230C7FDC2C730C7FD3C
:1002CE00C2C730C7FDC2C730C7FDC2C730C7FDC2E7
:1002DE00C730C7FDC2C730C7FDC2C730C7FDC2C7D2
:1002EE0030C7FDC2C775A700D1FFB1133000F9C2E8
:1002FE00A0D1FFF11920B41BD29475A710C29A7524
:10030E00A700901802780BE493F2780CA3E493F212
:10031E00F261C120B31BD29475A710C29A75A700C3
:10032E00901804780BE493F2780CA3E493F2F26144
:10033E00C175A710A29A75A70020D71A90180A7532
:10034E00A710E493F5A5A3E493F5A475A70075A7EC
:10035E0010D29A75A700901800780BE493F2780CDF
:10036E00A3E493F2F2804C8017E5BD75F0D0C2D7AE
:0E037E0095F0E5BE75F00895F030D704913982
:10038C008033309430900852E5BE93E5BEC2D7134B
:10039C00FAE5BD13FBEA2402FA780BEAF2780CEBCF
:1003AC0054F0F28010D293B292780B740CF2780C59
:1003BC0074BAF28000B113D1FFB113D2A041C100C5
:1003CC0075BB12C2EBD2EC30EDFDC2EBC2EDD2EC40
:1003DC0030EDFDC2EBC2EDD2EC30EDFDC2ED20EB09
:1003EC000122300224901804780BE493F2780CA3C9
:1003FC00E493F2F2901808E493F5C4A3E493F5C3E4
:10040C0075C50075C600C20222901802780BE493E1
:10041C00F2780CA3E493F2F2901806E493F5C6A3D9
:10042C00E493F5C575C3FF75C4FFD20222E5BD7513
:10043C00F040C2D795F0E5BE75F00795F020D711C6
:10044C00780B7401F2780C7423F2D292C293C2949A
:10045C0022E5BD75F030C2D795F0E5BE75F0069576
:10046C00F020D70F780B7403F2780C7435F2B2923B
:10047C00D29422E5BD75F020C2D795F0E5BE75F09B
:10048C000495F020D711780B7404F2780C7423F2D5
:02049C00B29319
:10049E00C292D29422780B7405F2780C7469F2D25F
:1004AE0093D292D294229007FCF1667820E2F183E7
:1004BE0008E8B840F822C2827427B1F674FFB1F68C
:1004CE00D282D122D12FD14C740175F001D1AE74EC
:1004DE000275F001D1AE740475F033D1AE740675A9
:1004EE00F00FD1AE740075F00ED1AED115D12274CD
:1004FE001C75F001D1AE741D75F006D1AE74057584
:10050E00F000D1AE22D10AB40E02802DB41E0D74AD
:10051E002775F01ED1AED122D115801DB42E0974CF
:10052E002775F01ED1AE8011B4600280507427750D
:10053E00F0FFD1AED115C20022D1E1C281D1CED20F
:10054E0081D1EED10A758C00758A00D28C30870E5F
:10055E00308DFAC28DC28CD115D122C20022C28C2E
:10056E00D10AB42E15742775F02ED1AED11574277D
:10057E0075F0FED1AED200228003C20022D1BB7430
:10058E002775F060D1AED1227810D8FE742775F0A1
:10059E0060D1AED20022D12FD169D186C28274270A
:1005AE00B1F674FFB1F6D282D10AD1A380FEB1C2E8
:1005BE00F0A380FA780874003090FDA29233D8042C
:0705CE002090FD222090FDAA
:1005D50080EF758200758300B1ECF0A3E583B4026A
:1005E500F70080FE00000030FFFDC2FFE5A322807A
:1005F500F6F5A330FFFDC2FF2274FFF5A330FFFD22
:10060500E5A3C2FF22C2827407B1F6B1FED28222EF
:10061500C28274E1B1F674FFB1FED28222C2827445
:10062500E2B1F674FFB1F6D28222C2827430B1F61D
:10063500E524B1F6E525B1F6E526B1F6E527B1F6EF
:10064500E528B1F6D28222C282742AB1F6E529B133
:10065500F6E52AB1F6E52BB1F6E52CB1F6E52DB1B7
:10066500F6D28222C2827410B1F6B1FEF524B1FE33
:10067500F525B1FEF526B1FEF527B1FEF528D282A6
:1006850022C282740AB1F6B1FEF529B1FEF52AB18E
:10069500FEF52BB1FEF52CB1FEF52DD28222C282DC
:1006A5007409B1F6B1FED28222C2824420B1F6E5C8
:1006B500F0B1F6D28222C28278207461B1F6B1FE21
:1006C500F208E8B440F8D28222C282780074A0B160
:1006D500F6E2B1F608E8B420F8D2822275820075F8
:0B06E5008300A3E583B401FA22C2B237
:1006F000758200758300A3E583B403FAD2B2227534
:100700008200758300A3E583B43EFA2275820075EA
:100710008300A3E583B4F8FA22C0BB75BB0BD2EC0F
:1007200030EDFDC2EDD2EC30EDFDC2EDD2EC30ED9E
:10073000FDC2EDD0BB22C2CF0531E531B40A077549
:10074000DA00753100222253917F309606C296005E
:10075000D29722C29700D29622C29475A710C29A4D
:10076000C29F75A70022C0E0C0F0E4F5F0E493A3B7
:100770006004F17B80F7D0F0D0E0223099FDC2997F
:10078000F59922C0E0C4F195F17BD0E0C0E0F1958D
:10079000F17BD0E022540FB40A0040022407243039
:1007A00022C39430B40A00401BB4110040139407D4
:1007B000B41000400FB42A0040079420B410004049
:1007C00003C374FFB3223098FDE599C29822C0F0AC
:1007D000C000C298F1C6F500F1A140F6C4F5F0E5FD
:1007E00000F17BC298F1C6F500F1A140F645F0F5A5
:1007F000F0E500F17BE5F0D000D0F0220A0D000A10
:100800000D54455354205245535055455354410AB5
:100810000D2020202020202056454C4F43494441A4
:100820004420554152540A0D00752EFF752FFF22AA
:10083000C000C0E07808622FC3E52E13F52EE52F27
:0508400013F52F500626
:10084500632EA0632F01D8EBD0E0D0002201010177
:100855000202030405060708090A0B0C0D02020231
:100865000202020202020202020202020202020263
:100875000202020202020202020202020202020253
:10088500020202020202020202020202021F0A0020
:1008950010000011360002A2000000000000000058
:1008A50000000000000000000000B85ACDF7F7F77F
:0708B500F7F7F7F7F7F7F77B
:101800000100021304100100013BC090FFFFFFFF25
:00000001FF
