:02000000217D60
:03003B00D11232AD
:03007300D1233264
:0300FD00C103013B
:1001000075D84053D9BF75D90475DA0075FC1F75D1
:10011000DD0043D94022758850758922758E087597
:100120008CF0758D967593AF7595AF2275985222A8
:1001300075A14075F80175A2032275BB0E75BC0848
:1001400075DF1F75E88375B25A75B30022E5D14497
:1001500080F5D12275A72075F1FE75F2DF75A40E2A
:1001600075A51375D48775E10375E20175E34075D4
:10017000A70075A9002275E68075A8A022C2947513
:1001800097DE7597AD75FF80C296C2971201001277
:10019000011612012C12013012013A12014D120106
:1001A0005412017212017675A71075D59B75D4A0F3
:1001B00075D39B75D2A0C2C775A7007581507530E5
:1001C0000075820075830074007400F0A3E583B4A9
:1001D00002F70000C292C293C2A0D296C297439186
:1001E0000475310075DA00B1E87800B1DBD8FCD1D4
:1001F000F87400D1FF7400D1FF9007817824740057
:1002000093F6A308E8B42EF67800900761E493F221
:1002100008A3E8B420F7C282742791D274FF91D268
:10022000D28291FEB10BB128740175F001B18A74CC
:100230000275F001B18A740475F033B18A740675E1
:10024000F00FB18A740075F00EB18A91F191FE74CD
:0D0250001C75F001B18A741D75F006B18AAD
:10025D00740575F000B18A780B90078BE493F2A3C7
:10026D0008E493F2B1AA75A710D2C230C7FDC2C778
:10027D0030C7FDC2C730C7FDC2C730C7FDC2C730CA
:10028D00C7FDC2C730C7FDC2C730C7FDC2C730C723
:10029D00FDC2C730C7FDC2C775A700B1DB910730DE
:1002AD0000F9D2CA75DA4690078B780BE493F27891
:1002BD000CA3E493F2F29107B1DB910775A710D26D
:1002CD00C230C7FDC2C730C7FDC2C730C7FDC2C7E8
:1002DD0030C7FDC2C730C7FDC2C730C7FDC2C7306A
:1002ED00C7FDC2C730C7FDC2C730C7FDC2C775A79E
:1002FD0000B1DB91073000F9C2A0B1DBB1F520B43C
:10030D001190078D780BE493F2780CA3E493F2F23D
:10031D00805320B31190078F780BE493F2780CA3E0
:10032D00E493F2F2803F8017E5BD75F0D0C2D7950A
:10033D00F0E5BE75F00895F030D704717C8026D2BB
:10034D0094900721E5BE93780BF2780CE5BD54C06F
:10035D00F28012D293B292D294780B740CF2780C84
:10036D0074BAF280009107B1DB9107D2A041C9E5C3
:0D037D00BD75F040C2D795F0E5BE75F007E4
:10038A0095F020D711780B7401F2780C7423F2D20D
:10039A0092C293C29422E5BD75F030C2D795F0E5BA
:1003AA00BE75F00695F020D70F780B7403F2780C1F
:1003BA007435F2B292D29422E5BD75F020C2D79577
:1003CA00F0E5BE75F00495F020D711780B7404F2AD
:1003DA00780C7423F2B293C292D29422780B7405E9
:1003EA00F2780C7469F2D293D292D294229006CB0C
:1003FA00D1357820E2D15208E8B840F82291E6B423
:10040A000E02802DB41E0D742775F01EB18A91FE5E
:10041A0091F1801DB42E09742775F01EB18A8011DE
:10042A00B460028038742775F0FFB18A91F1C20076
:10043A0022B1BDC281B1AAD281B1CA91E62087FD9B
:10044A0091E6B42E15742775F02EB18A91F17427AE
:10045A0075F0FEB18AD200228003C20022B19774DD
:10046A002775F060B18A91FE7810D8FE742775F06E
:10047A0060B18AD20022B10BB145B162C28274273F
:10048A0091D274FF91D2D28291E6B17F80FE919E81
:10049A00F0A380FA780874003090FDA29233D80451
:0F04AA002090FD222090FD80EF75820075830069
:1004B90091C8F0A3E583B402F70080FE0000003084
:1004C900FFFDC2FFE5A32280F6F5A330FFFDC2FFC1
:1004D9002274FFF5A330FFFDE5A3C2FF22C2827497
:1004E9000791D291DAD28222C28274E191D274FF49
:1004F90091DAD28222C28274E291D274FF91D2D26D
:100509008222C282743091D2E52491D2E52591D21A
:10051900E52691D2E52791D2E52891D2D28222C24D
:1005290082742A91D2E52991D2E52A91D2E52B91BB
:10053900D2E52C91D2E52D91D2D28222C2827410B9
:1005490091D291DAF52491DAF52591DAF52691DA45
:10055900F52791DAF528D28222C282740A91D291C2
:10056900DAF52991DAF52A91DAF52B91DAF52C9158
:10057900DAF52DD28222C282740991D291DAD2821D
:1005890022C282442091D2E5F091D2D28222C28243
:100599007820746191D291DAF208E8B440F8D282F5
:1005A90022C282780074A091D2E291D208E8B420E4
:1005B900F8D28222758200758300A3E583B401FA1B
:0A05C90022C2B2758200758300A300
:1005D300E583B403FAD2B222758200758300A3E5E2
:1005E30083B43EFA22758200758300A3E583B4F8D1
:1005F300FA22C0BB75BB0BD2EC30EDFDC2EDD2ECE1
:1006030030EDFDC2EDD2EC30EDFDC2EDD0BB22C228
:10061300CF0531E531B40A0775DA007531002222BE
:1006230053917F309606C29600D29722C29700D28A
:100633009622C0E0C0F0E4F5F0E493A36004D14A4D
:1006430080F7D0F0D0E0223099FDC299F59922C00D
:10065300E0C4D164D14AD0E0C0E0D164D14AD0E053
:1006630022540FB40A0040022407243022C39430DA
:10067300B40A00401BB4110040139407B4100040A7
:100683000FB42A0040079420B410004003C374FF42
:10069300B3223098FDE599C29822C0F0C000C298F9
:1006A300D195F500D17040F6C4F5F0E500D14AC20A
:1006B30098D195F500D17040F645F0F5F0E500D1FD
:1006C3004AE5F0D000D0F0220A0D000A0D5445533C
:1006D30054205245535055455354410A0D20202070
:1006E3002020202056454C4F434944414420554146
:1006F30052540A0D00752EFF752FFF22C000C0E073
:100703007808622FC3E52E13F52EE52F13F52F502E
:1007130006632EA0632F01D8EBD0E0D000220101A5
:10072300010202030405060708090A0B0C0D020265
:100733000202020202020202020202020202020296
:100743000202020202020202020202020202020286
:1007530002020202020202020202020202021F0A51
:100763000010000011360002A2000000000000008B
:100773000000000000000000000000B85ACDF7F7A9
:0E078300F7F7F7F7F7F7F7F70123021304561D
:00000001FF
