:02000000217D60
:03003B00D120329F
:03007300D1313256
:0300FD00C103013B
:1001000075D84053D9BF75D90475DA0075FC1F75D1
:10011000DD0043D94022758850758922758E087597
:100120008CF0758D967593AF7595AF2275985222A8
:1001300075A14075F80175A2032275BB0E75BC0848
:1001400075DF1F75E88375B25A75B30022E5D14497
:1001500080F5D12275A72075F1FE75F2DF75A40E2A
:1001600075A51375D48775E10375E20175E34075D4
:10017000A70075A9002275E68075A8A022C2947513
:1001800097DE7597AD75FF80C296C2971201001277
:10019000011612012C12013012013A12014D120106
:1001A0005412017212017675A71075D59B75D4A0F3
:1001B00075D39B75D2A0C2C775A7007581507530E5
:1001C0000075820075830074007400F0A3E583B4A9
:1001D00002F70000C292C293C2A0D296C297439186
:1001E0000475310075DA00B1F67800B1E9D8FCF198
:1001F000067400F10D7400F10D90078F78247400DF
:1002000093F6A308E8B42EF6780090076FE493F213
:1002100008A3E8B420F7C282742791E074FF91E04C
:10022000D282B10CB119B136740175F001B1987474
:100230000275F001B198740475F033B198740675C5
:10024000F00FB198740075F00EB19891FFB10C7475
:0D0250001C75F001B198741D75F006B19891
:10025D00740575F000B198780B900799E493F2A3AB
:10026D0008E493F2B1B875A710D2C230C7FDC2C76A
:10027D0030C7FDC2C730C7FDC2C730C7FDC2C730CA
:10028D00C7FDC2C730C7FDC2C730C7FDC2C730C723
:10029D00FDC2C730C7FDC2C775A700B1E9911530C2
:1002AD0000F9D2CA75DA46900799780BE493F27883
:1002BD000CA3E493F2F29115B1E9911575A710D243
:1002CD00C230C7FDC2C730C7FDC2C730C7FDC2C7E8
:1002DD0030C7FDC2C730C7FDC2C730C7FDC2C7306A
:1002ED00C7FDC2C730C7FDC2C730C7FDC2C775A79E
:1002FD0000B1E991153000F9C2A0B1E9D10320B4E4
:10030D001190079B780BE493F2780CA3E493F2F22F
:10031D00806120B31190079D780BE493F2780CA3C4
:10032D00E493F2F2804D8017E5BD75F0D0C2D795FC
:10033D00F0E5BE75F00895F030D704718A8034D29F
:10034D009490072FE5BE93E5BEC2D713FAE5BD1312
:10035D00FBEA2402FA780BEAF2780CEB54F0F28007
:10036D0012D293B292D294780B740CF2780C74BAB8
:03037D00F280000B
:100380009115B1E99115D2A041C9E5BD75F040C202
:10039000D795F0E5BE75F00795F020D711780B746E
:1003A00001F2780C7423F2D292C293C29422E5BD7A
:1003B00075F030C2D795F0E5BE75F00695F020D700
:1003C0000F780B7403F2780C7435F2B292D2942247
:1003D000E5BD75F020C2D795F0E5BE75F00495F047
:1003E00020D711780B7404F2780C7423F2B293C204
:1003F00092D29422780B7405F2780C7469F2D2933D
:10040000D292D294229006D9D1437820E2D16008CA
:10041000E8B840F82291F4B40E02802DB41E0D7499
:100420002775F01EB198B10C91FF801DB42E097490
:100430002775F01EB1988011B4600280387427755A
:10044000F0FFB19891FFC20022B1CBC281B1B8D206
:1004500081B1D891F42087FD91F4B42E15742775DD
:10046000F02EB19891FF742775F0FEB198D200225A
:100470008003C20022B1A5742775F060B198B10C59
:100480007810D8FE742775F060B198D20022B119A7
:10049000B153B170C282742791E074FF91E0D282AF
:0E04A00091F4B18D80FE91ACF0A380FA780843
:1004AE0074003090FDA29233D8042090FD2220904B
:1004BE00FD80EF75820075830091D6F0A3E583B4BD
:1004CE0002F70080FE00000030FFFDC2FFE5A32210
:1004DE0080F6F5A330FFFDC2FF2274FFF5A330FFB7
:1004EE00FDE5A3C2FF22C282740791E091E8D28299
:1004FE0022C28274E191E074FF91E8D28222C2821C
:10050E0074E291E074FF91E0D28222C28274309143
:10051E00E0E52491E0E52591E0E52691E0E52791DF
:10052E00E0E52891E0D28222C282742A91E0E52988
:10053E0091E0E52A91E0E52B91E0E52C91E0E52DA7
:10054E0091E0D28222C282741091E091E8F524915A
:10055E00E8F52591E8F52691E8F52791E8F528D2FA
:10056E008222C282740A91E091E8F52991E8F52A77
:10057E0091E8F52B91E8F52C91E8F52DD28222C267
:10058E0082740991E091E8D28222C282442091E0E5
:10059E00E5F091E0D28222C2827820746191E091DE
:1005AE00E8F208E8B440F8D28222C282780074A041
:0C05BE0091E0E291E008E8B420F8D2825D
:1005CA0022758200758300A3E583B401FA22C2B2C0
:1005DA00758200758300A3E583B403FAD2B222754B
:1005EA008200758300A3E583B43EFA227582007502
:1005FA008300A3E583B4F8FA22C0BB75BB0BD2EC27
:10060A0030EDFDC2EDD2EC30EDFDC2EDD2EC30EDB5
:10061A00FDC2EDD0BB22C2CF0531E531B40A077560
:10062A00DA00753100222253917F309606C2960075
:10063A00D29722C29700D29622C0E0C0F0E4F5F029
:10064A00E493A36004D15880F7D0F0D0E022309927
:10065A00FDC299F59922C0E0C4D172D158D0E0C048
:10066A00E0D172D158D0E022540FB40A00400224DB
:10067A0007243022C39430B40A00401BB41100404E
:10068A00139407B41000400FB42A0040079420B412
:10069A0010004003C374FFB3223098FDE599C29855
:1006AA0022C0F0C000C298D1A3F500D17E40F6C4A2
:1006BA00F5F0E500D158C298D1A3F500D17E40F6F5
:1006CA0045F0F5F0E500D158E5F0D000D0F0220A67
:1006DA000D000A0D54455354205245535055455365
:1006EA0054410A0D2020202020202056454C4F43FB
:1006FA004944414420554152540A0D00752EFF7554
:10070A002FFF22C000C0E07808622FC3E52E13F540
:04071A002EE52F1386
:10071E00F52F5006632EA0632F01D8EBD0E0D0004A
:10072E00220101010202030405060708090A0B0C47
:10073E000D02020202020202020202020202020280
:10074E00020202020202020202020202020202027B
:10075E00020202020202020202020202020202026B
:10076E00021F0A0010000011360002A20000000055
:10077E000000000000000000000000000000B85A59
:10078E00CDF7F7F7F7F7F7F7F7F7F70123021304AB
:01079E005604
:00000001FF
