:0300000002A074E7
:04001300121820326D
:04002B0012185D3218
:06003B00121C3AC2C032A3
:04004300120F5E3208
:0400730012186D32C0
:04007B00120FF3323B
:04008B001218833292
:040093001218DC3231
:0300FD00430210AB
:1001000075D84053D9BF75D90475D90075DA4675CD
:10011000FC0A75FCD52275885043880475892275C0
:100120008E04758CE7758DCB75CAD175CBFE75CEF7
:100130004275CF2275910475924F75939C227598E4
:100140005275A72075C85275944075D8C175D8C727
:100150007596FD75958275A7002275C18075C18859
:100160002275A17075F80175A2082275A72075A4E3
:100170004075A56475A63E75D4CF75D50775E105A4
:1001800075E20175E34175EE0175ED0175A7002279
:1001900075A91075B11C43B1802275E60175E68121
:1001A00075A71075BB0175A70075E47175A8A42229
:1001B0007597DE7597ADC286120100120116120105
:1001C0003E12015A12016112016B12019012019A42
:1001D00075A71075F30C75ED0875980375A53C753A
:1001E000A4AF75A33C75A2AF75D33675D2807512D6
:1001F0000FC2C775A70075CF9B75CEA075CB9B7539
:10020000CAA0C2CF75B82075815875DA3053B0E0F6
:10021000C295D2B4D2B3D2B2D2B1D2B0D2A4C217A4
:10022000C21890C000E493A2E79216C206C2D7C2D9
:100230000DC212751000C20ED2B0C2131210897511
:10024000A71043EE0143BB0143F22443B80075A756
:100250000012A5E412161175316075320075330075
:1002600012A9047800D8FEC20FC20BD2B3D2B2C218
:100270001475A710C2C275A700740512A50412A5B3
:0A028000E4740512A504C213800007
:10028A0075A720A2C875A70030D70D75A720E592DB
:10029A0075A700B4F502802C20B101002013088054
:1002AA00DF3012DC02A6EDC213E54BB40107E54AC2
:1002BA00B40002800FE54BB400C6E54AB410C1127F
:1002CA000A4480BCD2CA754C78754D0CC21553E6E7
:1002DA00FD74F512A50412A5E474F512A50412160C
:1002EA001112170D12201090AD4F7516C0D286C28A
:1002FA00B312A5BFB2B312A5BFB2B312A5BFB2B3B0
:10030A00751B01751C00120E407800D8FEB2B37539
:10031A001B02751C00120E407800D8FEB2B3751B82
:10032A0003751C00120E40B2B31224787800D8FE6E
:10033A00B2B31224787800D8FEB2B31224787800C7
:10034A00D8FED2B3C20B75A710D2C2D29A75A70033
:10035A001222EC78C7E275A710D2C275A700C20BA9
:10036A00121B3B1222EC78C7E212242FE516122543
:10037A00E4C2B4C21300003013FDC213E54BB4004B
:10038A0027E54AB40222200F0AE524B401E9E52848
:10039A00B402E4120DDE85241B85251C85261D85E5
:1003AA00271E91AB80D1813C200F3CE54BB400194C
:1003BA00E54AB40114121611751B0112209AE53888
:1003CA0054F0B4E00280B08069E54BB44019E54AC4
:1003DA00B40014121611751B0212209AE53854F053
:1003EA00B4E0028092804BE54BB40107E54AB400C1
:0303FA0002800777
:1003FD00120980618161811216113013FDC213E55E
:10040D004BB40129E54AB40024121611751B017570
:10041D001C00120E40751B02751C00120E40751B40
:10042D0003751C00120E4012A5BF43EF106186E547
:10043D001B54F0B4E00812AA02121B576181B400DC
:10044D0042121B1CE54BB4040CE54AB4000712160E
:10045D001191AB6181E54BB40210E54AB4000B126A
:10046D001611120D1112ACF3618112ACF3618612EB
:10047D0023D812239EC2A1C2A2C2A312236412AC1E
:10048D002D6186E51B54F0B4100491AB6181B4204D
:10049D000B1223BB12239E120D11618180FE1220BF
:1004AD009AE51B54F0B400028002C14775A710C233
:1004BD00C275A70012227012242FE51B540FC2D74C
:1004CD00940175F0C025F0F5F0744012179FE51BEF
:1004DD00540F4410F53175328012A904E51B540FE9
:1004ED00B40176300F73D164E51CB40802801B751E
:1004FD001B0275311275328012A904D164E51CB44A
:10050D000804D1F0C13BF111C13B751B02753112CD
:10051D0075328012A904D164E51CB40838751B022C
:10052D0075310275329012A90412A5BF751B127593
:10053D00311275328112A904751B017531017532A5
:10054D009012A90412A5BF751B1175311175328159
:10055D0012A904C13BD1CFC13BD164E51CB400024B
:10056D006181B4010EE51B540FF51B751C00120EB5
:01057D00403D
:10057E006181B40811E531540FF53175329012A92D
:10058E000412209AC13B618100753F4012A5BF3015
:10059E00130100E51B540775F0D025F0F53112A8B4
:1005AE00F685381B85391C853A1D853B1EE51B5487
:1005BE00F0B40055E51CB4000D12209AC21312229D
:1005CE00CB12242F6181E51CB40111153FE53FB418
:1005DE0000BAC2131222CB12242F6181E51CB4087B
:1005EE0028300F0F153FE53FB400A1C2131222CBE6
:1005FE0012242FE531540FF53175329012A90412E1
:10060E00209A802912A9046181E51B54F0B4100AC6
:10061E00E51CB4010512209A8013E51B54F0B410AA
:10062E000AE51CB4000512209A8002A19A0012203D
:10063E009A75A710D2C275A700200D073013FAE1E4
:10064E00FE80F6C20D300F02B2B412209A3014E9B9
:10065E00C21481AB80E3753F4012A5BF3013010079
:10066E00E51B540775F0D025F0F53112A8F6853844
:10067E001B85391C853A1D853B1EE51B54F0B400C5
:10068E003FE51CB4000D12209AC2131222CB122485
:10069E002F802DE51CB40111153FE53FB400BAC201
:1006AE00131222CB12242F8017E51CB408028010DF
:1006BE00153FE53FB400A2C2131222CB12242F2203
:1006CE0022C20F751B0275310275320012A9041277
:1006DE00209A751B0175310175329012A9041220F2
:0206EE009A224E
:1006F000C20F751B0175310175320012A904122059
:100700009A751B0275310275329012A90412209A53
:1007100022C20F751B0175310175320012A9041236
:10072000209A751B0275310275320012A90412203D
:100730009A22C20FC01BE51B540FB4020F751B0198
:1007400075310175320012A904D01B22751B027588
:10075000310275320012A904D01B22782375F004EF
:10076000E51B5407A475F02025F0F8E654F0B4E03A
:100770005B75A71075A700E6F51B08E6F51C08E6F3
:10078000F51D08E6F51E12202F12AA0212239E1252
:100790002478121B1CE54AB400F5E54BB401F012B5
:1007A000239EE51B540FF51B751C00120E40300FE5
:1007B000087800D8FE1215300012202F12239E1246
:1007C000241275A710D2C275A7006181E51E30E71B
:1007D00003120B42300F0612A99012242FC147C1F9
:1007E000470012A5BF30871612A5BF30871012A58B
:1007F000BF30870A12097EC147308702C147C21342
:1008000000E54BB40840E54AB4003BE51C540FB486
:100810000A02216612161112209AE51C300F0343BA
:10082000E0802401F51C12A5E4D140E51B540FB46F
:10083000010F300F0CC01B751B1212A5E4D140D064
:100840001B12209A2166B4103EE54AB400511216DC
:0D0850001112209AE51C540FB4010221661C
:10085D00E51CC39401300F0343E080F51CD140E546
:10086D001B540FB401CE300F0CC01B751B1212A5FB
:10087D00E4D140D01B12209A2166E54BB40013E55C
:10088D004AB4040E121611121B57C2B3715ED2B3C5
:10089D002166E54BB4015EE54AB40059121611E527
:1008AD001B540FF51B751C00D140E51B540FB403F1
:1008BD0002802D300F2AC01B751B02751C00D14004
:1008CD00C20F78C17400F278C97400F278D1740047
:1008DD00F278D97400F2740075F0C112179FD01B15
:1008ED0012202F1223261222EC12242FE516122588
:1008FD00E4121B5722E54AB4010AE54BB400392036
:10090D000F368046E54AB4000AE54BB44005200F8A
:10091D00278037E54AB40007E54BB42002802BE56C
:10092D004AB40214E54BB4000F801FE54A54FE6033
:10093D0013E54BB400028012318002064754E0707B
:10094D0009020647E54B549F70EE12236412239E55
:10095D001223D8D21322020647020647B400010023
:10096D00121B3B121B1C751B11751C1512202F80A1
:10097D00FE0022E54AB42009E54BB4000431F280B3
:10098D0063E54AB44009E54BB40004511B8055E5BD
:10099D004AB41034E54BB4002F12161112A5BF1234
:1009AD00A5BF12A5BF12A5BF12A5BF12A5BF12A547
:0409BD00BF12A5BF01
:1009C10012A5BF121820E54AB41007E54BB4000286
:1009D1005144801CE54AB40809E54BB40004516F49
:1009E100800EE54AB40009E54BB4180451AD80000E
:1009F1002212161130B012C2B0751B60751C017540
:100A01001D01751E0FD1408010D2B0751B60751C81
:100A110001751D00751E0FD1402212161130A4124E
:100A2100C2A4751B60751C02751D01751E0FD14096
:100A31008010D2A4751B60751C02751D00751E0FF8
:100A4100D14022C213121611C2B13013FDC213E5F7
:100A51004AB4100BE54BB40006D2B112161122E5CF
:100A61004AB402E6E54BB400E1918A80DD22C0D9A7
:100A710075D90443D94075A710C2C275A70090ADBE
:100A8100431217C3C2B2783475FA0075F900D2DE89
:100A910030DFFDC2DFB2B2D8EFD2B290AD4712174C
:100AA100C375A710D2C275A700D0D922201646D28D
:100AB1001612161112A5BF121820E54BB400F5E568
:100AC1004AB400F090C00012A5907480438F015386
:100AD1008FFD75B7A575B7F1F0538FFE78C6E25457
:100AE1007FF278CEE2547FF278D6E2547FF278DE5C
:100AF100E2547FF222121611121611121611C216A9
:100B010012A5BF121820E54BB400F5E54AB400F078
:100B110090C00012A5907400438F01538FFD75B7EB
:050B2100A575B7F1F01D
:100B2600538FFE78C6E24480F278CEE24480F278B3
:100B3600D6E24480F278DEE24480F222782375F031
:100B460004E51B5407A475F02325F0F8E630E70703
:100B5600C2E7F5F012AB1A22782375F004E51B54B0
:100B660007A475F02325F0F8E675A710C2C275A78D
:100B760000719375A710D2C275A70022E51B540F0A
:100B86002460F51B751C00751E00D1402278237564
:100B9600F004E51B5407A475F02325F0F8E620E7DA
:100BA60005751E198004C2E7F51EE51E1226EEEA3B
:100BB6009020009375F0C412179FEB902000937558
:100BC600F0C512179FEC9020009375F0C612179F80
:100BD6003013FDC213E54BB40809E54AB400040519
:100BE6001E80C7E54BB41009E54AB40004151E8003
:100BF600B9E54BB4000AE54AB4040591272280AA58
:100C0600E54BB401A5E54AB400A0E51B540F2460EA
:100C1600F51B751C00751E00D14012AC2D12161165
:100C260022300F40E51B540FB403028037751B6258
:100C3600751C00751C00E51ED2E7F51ED140780034
:100C4600D8FE751B61751C00751C00E51ED2E7F504
:100C56001ED1407800D8FE7800D8FE122478714262
:100C660012161122E51B540F2460F51B751C00E5B6
:100C76001ED2E7F51ED1407800D8FE1224787142C4
:100C86001216112212161112170D12201090AD4FC6
:100C96007516C091BC121B1CC213E54AB400F6E5DA
:100CA6004BB401F190AD471217C3740075F0C21230
:100CB600179F121611227516C090E0FDE493FDA34E
:100CC600E493FEA3E493FFED540F9020009375F098
:100CD600C212179FEEC4540F9020009375F0C312F2
:100CE600179FEE540F9020009375F0C412179FEFD4
:100CF600C4540F9020009375F0C512179FEF540F40
:100D06009020009375F0C612179F2212ABE312AC27
:100D16002D90AD3F1217C31217EF7516C8E51B5479
:100D26000F75F02025F0F51BD140C20D200D1C30AB
:100D360013FAC213E54AB4000DE54BB401081216C6
:100D460011121B57805480E4020647C20DE51B545E
:100D560007B4000512AC2D8041782375F004E51B1D
:100D66005407A475F02025F0F8E654F0E6F51B08C4
:100D7600E6F51C08E6F51D08E6F51E12202FE51B14
:100D860054F0B4000A12239E1223D81224122212FF
:100D9600AA848098121B1CB401FAE51B540FF51B9C
:030DA600751C00B9
:100DA900D14012202F12239E1223D812241222126C
:100DB9001B1C54E17002A132121611E51B540FF5E8
:100DC9001B751C00D14012202F12239E1223D8120A
:100DD9002412220022121611D20F78C7E2543D4480
:100DE9003CF278CFE2543D443CF278D7E2543D449A
:100DF9003CF278DFE2543D443CF2C2B4743E78C020
:100E0900747EF278C8743EF278D0743EF278D87461
:100E19003EF2747E75F0C012179F78C17437F2786C
:100E2900C97437F278D17437F278D97437F2747794
:100E390075F0C112179F2275A710C0C0C2C275A74D
:100E49000075303E851B31851C32851D33851E3466
:100E590012A90475A710D0C075A700220022122379
:100E69009E80FEE52454F0B4E02675430675447966
:100E7900E525F5F0C4540F90200093F545E5F054AD
:100E89000F90200093F54612AC751225E4020381F8
:100E990085241B85251C85261D85271E12202F12BA
:100EA900AC75803F85281B85291C852A1D852B1E2D
:100EB90012202F12AC75802B852C1B852D1C852E9D
:100EC9001D852F1EE51B54F0B4E00912AA0212ACCD
:100ED90075020381852C1B852D1C852E1D852F1ED2
:0F0EE900020381020381D2A1D2A2D2A375F03FEE
:100EF800E51B540725F0F87440F61225E4C2B3C286
:100F0800B2121B1CB4041575F03FE51B540725F0FD
:100F1800F8745CF61225E412A5BF80E5B402E27508
:100F2800F03FE51B540725F0F87464F675446475C2
:100F380045641225E412A5BF80C780FE2275303CA7
:100F480075313F75323175333075343112A8F61268
:100F5800199880F880FE20902A7800D8FE75A7207E
:100F680074AAD2C912A504FF12A4FCF54CB4F50367
:100F7800F18C22B4F803F1DC2212A4FCF54DD21254
:100F880075A7002212A4FCFC12A4FCFD12A4FCFE0E
:100F980012A4FCFF90000012A4FCF0A3E5838EF0DD
:100FA800B5F0F4E5828FF0B5F0EDEDB40A16C0A700
:100FB80075A70090E000780112A59005830583D8F5
:100FC800F7D0A722B40B0CECB4100312A517B42069
:100FD8000280FE2290E0FDE49312A504A3E493129C
:100FE800A504A3E49312A504F55122C0E0C0A77597
:100FF800A72020105DE547B40009E592B4557B05AC
:10100800478077B40109E592B4AA6F0547806BB4AD
:101018000209E592B400630547805FB40308E592CE
:10102800F54205478054B40408E592F54405478025
:0810380049B40545E592F545B8
:10104000754700D210E545B40009E544B40004D268
:1010500011802FC21175470080283011028010A81E
:1010600047E592F20547E547B54517D2118013E5EC
:1010700092F543C210C211A847F2754700D2128000
:101080000100C2C8D0A7D0E022C208F1797515309E
:10109000750C09121BFA00B45529750C11780074EF
:1010A00040F2121C1A750C1278007455F2121C1AB8
:1010B000750C1378007401F2121C1A11FFF179807B
:1010C0003D803B75437975444075457D75466F7528
:1010D00042007541007540001225E4748FD196D10D
:1010E00078D1AB12A5BF12A5BF12A5BF12A5BF1222
:1010F000A5BF12A5BF12A5BF12A5BF43EF10227551
:101100000C0078007411F2121C1A12A5E4750C017F
:1011100078007411F2121C1A12A5E4750C02780002
:101120007411F2121C1A12A5E4750C0378007411E4
:10113000F2121C1A750C0478007411F2121C1A12A7
:10114000A5E4750C0578007411F2121C1A12A5E4BE
:10115000750C0678007411F2121C1A12A5E4750CB5
:101160000778007411F2121C1A22E515B439012215
:1011700004F515540F121B6985F0421225E4743EE4
:101180001219FF74311219FF74501219FFE515126C
:0811900019FF22E515B431013D
:1011980022E51514F515540F121B6985F042122526
:1011A800E4743E1219FF74311219FF74501219FFBA
:1011B800E5151219FF22E590B4FFFBE590B4FF0294
:1011C80080F9D1117A0575400675410075420075A0
:1011D80043001225E412A5BF12A5BFD11175400026
:1011E8007541067542007543001225E412A5BF1229
:1011F800A5BFD111754000754100754206754300C1
:101208001225E412A5BF12A5BFD111754000754182
:10121800007542007543061225E412A5BFD111D10D
:1012280011751801902000E518540F93F546122502
:10123800E412A5BFE590B4FF0280F9000518E5188F
:10124800540F93F5461225E4D11112A5BF80E5800D
:1012580069B4FB667A0475400875410875420875DB
:1012680043081225E412A5BF7540407541407542F8
:10127800407543401225E412A5BF75400175410130
:101288007542017543011225E412A5BFDAC87540FD
:10129800107541107542107543101225E412A5BF50
:1012A80012A5BF7540207541207542207543201254
:1012B80025E412A5BF12A5BF800022782375F0048B
:1012C800E51B5407A475F02025F0F8E675A71075FE
:1012D800A700E6F51B08E6F51C08E6F51D08E6F587
:1012E8001E12202F2251F671B69161D2B1227530AB
:0F12F8003C75313F75323175335512A8F6B16828
:10130700853824853925853A26853B2720097DE5BB
:101317003854F0853824853925853A26853B27B406
:101327000010754300754400754500754600122589
:10133700E422B4100100B4200100B4E04BC2B1852F
:101347003824853925853A26853B277540797543A5
:1013570079754440E539F5F0C4540F90200093F5B2
:1013670045E5F0540F90200093F5461225E4B11996
:10137700754300754400754500754600E539B401AD
:10138700077540001225E4221225E422C2B1752C0C
:10139700E1752D00752E00752F007540797543791D
:1013A70075444075453F75463F1225E4B1192275CE
:1013B700303C75313F75323275335512A8F6B17E20
:1013C700200974E53854F0853828853929853A2A63
:1013D700853B2BB400077541001225E422B41001A8
:1013E70000B4200100B4E04BC2B185382885392903
:1013F700853A2A853B2B754179754379754440E5D4
:1014070039F5F0C4540F90200093F545E5F0540FDB
:1014170090200093F5461225E4B1197543007544F1
:1014270000754500754600E539B40107754100129E
:1014370025E4221225E422C2B1752CE2752D007530
:101447002E00752F007541797543797544407545B0
:101457003F75463F1225E4B1192275303C75313F7F
:1014670075323375335512A8F6200974E53854F0F0
:0F147700B43016752C3075420075430075440073
:101486007545007546001225E422B4500100B45299
:101496000100C2B185382C85392D853A2E853B2F22
:1014A600754279754379754440E539F5F0C4540FB2
:1014B60090200093F545E5F0540F90200093F546F3
:1014C6001225E4B11975430075440075450075464B
:1014D600001225E4E539B401077541001225E4221E
:1014E60022C2B1752CE3752D00752E00752F00757F
:1014F600427975437975444075453F75463F1225D7
:10150600E4B119754300754400754500754600122F
:1015160025E422121B3B12A5BF2087FA12191EF5DD
:10152600F0121B3BE5F0B408ED22C01B751B0275DB
:101536001C00120E40C20F78C17400F278C9740004
:10154600F278D17400F278D97400F2740075F0C1A3
:10155600F19FD01B2275303C75313F7532317533A2
:1015660055222275373C753801753900753A55751F
:101576003BAA753D30C2092275373C75380275396C
:1015860000753A55753BAA753D30C2092275373C40
:10159600753811753900753A55753BAA753D30C2D7
:1015A600092275373C753822753905753A55753BEC
:1015B600AA753D30C2092275373C7538E175390781
:1015C600753AAA753B55753D30C2092275373C758B
:1015D60038E1753901753AAA753B55753D30C20932
:1015E6002275373C7538E1753902753AAA753B554F
:0315F600753D3010
:1015F900C2092275373C7538E3753904753AAA75FD
:101609003B55753D30C20922C0E030160375DA46F4
:10161900C000C001C0A8C2AF79FA12A5E4D9FB790C
:101629007D12A5E4D9FBD0A8D000D00175DA00C29B
:1016390095D0E0227800D8FE7800D8FE7880D8FED0
:1016490022C2A47440D178D2A4D1D7C2A474C0D183
:1016590078D1D77F037439D1B81FEFB400F7747309
:10166900F5F0D178D1D7E5F0C4D178D2A480FE784D
:1016790008C2A57906D9FE1392A67906D9FED2A584
:10168900790BD9FEC2A57906D9FED8E522D2A5D211
:10169900A67806D8FEC2A67808D8FEC2A57808D8CA
:1016A900FE22D2A57808D8FED2A67808D8FE22F55F
:1016B900F0D178000000E5F07800D8FE227808E43F
:1016C900C2A5A2A6D1D733D2A5D1D7D8F3227920E2
:1016D900D9FE22C2A47444D178D2A4D1D7C2A4E538
:1016E90049F5F0D178D1D7E548F5F0D178D1D7E5EA
:1016F900F0C4D178D1D7D2A422D1D7C2A4748FD1C2
:1017090078D2A422754339754439754578754600F0
:09171900754000754100754200A5
:101722007547001225E4748FD196D178D1AB22751A
:10173200437875445C75457875464075403F754100
:101742003F75423F7547001225E4748FD196D178D8
:10175200D1AB2275433975443975457875460075A4
:1017620040007541007542007547001225E4748FF0
:10177200D196D178D1AB22754000754100754200F7
:1017820075430075440075450075460075470012A3
:1017920025E4748F7481D196D178D1AB22C0E074E4
:1017A20044D196D178D1ABD1D7D196E5F0D178D1C9
:1017B200D7D0E0D1B8D1AB22748FD196D178D1AB4A
:1017C20022C0E07444D196D178D1ABD1D7D19674EE
:1017D200C3D178D1D7D0E0E493D1B8A3E493D1B800
:1017E200A3E493D1B8A3E493D1B8D1AB22C0E078FB
:1017F200C37464F208F208F208F278CB7464F20857
:10180200F208F208F278D37464F208F208F208F2ED
:1018120078DB7464F208F208F208F2D0E022C0E049
:10182200C0F0C0D0C000C001750C2071FAF54B7534
:0D1832000C2171FAF54AB400028006D215AF
:10183F00D213800FE54BB400028006D215D213806D
:10184F0002C213D001D000D0D0D0F0D0E022C2CF4E
:10185F00C0E01513E513B40002D20AD0E02275914F
:10186F0000C200C0A775A72053C17F00000043C16D
:10187F0080D0A722C0E075A710C29F75A7002015C2
:10188F0041154DE54DB40037754D0C154CE54CB475
:10189F00002D75310175320075330012A9047531B1
:1018AF000275320075330012A90412173175A700A3
:1018BF00C2AF2087FDD2AF12A5BF75EF1080FED04B
:1018CF00E022754C78754D0CC215D0E02275A7102B
:1018DF00C2C775A700C0E0C000C0011512E512B461
:1018EF000014D20C75120F12242FE516B4C007B2D4
:1018FF0090122478D20DD001D000D0E02275A7101D
:10190F00C2C775A700C0E0B40002D20AD0E022C05F
:10191F00E0C28374C1519C12163D74FF519CF54A6D
:10192F0012163D74FF519CF54BD283D0E022C0E0DC
:10193F00C283519C12163D74FF519CF54A12163DFD
:10194F0074FF519CF54BD283D0E022C0E0C2837468
:10195F0040519C12163D74FF519CF54A12163D746E
:10196F00FF519CF54BD283D0E022C0E0C28374209C
:0B197F00519C12163D74FF519CF54A6C
:10198A0012163D74FF519CF54BD283D0E02275CFDD
:10199A009B75CEA0751304C20AC209782475F0A5F6
:1019AA00E631FF25F0F5F008B82AF5E5F031FF75C4
:1019BA00A710D2C275A700745512A980B44F13128A
:1019CA00A980B44B0DC209C20A75A710C2C275A775
:1019DA000022D209C20A75A710C2C275A700222224
:1019EA00C0E0C0F0E4F5F0E493A3600431FF80F7AF
:1019FA00D0F0D0E0223099FDC299F59922C0E0C416
:101A0A00511931FFD0E0C0E0511931FFD0E0225422
:101A1A000FB40A0040022407243022C39430B40AC7
:101A2A0000401BB4110040139407B41000400FB4D7
:101A3A002A0040079420B410004003C374FFB32265
:101A4A003098FDE599C29822C0F0C000C298514A68
:101A5A00F500512540F6C4F5F0E50031FFC2985172
:101A6A004AF500512540F645F0F5F0E50031FFE56D
:101A7A00F0D000D0F0220A0D00750F0AD2CAC206B1
:101A8A002098083006FAD207C20622E599C298C2FF
:101A9A000722F5A330FFFDC2FFE5A32274FFF5A3D9
:101AAA0030FFFDE5A3C2FF22C2837404519CD28396
:031ABA0012A5BFB3
:101ABD00749075F0F251F012163D12163D74917539
:101ACD00F00251F012163D12163D749275F0385118
:101ADD00F012163D12163DC2837403519CD283122F
:101AED00A5E422C283519C12163DE5F0519C1216BD
:101AFD003DD28322C28374C1519C12163D74FF5195
:101B0D009CF54A12163D74FF519CF54BD283223041
:101B1D0013FDC213227157308704300BFA22311E88
:101B2D00E54BB40007E54AB4000280E3222222C04F
:101B3D00E0C28374C1519C12163D74FF519C121664
:101B4D003D74FF519CD283D0E02222C0E0311EE5CE
:101B5D004AB400F9E54BB400F4D0E0229020009394
:101B6D00F5F022B4100575F0308020B4010575F044
:101B7D00068018B4020575F05B8010B4030575F08E
:101B8D004F8008B4040575F06480002275830075DC
:101B9D008200750D01750ED4D201D202D200C2D1D0
:101BAD007920D205C204C209D2C52000FD22758359
:101BBD0000758200750D00750ED4D201D202D200CF
:101BCD00C2D1C20474202401F9D205C209D2C520A4
:101BDD0000FD22750D00750ED4D201D202D200D2B5
:101BED0004C2D1D205C209D2C52000FD22758300E1
:0D1BFD00758200750D01750ED4C201D20273
:101C0A00D200C2D17901D205C204D2C52000FD2278
:101C1A00758300758200750D00750ED4C201D2025B
:101C2A00D200C2D1C2047902D205D2C52000FD2257
:101C3A00E5C054F0B4E02330D110E50D850EF0452F
:101C4A00F0F5C2C2C5C2C0C20522E50EF5C2C2C5C0
:101C5A00C2C0E50DB40102D2D122B4C04130040B96
:101C6A0030C105D2C4C20022D2C52230C1443005D7
:101C7A002A20010F200212E50DB40113D2C5D2D1D8
:101C8A0022800CC201850BC222C202850CC222D953
:101C9A0005D2C4C20022E0F5C2A322D20522B48032
:101CAA0010E5C2F0A3D907C200C2C1D2C422D2C170
:051CBA002222D20922E4
:102000003F065B4F666D7D077F6F777C395E797128
:10201000C0E078C07400F208B8E0F974FFF274FF11
:1020200078C7F278CFF278D7F278DFF2D0E022E505
:102030001B54F0B40028E51C12AC2D540FB400045E
:102040007F008015B401047F00800EB402047F7607
:102050008007B403047F74800012ABC28039B410CF
:1020600027300F08007F0212A990802B12AC2DE5BB
:102070001C540FB40A047F73800590200093FF1254
:10208000ABC212AC2D801000B4200512ABE3800768
:10209000B4E00412AC0800912F2275A710C2C275DB
:1020A000A7007516C075120F12A8F685381B853962
:1020B0001C853A1D853B1E12AC75E51B540FB403FD
:1020C000022157300F0280022157AC1BAD1CAE1D00
:1020D000AF1E751B0212A8F6AA38AB39EA54F0F508
:1020E000F0C2D7EC54F025F0B4670100B4103CEC1A
:1020F00054F0B40006EDB4010E8030EA54F0B400A0
:102100002AEBB401028024C20F751B02751C001259
:102110000E407800D8FE751B01751C00120E407829
:1021200000D8FE917812AC2D414B008C1B8D1C8E7B
:102130001D8F1E800975A710D2C275A70022E52841
:1021400054F0B4E012751B0212A8F685381B8539CD
:0B2150001C853A1D853B1EB10DE51BF0
:10215B0054F0B4E076112F12AA02912F300F2712F0
:10216B0007328022751B02751C00120E407800D8B6
:10217B00FE751B01751C00120E407800D8FE121B59
:10218B001C1215308033121B1CE54AB400CEE54BF4
:10219B00B401C9121611719EE51B540FF51B751C6A
:1021AB0000120E40300F127800D8FE121530751B3E
:1021BB0001751C00120E40C20F112F719E911275EA
:1021CB00A710D2C275A70022020381E51B540FB4DE
:1021DB00030FE51E30E70512AB1A804912AC2D80B8
:1021EB0044E51E30E70512AB1A800512AC2D8000BA
:1021FB00300F0512A990802D802BE51E30E70312BE
:10220B00AB1AE51B540FB4030AE51E20E70D12AC05
:10221B002D8008300F0512A990912FE51B54F0B4B7
:10222B00000312AC2D912FE51B54F0B40004515751
:10223B00800EB4100451918007B4200451AE80007D
:10224B00912F75A710D2C275A700002278C7E24460
:10225B0006F278CFE24406F278D7E24406F278DF52
:10226B00E24406F22278C7E254FD4404F278CFE24E
:10227B0054FD4404F278D7E254FD4404F278DFE2D3
:10228B0054FD4404F22278C7E254F94404F278CFA7
:04229B00E254F9F21E
:10229F0078D7E254F94404F278DFE254F9F2227865
:1022AF00C7E254F94402F278CFE254F9F278D7E258
:1022BF0054F94402F278DFE254F9F22278C7E2448B
:1022CF00E154E1F278CFE244E154E1F278D7E2440D
:1022DF00E154E1F278DFE244E154E1F222C0E07828
:1022EF00C7E274E1F278CFE274E1F278D7E274E1F9
:1022FF00F278DFE274E1F2D0E022C0E078C7E24486
:10230F0018F278CFE24418F278D7E24418F278DF67
:10231F00E24418F2D0E022C0E078C7E254FBF27832
:10232F00CFE254FBF278D7E254FBF278DFE254FBB2
:10233F00F2D0E022C0E078C7E244E0F278CFE24486
:10234F00E0C2E7F278D7E244E0F278DFE244E0C29D
:10235F00E7F2D0E022C0E078C7E254F8F278CFE29B
:10236F0054F8F278D7E254F8F278DFE254F8F2D06A
:07237F00E022C0E078C7E294
:102386004404F278CFE24404F278D7E24404F278C7
:10239600DFE24404F2D0E022C0E078C7E24410F263
:1023A60078CFE24410F278D7E24410F278DFE244C4
:1023B60010F2D0E022C0E078C7E24402F278CFE221
:1023C6004402F278D7E24402F278DFE24402F2D025
:1023D600E022C0E078C7E254FDF278CFE254FDF285
:1023E60078D7E254FDF278DFE254FDF2D0E022C065
:1023F600E078C7E24407F278CFE24407F278D7E202
:102406004407F278DFE24407F2D0E022C0E078C762
:10241600E254F8F278CFE254F8F278D7E254F8F2C0
:1024260078DFE254F8F2D0E022C000C0E0C001C07C
:1024360000A816E208F540E208F541E208F542E296
:1024460008F543E208F544E208F545E208F546E2F8
:1024560008F547E2B4FF0E7516C0B1E4D000D0010E
:07246600D0E0D0002288162F
:10246D00B1E4D000D001D0E0D00022C0E0C000C067
:10247D000178F0791BE7F20809B920F9751B0112F3
:10248D00A5E412A5E412A5E412A8F6853824853931
:10249D0025853A26853B2785241B85251C85261DEC
:1024AD0085271EB10D751B0212A5E412A8F68538FD
:1024BD0028853929853A2A853B2B85281B85291C9A
:1024CD00852A1D852B1EB10D8023751B0312A5E4D6
:1024DD0012A8F685382C85392D853A2E853B2F850A
:1024ED002C1B852D1C852E1D852F1EB10D0078F002
:1024FD00791BE2F70809B920F9D001D000D0E0220C
:10250D00E51B54F0B40023E51C540FB400047F0008
:10251D008013B401047F40800CB402047F768005E3
:10252D00B403027F7412ABC2A1C2B4107CE51B547C
:10253D000FB40302802F300F2CE51EC2E7B4011338
:10254D0075A710C2C275A70012161175A710D2C2B9
:10255D0075A700E51B540FB401047F3E8042B40201
:10256D00047F37803BE51C540FB40A047F73803021
:10257D0090200093F5F0E51E30E723E5F04480FF51
:10258D00E51EC2E7B4011575A710C2C275A70012EA
:10259D00161175A710D2C275A7007FF88002AFF093
:1025AD0012ABC2300F00800D00B4200512ABE380DA
:1025BD000412AC080022A2E792B4A2E692A1A2E511
:1025CD0092A2A2E492A3A2E392B0A2E292B1A2E1FE
:1025DD0092B3A2E092B4227440121696121678129B
:1025ED0016AB1216D774C01216961216781216D78D
:1025FD00E5401216B8E5411216B8E5421216B8E5D7
:10260D00431216B8E5441216B8E5451216B8E5465C
:10261D001216B8E5471216B81216AB2290AD2FD18F
:10262D00C7227F4078C3EFF278CBEFF278D3EFF289
:10263D0078DBEFF27F4078C4EFF278CCEFF278D40C
:10264D00EFF278DCEFF27F4078C5EFF278CDEFF264
:10265D0078D5EFF278DDEFF27F4078C6EFF278CEE5
:10266D00EFF278D6EFF278DEEFF22290AD1FD1C700
:10267D00227F3F78C3EFF278CBEFF278D3EFF27889
:10268D00DBEFF27F3F78C4EFF278CCEFF278D4EF46
:10269D00F278DCEFF27F3F78C5EFF278CDEFF2788C
:1026AD00D5EFF278DDEFF27F3F78C6EFF278CEEF1F
:0926BD00F278D6EFF278DEEFF2BC
:1026C6002278C3E493F208A3E493F208A3E493F216
:1026D60008A3E493F208A3E875F00425F0F8B4E340
:1026E600E22290AD0FD1C72275F06484FAE5F07549
:1026F600F00A84FBACF02290E0FD12A59090200435
:102706007830902004E0906000C2AF438F01538F71
:10271600FD75B7A575B7F1F0902005E0906001C290
:10272600AF438F01538FFD75B7A575B7F1F09020B4
:1027360006E0906002C2AF438F01538FFD75B7A5C7
:1027460075B7F1F02290E0FD12A590902004783044
:10275600902004E0906000C2AF438F01538FFD7557
:10276600B7A575B7F1F0902005E0906001C2AF43C0
:102776008F01538FFD75B7A575B7F1F0902006E070
:10278600906002C2AF438F01538FFD75B7A575B731
:03279600F1F0223D
:0134000012B9
:0138000001C6
:10A0000075D84053D9BF75D90475DA4675FC0A2254
:10A01000758850758922758E04758C02758DCB7587
:10A02000CA9375CB3875CE9E75CF38227598527508
:10A03000A72075C8127594437596FD75958275A70E
:10A04000002275C1802275A17075F80175A20822E1
:10A0500075A72075A52475A63E75D4C875D5077556
:10A06000E10375E34175A7002275A9102275E60189
:10A0700075A8A0227597DE7597AD12A00012A010EA
:10A0800012A02C12A04212A04612A05012A06912D7
:10A09000A06D75815875DA3053B0E0C295C206C222
:10A0A000D7C20D751000C20EC2B0908000E493902C
:10A0B0000200F5F0C4540F4430F0A3E5F0540F440F
:10A0C00030F0A3742EF0908001E493900203F5F039
:10A0D000C4540F4430F0A3E5F0540F4430F0A3749F
:10A0E0002EF0908002E493900206F5F0C4540F44E1
:10A0F00030F0A3E5F0540F4430F00201B0C2AF7568
:10A10000A7205113E542B4000451B480F5B401F91D
:10A11000C2B191247800D8FE517651135113313ECB
:10A12000E542B403F77800E2B404F1C2B38000C2A0
:10A13000D730D704517651135113313E80FAE5429E
:0BA14000B4000351B422B40107780002
:10A14B00D8FE912422B402077800D8FE910722B4DE
:10A15B0003077800D8FE51F322B4060331DD22B495
:10A16B00083A7800D8FE51B42275406775411275D4
:10A17B00423475435671107800D8FE7540697541AD
:10A18B007875429075430971107800D8FE75406A56
:10A19B00754187754265754365711022B40A19784C
:10A1AB0000D8FEE545B404028007D20771B771C928
:10A1BB0022C207719E71C922B40B127800D8FE30EF
:10A1CB00070600B15B71EA22B11771EA2251B4B1F3
:10A1DB00BF227455B10474AAB1047403B10474079B
:10A1EB00B10475F009E544B10425F0F5F0E545B18E
:10A1FB000425F0F5F07800E2B10425F0F5F008E85D
:10A20B00B545F4E5F0B1042275F00091FCB455F8B6
:10A21B0025F0F5F091FCB4AAEF25F0F5F091FCB424
:10A22B0000E625F0F5F091FCF54225F0F5F091FCF8
:10A23B00F54425F0F5F091FCF54525F0F5F0E545F5
:10A24B00B40007E544B40002801690000091FCF0C6
:10A25B0025F0F5F0A3E582B545F3E583B544EE00B3
:10A26B0091FCF543B5F001220080FE7455B10474E6
:07A27B00AAB1047403B10451
:10A282007404B1047400B1047400B1047406B1041E
:10A29200227455B10474AAB1047403B1047400B1F8
:10A2A200047400B1047401B1047401B1047404B102
:10A2B20004227455B10474AAB1047403B104740085
:10A2C200B1047400B1047401B1047401B1047404E2
:10A2D200B1042291FCB455FB91FCB4AAF691FC5353
:10A2E2009DFB91FC91FC91FCF891FCF2D8FBB4012E
:10A2F200E27455B10474AAB1047403B1047403B1D5
:10A30200047400B1047400B1047405B1042290A372
:10A3120078781379A0E493F709A3D8F978A6E540F1
:10A32200F6E541F5F0C4540F443078AAF6E5F0544E
:10A332000F443078ABF6E542F5F0C4540F44307860
:10A34200ADF6E5F0540F443078AEF6E543F5F0C4CF
:10A35200540F443078B0F6E5F0540F443078B1F63B
:10A3620078A075F000E6B10425F0F5F008B8B2F572
:10A37200E5F0B104222255AA0307000C6703000886
:10A3820038332E36302E30311955AA0307000C67A8
:10A3920003000832302E30392E38390FC0A775A786
:10A3A200009000007810B190058305830583058332
:10A3B200D8F4D0A7229080007804B1900583058359
:02A3C200058311
:10A3C4000583D8F4227455B10474AAB1047403B19A
:10A3D40004740AB1047400B1047401B1047400B1CA
:10A3E40004740DB104227455B10474AAB104740345
:10A3F400B104740BB1047400B1047400B104740D9D
:10A40400B104227455B10474AAB1047403B1047480
:10A4140002B1047400B1047400B1047404B10422E0
:10A42400783190A6ACE493B104A3D8F92275F00076
:10A4340090A659780CE493B10425F0F5F0A3D8F56F
:10A4440090A6DD7810E493B10425F0F5F0A3D8F5D7
:10A4540090A6757807E493B10425F0F5F0A3D8F538
:10A4640090E0FD7808E493C4540F4430B10425F01F
:10A47400F5F0E493540F4430B10425F0F5F0742E54
:10A48400B10425F0F5F0A3E493C4540F4430B104AF
:10A4940025F0F5F0E493540F4430B10425F0F5F0C1
:10A4A400742EB10425F0F5F0A3E493C4540F4430A2
:10A4B400B10425F0F5F0E493540F4430B10425F0D1
:0FA4C400F5F090A684781BE493B10425F0F5F031
:10A4D300A3D8F59002007808E4E0B10425F0F5F084
:10A4E300A3D8F590A6A77804E493B10425F0F5F07A
:10A4F300A3D8F500E5F0B1042230C8FDE592C2C847
:10A503002275A72030C9FDC2C9F59230C9FD75A7D0
:10A5130000220022C0A775A7007802E2FE7803E2BA
:10A52300FF9000047800E0F2A308B800F99000005F
:10A5330090E000E5832EF5837800E2438F01538F8B
:10A54300FD75B7A575B7F1F0A308B800ED538FFEFD
:10A55300538FFDD0A7B2B3227802E2FE7803E2FF65
:10A563009000047800E0F2A308B800F9908000E5B9
:10A57300832EF5837800E2438F01538FFD75B7A5D2
:10A5830075B7F1F0A308B800ED22780022C0A8C285
:10A59300AF75B7A575B7F1438F02438F01F0538FA2
:10A5A300FE538FFDD0A822C000C001C0A8C2AF795E
:10A5B300FAB1E4D9FCD0A8D000D00122C000C00178
:10A5C300C0A8C2AF7964B1E4D9FCD0A8D000D0014F
:10A5D30022C08E78C8D28CC28D308DFDD8F9D08E32
:10A5E30022C00078C8D28CC28D308DFDD8F9D0003E
:10A5F3002255AA0301002A7B2270223A2265623285
:10A603006C6F7375303176636274656F74222C22BC
:10A6130076223A22322E302E30222C226D223A30EC
:10A623007D0455AA0301002D7B2270223A22743443
:10A63300796C6162757A66376B7175787670222CE6
:10A643002276223A2234322E30322E3031222C22FC
:10A653006D223A307DCF55AA0301004C7B22702234
:10A663003A22366A336B6F717A736E783062707622
:10A673006171222C2276223A2234322E30322E304D
:10A6830031222C226D223A302C226D61223A5B7BDF
:10A693002274223A31302C2276223A2238302E3458
:10A6A300332E3231227D5D7D5655AA0301002A7B6C
:10A6B3002270223A22366A336B6F717A736E783066
:10A6C3006270766171222C2276223A22312E302E4C
:10A6D30030222C226D223A307D2A366A336B6F7119
:10A6E3007A736E78306270766171C21212161175C8
:10A6F300435075440075453975467875400075417A
:10A70300007542007547001225E4748F12169612E5
:10A7130016781216AB12201090AD4F7516C0753116
:10A723006075320075330112A904B1BF1224787821
:10A7330000D8FE1224787800D8FEC20B75A710D279
:10A743009A75A7003013FDC213E54AB40007E54B21
:10A75300B40102801AE54AB402EAE54BB400E57598
:10A763004EF0754F0012A8C77800D8FE43EF10C211
:10A773000B75A710D29A75A700754EF0754F01128D
:10A78300A8C7121611301207C21212161180163002
:10A793000DF3C20DE52454F0B4E00512A8A780E53B
:10A7A30080E3121611E54CB46504F1EF80D7E54C54
:10A7B300B4660512A82080CDE54CB4680512A852F2
:10A7C30080C3E54CB4690512A85D80B9E54CB46B50
:10A7D3000512A86880AFE54CB46F0343EF10E54C56
:10A7E300B47B0512A898809D74558099E54DB401FA
:10A7F300177401540F4410F5317532803104754ECE
:10A8030011754F0111C700227401540FF51B751CFC
:10A8130000120E40754E01754F0211C722E54DB46B
:10A8230001177402540F4410F531753280310475E9
:10A833004E12754F0111C700227402540FF51B7598
:10A843001C00120E40754E02754F0211C72222756D
:10A853001B11E54DF51C120E4022751B12E54DF53B
:10A863001C120E4022751B017400F51C120E407859
:10A8730000D8FEE54DB40114751B217400F51C12BC
:10A883000E40754E21754F0011C78008754E017536
:10A893004F0011C722120A6F754EF5754F7B755025
:10A8A3000011C72285244E85254F11C722754EF10D
:10A8B30090E0FDE493F54FA3E493F550A3E493F5FF
:10A8C3005111C722C2AF53E6FDC29075A72078800D
:10A8D300D8FED290E54E12A504E54F12A504E5502B
:10A8E30012A504E55112A50475A70043E602D2AFF1
:10A8F3002200223170E51B5407F5F0E53125F0F510
:10A9030031E599C29875CF9B75CEA0751304C20A21
:10A91300C209783075F0A575303EE61219FF25F0AF
:10A92300F5F008B835F4E5F01219FFD2CA3099FDF5
:10A933003180200A23783875F0E33180200A19F634
:10A9430025F0F5F008B83CF23180200A0BB5F00889
:10A9530000C209C20AC2CA22D209C20AC2CAE53166
:0DA96300540775F0E025F0F5387539002235
:10A9700075303E7531D07532007533007534002264
:10A98000209808300AFA7455C29822E599C2982294
:10A99000C0E0E51B54F0B4106678C37471F278CB54
:10A9A0007471F278DB7471F278C47438F278CC7414
:10A9B00038F278DC7438F278C57400F278CD74001F
:10A9C000F278DD7400F2E51C540FB40A047F738042
:10A9D0000A90200093A216B392E7FF78C6EFF278B0
:10A9E000CEEFF278DEEFF2E51E20E71378D3747134
:10A9F000F278D47438F278D57400F278D6EFF2D0C9
:10AA0000E022C0E078C47479F278CC7479F278D41A
:10AA10007479F278DC7479F2E51B54079020009386
:10AA2000FF78C3EFF278CBEFF278D3EFF278DBEF79
:10AA3000F2E51CC4540F90200093FF78C5EFF27824
:10AA4000CDEFF278D5EFF278DDEFF2E51C540F9000
:10AA5000200093A216B392E7FF78C6EFF278CEEF0C
:09AA6000F278D6EFF278DEEFF295
:10AA690078C7E2440EF278CFE2440EF278D7E24496
:10AA79000EF278DFE2440EF2D0E022C0E0E51B548A
:10AA8900F0B4E00451026117E51C540FB40005123B
:10AA99002629807AB401051226788072B40205123B
:10AAA90026E8806AB4020100E51DC4540F90200015
:10AAB90093FF78C3EFF278CBEFF278D3EFF278DB3C
:10AAC900EFF2E51D540F90200093FF78C4EFF27860
:10AAD900CCEFF278D4EFF278DCEFF2E51EC4540F34
:10AAE90090200093FF78C5EFF278CDEFF278D5EF9B
:10AAF900F278DDEFF2E51E540F90200093FF78C63F
:10AB0900EFF278CEEFF278D6EFF278DEEFF2D0E01E
:10AB190022C0E0E51B540790200093FF7F7878C39B
:10AB2900EFF278CBEFF278D3EFF278DBEFF2E51EB4
:10AB3900C2E71226EEEA540FB4001678C47400F284
:10AB490078CC7400F278D47400F278DC7400F28066
:06AB59001590200093FF9F
:10AB5F0078C4EFF278CCEFF278D4EFF278DCEFF242
:10AB6F00EB540F90200093FF78C5EFF278CDEFF202
:10AB7F0078D5EFF278DDEFF2EC540F90200093A22E
:10AB8F0016B392E7FF78C6EFF278CEEFF278D6EFF2
:10AB9F00F278DEEFF2D0E02278C7E254FDF278CF00
:10ABAF00E24402F278D7E254FDF278DFE24402F297
:10ABBF00D0E02275F0BFE51B540725F0F8EFF5F054
:10ABCF00F2E82408F8EFF2E82408F8EFF2E8240896
:10ABDF00F8EFF22275F0BFE51B540725F0F8740863
:10ABEF00F5F0F2E82408F87448F2E82408F87449FC
:10ABFF00F2E82408F87400F22275F0BFE51B540741
:10AC0F0025F0F87479F5F0F2E82408F87479F2E891
:10AC1F002408F87479F2E82408F87479F222C0E075
:0AAC2F0078C37400F208F208F2087E
:10AC3900F278CB7400F208F208F208F278D37400C3
:10AC4900F208F208F208F278DB7400F208F208F26E
:10AC590008F220161478C67480F278CE7480F278DF
:10AC6900D67480F278DE7480F2D0E022E51B5407B6
:10AC7900200F518517F0B40124E51778C7E244E0A5
:10AC8900D2E7F278CFE244E0C2E7F278D7E244E0D3
:10AC9900D2E7F278DFE244E0C2E7F2804CB402493D
:10ACA900E51778C7E244E0D2E6F278CFE244E0C2A1
:10ACB900E6F278D7E244E0D2E6F278DFE244E0C295
:10ACC900E6F28025B40322E51778C7E244E0D2E52D
:10ACD900F278CFE244E0C2E5F278D7E244E0D2E587
:10ACE900F278DFE244E0C2E5F22290AD4B78C7E4A6
:10ACF90093F2A378CFE493F2A378D7E493F2A378FD
:10AD0900DFE493F2A322390909403909090F390906
:10AD1900090F3909090F64404040406464404040CC
:10AD290064644040406440000000404000004040EE
:10AD39004000404040406464646400393854000075
:10AD49000000E1E1E1E1087D3F3000000000487DBD
:10AD5900000001010000497D3F0000000600007D60
:07AD6900040008080000FFD0
:10C000008034FFFFFFFFFFFFFFFFFFFFFFFFFFFF8A
:10C01000FFFFFFFFFFFFFFFFFFFFFFFFFFFFFFFF30
:03E0FD0012345684
:00000001FF
