:0300000002A074E7
:040013001216583237
:04002B0012169732E0
:06003B00121A7BC2C03264
:04004300120D9232D6
:040073001216A73288
:04007B00120E273208
:04008B001216BD325A
:0400930012171532F9
:0300FD00430210AB
:1001000075D84053D9BF75D90475D90075DA4675CD
:10011000FC0A75FCD52275885043880475892275C0
:100120008E04758CE7758DCB75CAD175CBFE75CEF7
:100130004275CF2275910475924F75939C227598E4
:100140005275A72075C85275944075D8C175D8C727
:100150007596FD75958275A7002275C18075C18859
:100160002275A17075F80175A2082275A72075A4E3
:100170004075A56475A63E75D4CF75D50775E105A4
:1001800075E20175E34175EE0175ED0175A7002279
:1001900075A91075B11C43B1802275E60175E68121
:1001A00075A71075BB0175A70075E47175A8A42229
:1001B0007597DE7597ADC286120100120116120105
:1001C0003E12015A12016112016B12019012019A42
:1001D00075A71075F30C75ED0875980375A53C753A
:1001E000A4AF75A33C75A2AF75D33675D2807512D6
:1001F0000FC2C775A70075CF9B75CEA075CB9B7539
:10020000CAA0C2CF75B82075815875DA3053B0E0F6
:10021000C295D2B4D2B3D2B2D2B1D2B0D2A490C02D
:1002200000E493A2E79216C206C2D7C20DC21275AD
:100230001000C20ED2B0C213120EBD75A71043EE4D
:100240000143BB0143F22443B80075A70012A5E4A3
:1002500012144975316075320075330012A90478A3
:1002600000D8FEC20FC20BD2B3D2B2C21475A7100F
:10027000C2C275A700740512A50412A5E474051284
:0B028000A504C213800075A720A2C8CF
:10028B0075A70030D70D75A720E59275A700B4F5BB
:10029B0002802C20B1010020130880DF3012DC0219
:1002AB00A6EDC213E54BB40107E54AB40002800F7B
:1002BB00E54BB400C6E54AB410C112087880BCD235
:1002CB00CA754C78754D0CC21553E6FD74F512A525
:1002DB000412A5E474F512A5041214491215451263
:1002EB00201090AD4F7516C0D286C2B312A5BFB207
:1002FB00B312A5BFB2B312A5BFB2B3751B01751C68
:10030B0000120C747800D8FEB2B3751B02751C007A
:10031B00120C747800D8FEB2B3751B03751C001257
:10032B000C74B2B31224807800D8FEB2B3122480BE
:10033B007800D8FEB2B31224807800D8FED2B3C2B4
:10034B000B75A710D2C2D29A75A7001222F478C7E8
:10035B00E275A710D2C275A700C20B12197B12222D
:10036B00F478C7E2122437E5161225ECC2B4C21397
:10037B0000003013FDC213E54BB40027E54AB4026D
:10038B0022200F0AE524B401E9E528B402E4120C9B
:10039B001285241B85251C85261D85271E91A6806D
:1003AB00D18137200F3CE54BB40019E54AB4011459
:1003BB00121449751B0112209AE53854F0B4E0026F
:1003CB0080B08068E54BB44019E54AB400141214B0
:1003DB0049751B0212209AE53854F0B4E002809262
:1003EB00804AE54BB40107E54AB400028006F1B23E
:0203FB00808000
:1003FD00617D1214493013FDC213E54BB40129E59B
:10040D004AB40024121449751B01751C00120C749A
:10041D00751B02751C00120C74751B03751C0012E4
:10042D000C7412A5BF43EF106182E51B54F0B4E0CC
:10043D000812AA02121997617DB4004212195BE5E8
:10044D004BB4040CE54AB4000712144991A6617D22
:10045D00E54BB40210E54AB4000B121449120B45DA
:10046D0012ACF3617D12ACF361821223E01223A66C
:10047D00C2A1C2A2C2A312236C12AC2D6182E51BD4
:10048D0054F0B4100491A6617DB4200B1223C31255
:10049D0023A6120B45617D80FE12209AE51B54F0B8
:1004AD00B400028002A17A75A710C2C275A700120E
:1004BD002278122437E51B540FC2D7940175F0C072
:1004CD0025F0F5F074401215D7E51B540F4410F5C7
:1004DD003175328012A904E51B540FB4010C300F95
:1004ED000975311275328012A904753F2712A5BF07
:1004FD0030130100E51B540775F0D025F0F53112CE
:10050D00A8F685381B85391C853A1D853B1EE51BD4
:10051D0054F0B40028E51CB4000D12209AC2131239
:10052D0022D3122437617DE51CB40111153FE53F3F
:10053D00B400BAC2131222D3122437617DE51B54C5
:10054D00F0B4100AE51CB4010512209A8013E51BC6
:10055D0054F0B4100AE51CB4000512209A800280F4
:0A056D008C0012209A75A710D2C26C
:1005770075A700200D073013FAC13980F6C20D3078
:100587000F02B2B412209A3014E9C21481A680E394
:10059700782375F004E51B5407A475F02025F0F8BF
:1005A700E654F0B4E05B75A71075A700E6F51B08E5
:1005B700E6F51C08E6F51D08E6F51E12202F12AA1F
:1005C700021223A612248012195BE54AB400F5E54E
:1005D7004BB401F01223A6E51B540FF51B751C0045
:1005E700120C74300F087800D8FE1213680012201E
:1005F7002F1223A612241A75A710D2C275A700615D
:100607007DE51E30E703120976300F0612A9901216
:100617002437A17AA17A0012A5BF30871512A5BF8A
:1006270030870F12A5BF308709F1B0A17A30870252
:10063700A17AC21300E54BB4083CE54AB40037E59C
:100647001C540FB40A02E19912144912209AE51CAE
:100657002401F51C12A5E4120C74E51B540FB40118
:1006670010300F0DC01B751B1212A5E4120C74D0AD
:100677001B12209AE199B4103AE54AB4004E1214BD
:100687004912209AE51C540FB40102E199E51CC3F5
:100697009401F51C120C74E51B540FB401D3300FF1
:1006A7000DC01B751B1212A5E4120C74D01B12206F
:1006B7009AE199E54BB40014E54AB4040F121449C2
:1006C700121997C2B3120992D2B3E199E54BB4015B
:0606D70060E54AB4005B7F
:1006DD00121449E51B540FF51B751C00120C74E523
:1006ED001B540FB40302802E300F2BC01B751B0241
:1006FD00751C00120C74C20F78C17400F278C974A5
:10070D0000F278D17400F278D97400F2740075F0AB
:10071D00C11215D7D01B12202F12232E1222F41224
:10072D002437E5161225EC12199722E54AB4010A71
:10073D00E54BB40039200F368044E54AB4000AE594
:10074D004BB44005200F278035E54AB40007E54B33
:10075D00B420028029E54AB40214E54BB4000F80A1
:10076D001DE54A54FE6011E54BB400028010F1B254
:10077D00A17A54E07008A17AE54B549F70F01223D2
:10078D006C1223A61223E0D21322A17AA17AB4000F
:10079D00010012197B12195B751B11751C151220A6
:1007AD002F80FE0022E54AB4200AE54BB400051265
:1007BD0008268064E54AB4400AE54BB400051208EA
:1007CD004F8055E54AB41034E54BB4002F1214494F
:1007DD0012A5BF12A5BF12A5BF12A5BF12A5BF12AC
:1007ED00A5BF12A5BF12A5BF12A5BF121658E54A87
:1007FD00B41007E54BB400021178801CE54AB4082B
:10080D0009E54BB4000411A3800EE54AB40009E5D7
:10081D004BB4180411E180002212144930B012C2F9
:10082D00B0751B60751C01751D01751E0F917480CF
:06083D0010D2B0751B6033
:10084300751C01751D00751E0F9174221214493019
:10085300A412C2A4751B60751C02751D01751E0FC1
:1008630091748010D2A4751B60751C02751D0075F0
:100873001E0F917422C213121449C2B13013FDC268
:1008830013E54AB4100BE54BB40006D2B112144978
:1008930022E54AB402E6E54BB400E151BE80DD2215
:1008A300C0D975D90443D94075A710C2C275A70032
:1008B30090AD431215FBC2B2783475FA0075F90096
:1008C300D2DE30DFFDC2DFB2B2D8EFD2B290AD4795
:1008D3001215FB75A710D2C275A700D0D922201616
:1008E30046D21612144912A5BF121658E54BB4008E
:1008F300F5E54AB400F090C00012A5907480438FD0
:1009030001538FFD75B7A575B7F1F0538FFE78C608
:10091300E2547FF278CEE2547FF278D6E2547FF24B
:1009230078DEE2547FF22212144912144912144958
:10093300C21612A5BF121658E54BB400F5E54AB42A
:1009430000F090C00012A5907400438F01538FFDF7
:1009530075B7A575B7F1F0538FFE78C6E24480F200
:1009630078CEE24480F278D6E24480F278DEE24444
:1009730080F222782375F004E51B5407A475F02355
:0F09830025F0F8E630E707C2E7F5F012AB1A22CD
:10099200782375F004E51B5407A475F02325F0F8BD
:1009A200E675A710C2C275A70031C775A710D2C2DB
:1009B20075A70022E51B540F2460F51B751C0075FA
:1009C2001E00917422782375F004E51B5407A47568
:1009D200F02325F0F8E620E705751E198004C2E72A
:1009E200F51EE51E1226F6EA9020009375F0C41259
:1009F20015D7EB9020009375F0C51215D7EC902017
:100A0200009375F0C61215D73013FDC213E54BB42F
:100A12000809E54AB40004051E80C7E54BB4100975
:100A2200E54AB40004151E80B9E54BB4000AE54A54
:100A3200B40405515B2280AAE54BB401A5E54AB492
:100A420000A0E51B540F2460F51B751C00751E00E9
:100A5200917412AC2D12144922300F40E51B540F31
:100A6200B403028037751B62751C00751C00E51EFD
:100A7200D2E7F51E91747800D8FE751B61751C00D3
:100A8200751C00E51ED2E7F51E91747800D8FE7839
:100A920000D8FE122480317612144922E51B540F2D
:100AA2002460F51B751C00E51ED2E7F51E917478D3
:100AB20000D8FE12248031761214492212144912EF
:100AC200154512201090AD4F7516C051F012195BEA
:100AD200C213E54AB400F6E54BB401F190AD4712FA
:040AE20015FB74008C
:100AE60075F0C21215D7121449227516C090E0FD92
:100AF600E493FDA3E493FEA3E493FFED540F90204B
:100B0600009375F0C21215D7EEC4540F90200093CF
:100B160075F0C31215D7EE540F9020009375F0C4EC
:100B26001215D7EFC4540F9020009375F0C5121517
:100B3600D7EF540F9020009375F0C61215D72212E6
:100B4600ABE312AC2D90AD3F1215FB1216277516AE
:100B5600C8E51B540F75F02025F0F51B9174C20DE6
:100B6600200D1C3013FAC213E54AB4000DE54BB450
:100B76000108121449121997805480E402057AC2BA
:100B86000DE51B5407B4000512AC2D804178237582
:100B9600F004E51B5407A475F02025F0F8E654F0A0
:100BA600E6F51B08E6F51C08E6F51D08E6F51E1237
:100BB600202FE51B54F0B4000A1223A61223E012DC
:100BC600241A2212AA84809812195BB401FAE51B32
:100BD600540FF51B751C00917412202F1223A612B8
:100BE60023E012241A2212195B54E1700261661284
:100BF6001449E51B540FF51B751C00917412202F28
:100C06001223A61223E012241A220022121449D219
:0C0C16000F78C7E2543D443CF278CFE276
:100C2200543D443CF278D7E2543D443CF278DFE252
:100C3200543D443CF2C2B4743E78C0743EF278C86B
:100C4200743EF278D0743EF278D8743EF2743E75F7
:100C5200F0C01215D778C17437F278C97437F278B8
:100C6200D17437F278D97437F2743775F0C112152E
:100C7200D72275A710C0C0C2C275A70075303E85C5
:100C82001B31851C32851D33851E3412A90475A7BC
:100C920010D0C075A7002200221223A680FEE524F0
:100CA20054F0B4E026754306754479E525F5F0C4A1
:100CB200540F90200093F545E5F0540F90200093D7
:100CC200F54612AC751225EC02037D85241B8525A1
:100CD2001C85261D85271E12202F12AC75803F858C
:100CE200281B85291C852A1D852B1E12202F12AC3C
:100CF20075802B852C1B852D1C852E1D852F1EE5B1
:100D02001B54F0B4E00912AA0212AC7502037D85ED
:100D12002C1B852D1C852E1D852F1E02037D020393
:100D22007DD2A1D2A2D2A375F03FE51B540725F0D4
:100D3200F87440F61225ECC2B3C2B212195BB404C5
:100D42001575F03FE51B540725F0F8745CF6122583
:100D5200EC12A5BF80E5B402E275F03FE51B540733
:0F0D620025F0F87464F67544647545641225EC49
:100D710012A5BF80C780FE2275303C75313F7532A8
:100D81003175333075343112A8F61217D580F880D9
:100D9100FE20902A7800D8FE75A72074AAD2C91225
:100DA100A504FF12A4FCF54CB4F503B1C022B4F8BC
:100DB10003D1102212A4FCF54DD21275A700221204
:100DC100A4FCFC12A4FCFD12A4FCFE12A4FCFF90E6
:100DD100000012A4FCF0A3E5838EF0B5F0F4E582E7
:100DE1008FF0B5F0EDEDB40A16C0A775A70090E03D
:100DF10000780112A59005830583D8F7D0A722B406
:100E01000B0CECB4100312A517B4200280FE229043
:100E1100E0FDE49312A504A3E49312A504A3E493D3
:100E210012A504F55122C0E0C0A775A72020105DCE
:100E3100E547B40009E592B4557B05478077B401D5
:100E410009E592B4AA6F0547806BB40209E592B433
:100E510000630547805FB40308E592F542054780CA
:100E610054B40408E592F54405478049B40545E5C5
:100E710092F545754700D210E545B40009E544B443
:100E81000004D211802FC211754700802830110251
:100E91008010A847E592F20547E547B54517D211FD
:100EA1008013E592F543C210C211A847F2754700BD
:070EB100D212800100C2C84B
:100EB800D0A7D0E022C2081215B1751530750C09FB
:100EC800121A3B00B4552A750C1178007440F212BE
:100ED8001A5B750C1278007455F2121A5B750C13B4
:100EE80078007401F2121A5BF1381215B180408053
:100EF8003E75437975444075457D75466F7542006A
:100F08007541007540001225EC748F1214CE12142E
:100F1800B01214E312A5BF12A5BF12A5BF12A5BF38
:100F280012A5BF12A5BF12A5BF12A5BF43EF10227D
:100F3800750C0078007411F2121A5B12A5E4750C96
:100F48000178007411F2121A5B12A5E4750C02788C
:100F5800007411F2121A5B12A5E4750C0378007480
:100F680011F2121A5B750C0478007411F2121A5BF4
:100F780012A5E4750C0578007411F2121A5B12A51B
:100F8800E4750C0678007411F2121A5B12A5E47568
:100F98000C0778007411F2121A5B22E515B43901B6
:100FA8002204F515540F1219AA85F0421225EC7483
:100FB8003E12183E743112183E745012183EE51550
:100FC80012183E22E515B4310122E51514F5155421
:100FD8000F1219AA85F0421225EC743E12183E74BD
:100FE8003112183E745012183EE51512183E22E5CB
:100FF80090B4FFFBE590B4FF0280F991497A05753A
:1010080040067541007542007543001225EC12A593
:06101800BF12A5BF9149C3
:10101E007540007541067542007543001225EC12AD
:10102E00A5BF12A5BF9149754000754100754206D6
:10103E007543001225EC12A5BF12A5BF914975404C
:10104E00007541007542007543061225EC12A5BFCE
:10105E0091499149751801902000E518540F93F5A8
:10106E00461225EC12A5BFE590B4FF0280F90005EB
:10107E0018E518540F93F5461225EC914912A5BFA9
:10108E0080E58069B4FB667A047540087541087581
:10109E0042087543081225EC12A5BF7540407541F4
:1010AE00407542407543401225EC12A5BF754001B4
:1010BE007541017542017543011225EC12A5BFDA87
:1010CE00C87540107541107542107543101225EC0D
:1010DE0012A5BF12A5BF754020754120754220751F
:1010EE0043201225EC12A5BF12A5BF800022782343
:1010FE0075F004E51B5407A475F02025F0F8E6758D
:10110E00A71075A700E6F51B08E6F51C08E6F51D09
:10111E0008E6F51E12202F22312F31EF519AD2B14F
:10112E002275303C75313F75323175335512A8F644
:10113E0071A0853824853925853A26853B272009D7
:10114E007DE53854F0853824853925853A26853B4A
:10115E0027B40010754300754400754500754600B0
:10116E001225EC22B4100100B4200100B4E04BC2F1
:10117E00B1853824853925853A26853B27754079F2
:08118E00754379754440E53911
:10119600F5F0C4540F90200093F545E5F0540F90F8
:1011A600200093F5461225EC7152754300754400F4
:1011B600754500754600E539B401077540001225EE
:1011C600EC221225EC22C2B1752CE1752D00752E8C
:1011D60000752F0075407975437975444075453F14
:1011E60075463F1225EC71522275303C75313F75BC
:1011F600323275335512A8F671B6200974E53854A3
:10120600F0853828853929853A2A853B2BB400078D
:101216007541001225EC22B4100100B4200100B47F
:10122600E04BC2B1853828853929853A2A853B2B7A
:10123600754179754379754440E539F5F0C4540F25
:1012460090200093F545E5F0540F90200093F54665
:101256001225EC71527543007544007545007546BC
:1012660000E539B401077541001225EC221225EC80
:1012760022C2B1752CE2752D00752E00752F0075F2
:10128600417975437975444075453F75463F12254A
:10129600EC71522275303C75313F753233753355DA
:1012A60012A8F6200974E53854F0B43016752C30BF
:1012B6007542007543007544007545007546001279
:1012C60025EC22B4500100B4520100C2B185382C7D
:1012D60085392D853A2E853B2F754279754379756B
:1012E6004440E539F5F0C4540F90200093F545E5E8
:1012F600F0540F90200093F5461225EC7152754379
:04130600007544002A
:10130A007545007546001225ECE539B401077541AB
:10131A00001225EC2222C2B1752CE3752D00752E20
:10132A0000752F0075427975437975444075453FBC
:10133A0075463F1225EC7152754300754400754598
:10134A00007546001225EC2212197B12A5BF2087D0
:10135A00FAF157F5F012197BE5F0B408EE22C01B3A
:10136A00751B02751C00120C74C20F78C17400F24E
:10137A0078C97400F278D17400F278D97400F274E2
:10138A000075F0C1B1D7D01B2275303C75313F755D
:10139A003231753355222275373C7538017539005B
:1013AA00753A55753BAA753D30C2092275373C75A9
:1013BA003802753900753A55753BAA753D30C20930
:1013CA002275373C753811753900753A55753BAA3F
:1013DA00753D30C2092275373C7538227539057555
:1013EA003A55753BAA753D30C2092275373C7538A6
:1013FA00E1753907753AAA753B55753D30C2092220
:10140A0075373C7538E1753901753AAA753B5575DA
:10141A003D30C2092275373C7538E1753902753A93
:10142A00AA753B55753D30C2092275373C7538E3BC
:10143A00753904753AAA753B55753D30C20922C003
:10144A00E030160375DA46C000C001C0A8C2AF7901
:10145A00FA12A5E4D9FB797D12A5E4D9FBD0A8D06C
:0F146A0000D00175DA00C295D0E0227800D8FEDC
:101479007800D8FE7880D8FE22C2A4744091B0D2F8
:10148900A4B10FC2A474C091B0B10F7F0374399194
:10149900F01FEFB400F77473F5F091B0B10FE5F0F8
:1014A900C491B0D2A480FE7808C2A57906D9FE13EA
:1014B90092A67906D9FED2A5790BD9FEC2A57906DD
:1014C900D9FED8E522D2A5D2A67806D8FEC2A6783A
:1014D90008D8FEC2A57808D8FE22D2A57808D8FE79
:1014E900D2A67808D8FE22F5F091B0000000E5F008
:1014F9007800D8FE227808E4C2A5A2A6B10F33D29B
:10150900A5B10FD8F3227920D9FE22C2A47444913F
:10151900B0D2A4B10FC2A4E549F5F091B0B10FE57D
:1015290048F5F091B0B10FE5F0C491B0B10FD2A474
:1015390022B10FC2A4748F91B0D2A4227543397518
:101549004439754578754600754000754100754206
:10155900007547001225EC748F91CE91B091E3226A
:1015690075437875445C75457875464075403F7597
:10157900413F75423F7547001225EC748F91CE911A
:10158900B091E3227543397544397545787546003C
:101599007540007541007542007547001225EC74CD
:0315A9008F91CE51
:1015AC0091B091E32275400075410075420075437E
:1015BC00007544007545007546007547001225EC12
:1015CC00748F748191CE91B091E322C0E0744491F8
:1015DC00CE91B091E3B10F91CEE5F091B0B10FD0B7
:1015EC00E091F091E322748F91CE91B091E322C0FF
:1015FC00E0744491CE91B091E3B10F91CE74C3914C
:10160C00B0B10FD0E0E49391F0A3E49391F0A3E494
:10161C009391F0A3E49391F091E322C0E078C3742A
:10162C0064F208F208F208F278CB7464F208F2085B
:10163C00F208F278D37464F208F208F208F278DB5C
:10164C007464F208F208F208F2D0E022C0E0C0F0B4
:10165C00C0D0C000C001750C20121A3BF54B750CA4
:10166C0021121A3BF54AB400028006D215D213801F
:10167C000FE54BB400028006D215D2138002C213C0
:10168C00D001D000D0D0D0F0D0E022C2CFC0E01535
:10169C0013E513B40002D20AD0E022759100C20007
:0E16AC00C0A775A72053C17F00000043C18076
:1016BA00D0A722C0E075A710C29F75A700201540C9
:1016CA00154DE54DB40036754D0C154CE54CB4007E
:1016DA002C75310175320075330012A90475310277
:1016EA0075320075330012A904B16975A700C2AF3B
:1016FA002087FDD2AF12A5BF75EF1080FED0E02281
:10170A00754C78754D0CC215D0E02275A710C2C76A
:10171A0075A700C0E0C000C0011512E512B400149C
:10172A00D20C75120F122437E516B4C007B2901204
:10173A002480D20DD001D000D0E02275A710C2C7F4
:10174A0075A700C0E0B40002D20AD0E022C0E0C20D
:10175A008374C11218DB917574FF1218DBF54A9174
:10176A007574FF1218DBF54BD283D0E022C0E0C2B9
:10177A00831218DB917574FF1218DBF54A917574A0
:10178A00FF1218DBF54BD283D0E022C0E0C283748B
:10179A00401218DB917574FF1218DBF54A917574C3
:1017AA00FF1218DBF54BD283D0E022C0E0C283746B
:1017BA00201218DB917574FF1218DBF54A917574C3
:1017CA00FF1218DBF54BD283D0E02275CF9B75CE82
:1017DA00A0751304C20AC209782475F0A5E6121886
:1017EA003E25F0F5F008B82AF4E5F012183E75A780
:1017FA0010D2C275A700745512A980B44F1312A94A
:08180A0080B44B0DC209C20AB3
:1018120075A710C2C275A70022D209C20A75A71005
:10182200C2C275A7002222C0E0C0F0E4F5F0E49342
:10183200A36004113E80F7D0F0D0E0223099FDC2BF
:1018420099F59922C0E0C41158113ED0E0C0E011D0
:1018520058113ED0E022540FB40A0040022407245B
:101862003022C39430B40A00401BB41100401394D8
:1018720007B41000400FB42A0040079420B41000AF
:101882004003C374FFB3223098FDE599C29822C089
:10189200F0C000C2981189F500116440F6C4F5F059
:1018A200E500113EC2981189F500116440F645F039
:1018B200F5F0E500113EE5F0D000D0F0220A0D006F
:1018C200750F0AD2CAC2062098083006FAD207C299
:1018D2000622E599C298C20722F5A330FFFDC2FF96
:1018E200E5A32274FFF5A330FFFDE5A3C2FF22C2E8
:1018F20083740411DBD28312A5BF749075F0F231A8
:101902002F121475121475749175F002312F12147E
:1019120075121475749275F038312F1214751214F1
:1019220075C283740311DBD28312A5E422C2831130
:10193200DB121475E5F011DB121475D28322C28317
:0419420074C111DB80
:1019460012147574FF11DBF54A12147574FF11DB5E
:10195600F54BD283223013FDC21322319730870410
:10196600300BFA22121757E54BB40007E54AB400CC
:101976000280E2222222C0E0C28374C111DB12146B
:101986007574FF11DB12147574FF11DBD283D0E07E
:101996002222C0E0121757E54AB400F8E54BB4001E
:1019A600F3D0E02290200093F5F022B4100575F0F4
:1019B600308020B4010575F0068018B4020575F074
:1019C6005B8010B4030575F04F8008B4040575F00C
:1019D60064800022758300758200750D01750ED432
:1019E600D201D202D200C2D17920D205C204C209E4
:1019F600D2C52000FD22758300758200750D007525
:101A06000ED4D201D202D200C2D1C2047420240163
:101A1600F9D205C209D2C52000FD22750D00750E4A
:101A2600D4D201D202D200D204C2D1D205C209D286
:101A3600C52000FD22758300758200750D01750EA7
:101A4600D4C201D202D200C2D17901D205C204D2D7
:101A5600C52000FD22758300758200750D00750E88
:101A6600D4C201D202D200C2D1C2047902D205D2B6
:101A7600C52000FD22E5C054F0B4E02330D110E5C6
:0C1A86000D850EF045F0F5C2C2C5C2C0CF
:101A9200C20522E50EF5C2C2C5C2C0E50DB40102FF
:101AA200D2D122B4C04130040B30C105D2C4C2002D
:101AB20022D2C52230C14430052A20010F20021251
:101AC200E50DB40113D2C5D2D122800CC201850B1F
:101AD200C222C202850CC222D905D2C4C20022E0AF
:101AE200F5C2A322D20522B48010E5C2F0A3D90721
:0E1AF200C200C2C1D2C422D2C12222D2092215
:102000003F065B4F666D7D077F6F777C395E797128
:10201000C0E078C07400F208B8E0F974FFF274FF11
:1020200078C7F278CFF278D7F278DFF2D0E022E505
:102030001B54F0B40028E51C12AC2D540FB400045E
:102040007F008015B401047F00800EB402047F7607
:102050008007B403047F74800012ABC28039B410CF
:1020600027300F08007F0212A990802B12AC2DE5BB
:102070001C540FB40A047F73800590200093FF1254
:10208000ABC212AC2D801000B4200512ABE3800768
:10209000B4E00412AC080091372275A710C2C275D3
:1020A000A7007516C075120F12A8F685381B853962
:1020B0001C853A1D853B1E12AC75E51B540FB403FD
:1020C000022157300F0280022157AC1BAD1CAE1D00
:1020D000AF1E751B0212A8F6AA38AB39EA54F0F508
:1020E000F0C2D7EC54F025F0B4670100B4103CEC1A
:1020F00054F0B40006EDB4010E8030EA54F0B400A0
:102100002AEBB401028024C20F751B02751C001259
:102110000C747800D8FE751B01751C00120C7478C5
:1021200000D8FE918012AC2D4153008C1B8D1C8E6B
:102130001D8F1E800975A710D2C275A70022E52841
:1021400054F0B4E012751B0212A8F685381B8539CD
:0B2150001C853A1D853B1EB115E51BE8
:10215B0054F0B4E07E112F12AA0291378030E51BA8
:10216B00540FB403028027300F24C20F751B027566
:10217B001C00120C747800D8FE751B01751C001224
:10218B000C747800D8FE12195B1213688033121985
:10219B005BE54AB400C6E54BB401C112144971A604
:1021AB00E51B540FF51B751C00120C74300F1278C5
:1021BB0000D8FE121368751B01751C00120C74C23B
:1021CB000F112F71A6911A75A710D2C275A70022F5
:1021DB0002037DE51B540FB4030FE51E30E7051218
:1021EB00AB1A804912AC2D8044E51E30E70512ABCB
:1021FB001A800512AC2D8000300F0512A990802D8E
:10220B00802BE51E30E70312AB1AE51B540FB4030A
:10221B000AE51E20E70D12AC2D8008300F0512A920
:10222B00909137E51B54F0B4000312AC2D9137E5B8
:10223B001B54F0B40004515F800EB410045199800C
:10224B0007B4200451B68000913775A710D2C27520
:10225B00A700002278C7E24406F278CFE24406F2E8
:10226B0078D7E24406F278DFE24406F22278C7E23E
:10227B0054FD4404F278CFE254FD4404F278D7E2E3
:10228B0054FD4404F278DFE254FD4404F22278C793
:06229B00E254F94404F2D4
:1022A10078CFE254F9F278D7E254F94404F278DFB6
:1022B100E254F9F22278C7E254F94402F278CFE20B
:1022C10054F9F278D7E254F94402F278DFE254F992
:1022D100F22278C7E244E154E1F278CFE244E154DA
:1022E100E1F278D7E244E154E1F278DFE244E154EB
:1022F100E1F222C0E078C7E274E1F278CFE274E162
:10230100F278D7E274E1F278DFE274E1F2D0E02210
:10231100C0E078C7E24418F278CFE24418F278D7E7
:10232100E24418F278DFE24418F2D0E022C0E0780B
:10233100C7E254FBF278CFE254FBF278D7E254FBC8
:10234100F278DFE254FBF2D0E022C0E078C7E24449
:10235100E0F278CFE244E0C2E7F278D7E244E0F27B
:1023610078DFE244E0C2E7F2D0E022C0E078C7E2E1
:1023710054F8F278CFE254F8F278D7E254F8F278D0
:07238100DFE254F8F2D0E0A6
:1023880022C0E078C7E24404F278CFE24404F2784D
:10239800D7E24404F278DFE24404F2D0E022C0E05D
:1023A80078C7E24410F278CFE24410F278D7E244DA
:1023B80010F278DFE24410F2D0E022C0E078C7E201
:1023C8004402F278CFE24402F278D7E24402F2788B
:1023D800DFE24402F2D0E022C0E078C7E254FDF226
:1023E80078CFE254FDF278D7E254FDF278DFE25478
:1023F800FDF2D0E022C0E078C7E24407F278CFE2ED
:102408004407F278D7E24407F278DFE24407F2D0D3
:10241800E022C0E078C7E254F8F278CFE254F8F24C
:1024280078D7E254F8F278DFE254F8F2D0E022C02C
:1024380000C0E0C001C000A816E208F540E208F5B7
:1024480041E208F542E208F543E208F544E208F5FE
:1024580045E208F546E208F547E2B4FF0E7516C0F6
:06246800B1ECD000D00130
:10246E00D0E0D000228816B1ECD000D001D0E0D060
:10247E000022C0E0C000C00178F0791BE7F2080925
:10248E00B920F9751B0112A5E412A5E412A5E412F8
:10249E00A8F6853824853925853A26853B27852457
:1024AE001B85251C85261D85271EB115751B021241
:1024BE00A5E412A8F6853828853929853A2A853B60
:1024CE002B85281B85291C852A1D852B1EB1158061
:1024DE0023751B0312A5E412A8F685382C85392D19
:1024EE00853A2E853B2F852C1B852D1C852E1D8513
:1024FE002F1EB1150078F0791BE2F70809B920F903
:10250E00D001D000D0E022E51B54F0B40023E51C2E
:10251E00540FB400047F008013B401047F40800C7C
:10252E00B402047F768005B403027F7412ABC2A19D
:10253E00CAB4107CE51B540FB40302802F300F2C4D
:10254E00E51EC2E7B4011375A710C2C275A700122B
:10255E00144975A710D2C275A700E51B540FB4011C
:10256E00047F3E8042B402047F37803BE51C540F4B
:10257E00B40A047F73803090200093F5F0E51E308E
:10258E00E723E5F04480FFE51EC2E7B4011575A709
:10259E0010C2C275A70012144975A710D2C275A732
:1025AE00007FF88002AFF012ABC2300F00800D003A
:0F25BE00B4200512ABE3800412AC080022A2E7A0
:1025CD0092B4A2E692A1A2E592A2A2E492A3A2E302
:1025DD0092B0A2E292B1A2E192B3A2E092B42274BF
:1025ED00401214CE1214B01214E312150F74C0124F
:1025FD0014CE1214B012150FE5401214F0E541126D
:10260D0014F0E5421214F0E5431214F0E5441214EF
:10261D00F0E5451214F0E5461214F0E5471214F0FA
:10262D001214E32290AD2FD1CF227F4078C3EFF269
:10263D0078CBEFF278D3EFF278DBEFF27F4078C40E
:10264D00EFF278CCEFF278D4EFF278DCEFF27F4056
:10265D0078C5EFF278CDEFF278D5EFF278DDEFF2C5
:10266D007F4078C6EFF278CEEFF278D6EFF278DED3
:10267D00EFF22290AD1FD1CF227F3F78C3EFF278DA
:10268D00CBEFF278D3EFF278DBEFF27F3F78C4EF48
:10269D00F278CCEFF278D4EFF278DCEFF27F3F787E
:1026AD00C5EFF278CDEFF278D5EFF278DDEFF27F6E
:0C26BD003F78C6EFF278CEEFF278D6EF4F
:1026C900F278DEEFF22278C3E493F208A3E493F2FE
:1026D90008A3E493F208A3E493F208A3E875F004CD
:1026E90025F0F8B4E3E22290AD0FD1CF2275F06462
:1026F90084FAE5F075F00A84FBACF02290E0FD1253
:10270900A5909020047830902004E0906000C2AF3A
:10271900438F01538FFD75B7A575B7F1F09020056B
:10272900E0906001C2AF438F01538FFD75B7A57566
:10273900B7F1F0902006E0906002C2AF438F0153D9
:102749008FFD75B7A575B7F1F02290E0FD12A59040
:102759009020047830902004E0906000C2AF438F4D
:1027690001538FFD75B7A575B7F1F0902005E0907D
:102779006001C2AF438F01538FFD75B7A575B7F1DE
:10278900F0902006E0906002C2AF438F01538FFDA5
:0827990075B7A575B7F1F02238
:0134000012B9
:0138000001C6
:10A0000075D84053D9BF75D90475DA4675FC0A2254
:10A01000758850758922758E04758C02758DCB7587
:10A02000CA9375CB3875CE9E75CF38227598527508
:10A03000A72075C8127594437596FD75958275A70E
:10A04000002275C1802275A17075F80175A20822E1
:10A0500075A72075A52475A63E75D4C875D5077556
:10A06000E10375E34175A7002275A9102275E60189
:10A0700075A8A0227597DE7597AD12A00012A010EA
:10A0800012A02C12A04212A04612A05012A06912D7
:10A09000A06D75815875DA3053B0E0C295C206C222
:10A0A000D7C20D751000C20EC2B0908000E493902C
:10A0B0000200F5F0C4540F4430F0A3E5F0540F440F
:10A0C00030F0A3742EF0908001E493900203F5F039
:10A0D000C4540F4430F0A3E5F0540F4430F0A3749F
:10A0E0002EF0908002E493900206F5F0C4540F44E1
:10A0F00030F0A3E5F0540F4430F00201B0C2AF7568
:10A10000A7205113E542B4000451B480F5B401F91D
:10A11000C2B191247800D8FE517651135113313ECB
:10A12000E542B403F77800E2B404F1C2B38000C2A0
:10A13000D730D704517651135113313E80FAE5429E
:0BA14000B4000351B422B40107780002
:10A14B00D8FE912422B402077800D8FE910722B4DE
:10A15B0003077800D8FE51F322B4060331DD22B495
:10A16B00083A7800D8FE51B42275406775411275D4
:10A17B00423475435671107800D8FE7540697541AD
:10A18B007875429075430971107800D8FE75406A56
:10A19B00754187754265754365711022B40A19784C
:10A1AB0000D8FEE545B404028007D20771B771C928
:10A1BB0022C207719E71C922B40B127800D8FE30EF
:10A1CB00070600B15B71EA22B11771EA2251B4B1F3
:10A1DB00BF227455B10474AAB1047403B10474079B
:10A1EB00B10475F009E544B10425F0F5F0E545B18E
:10A1FB000425F0F5F07800E2B10425F0F5F008E85D
:10A20B00B545F4E5F0B1042275F00091FCB455F8B6
:10A21B0025F0F5F091FCB4AAEF25F0F5F091FCB424
:10A22B0000E625F0F5F091FCF54225F0F5F091FCF8
:10A23B00F54425F0F5F091FCF54525F0F5F0E545F5
:10A24B00B40007E544B40002801690000091FCF0C6
:10A25B0025F0F5F0A3E582B545F3E583B544EE00B3
:10A26B0091FCF543B5F001220080FE7455B10474E6
:07A27B00AAB1047403B10451
:10A282007404B1047400B1047400B1047406B1041E
:10A29200227455B10474AAB1047403B1047400B1F8
:10A2A200047400B1047401B1047401B1047404B102
:10A2B20004227455B10474AAB1047403B104740085
:10A2C200B1047400B1047401B1047401B1047404E2
:10A2D200B1042291FCB455FB91FCB4AAF691FC5353
:10A2E2009DFB91FC91FC91FCF891FCF2D8FBB4012E
:10A2F200E27455B10474AAB1047403B1047403B1D5
:10A30200047400B1047400B1047405B1042290A372
:10A3120078781379A0E493F709A3D8F978A6E540F1
:10A32200F6E541F5F0C4540F443078AAF6E5F0544E
:10A332000F443078ABF6E542F5F0C4540F44307860
:10A34200ADF6E5F0540F443078AEF6E543F5F0C4CF
:10A35200540F443078B0F6E5F0540F443078B1F63B
:10A3620078A075F000E6B10425F0F5F008B8B2F572
:10A37200E5F0B104222255AA0307000C6703000886
:10A3820038332E36302E30311955AA0307000C67A8
:10A3920003000832302E30392E38390FC0A775A786
:10A3A200009000007810B190058305830583058332
:10A3B200D8F4D0A7229080007804B1900583058359
:02A3C200058311
:10A3C4000583D8F4227455B10474AAB1047403B19A
:10A3D40004740AB1047400B1047401B1047400B1CA
:10A3E40004740DB104227455B10474AAB104740345
:10A3F400B104740BB1047400B1047400B104740D9D
:10A40400B104227455B10474AAB1047403B1047480
:10A4140002B1047400B1047400B1047404B10422E0
:10A42400783190A6ACE493B104A3D8F92275F00076
:10A4340090A659780CE493B10425F0F5F0A3D8F56F
:10A4440090A6DD7810E493B10425F0F5F0A3D8F5D7
:10A4540090A6757807E493B10425F0F5F0A3D8F538
:10A4640090E0FD7808E493C4540F4430B10425F01F
:10A47400F5F0E493540F4430B10425F0F5F0742E54
:10A48400B10425F0F5F0A3E493C4540F4430B104AF
:10A4940025F0F5F0E493540F4430B10425F0F5F0C1
:10A4A400742EB10425F0F5F0A3E493C4540F4430A2
:10A4B400B10425F0F5F0E493540F4430B10425F0D1
:0FA4C400F5F090A684781BE493B10425F0F5F031
:10A4D300A3D8F59002007808E4E0B10425F0F5F084
:10A4E300A3D8F590A6A77804E493B10425F0F5F07A
:10A4F300A3D8F500E5F0B1042230C8FDE592C2C847
:10A503002275A72030C9FDC2C9F59230C9FD75A7D0
:10A5130000220022C0A775A7007802E2FE7803E2BA
:10A52300FF9000047800E0F2A308B800F99000005F
:10A5330090E000E5832EF5837800E2438F01538F8B
:10A54300FD75B7A575B7F1F0A308B800ED538FFEFD
:10A55300538FFDD0A7B2B3227802E2FE7803E2FF65
:10A563009000047800E0F2A308B800F9908000E5B9
:10A57300832EF5837800E2438F01538FFD75B7A5D2
:10A5830075B7F1F0A308B800ED22780022C0A8C285
:10A59300AF75B7A575B7F1438F02438F01F0538FA2
:10A5A300FE538FFDD0A822C000C001C0A8C2AF795E
:10A5B300FAB1E4D9FCD0A8D000D00122C000C00178
:10A5C300C0A8C2AF7964B1E4D9FCD0A8D000D0014F
:10A5D30022C08E78C8D28CC28D308DFDD8F9D08E32
:10A5E30022C00078C8D28CC28D308DFDD8F9D0003E
:10A5F3002255AA0301002A7B2270223A2265623285
:10A603006C6F7375303176636274656F74222C22BC
:10A6130076223A22322E302E30222C226D223A30EC
:10A623007D0455AA0301002D7B2270223A22743443
:10A63300796C6162757A66376B7175787670222CE6
:10A643002276223A2234322E30322E3031222C22FC
:10A653006D223A307DCF55AA0301004C7B22702234
:10A663003A22366A336B6F717A736E783062707622
:10A673006171222C2276223A2234322E30322E304D
:10A6830031222C226D223A302C226D61223A5B7BDF
:10A693002274223A31302C2276223A2238302E3458
:10A6A300332E3231227D5D7D5655AA0301002A7B6C
:10A6B3002270223A22366A336B6F717A736E783066
:10A6C3006270766171222C2276223A22312E302E4C
:10A6D30030222C226D223A307D2A366A336B6F7119
:10A6E3007A736E78306270766171C2121214497592
:10A6F300435075440075453975467875400075417A
:10A70300007542007547001225EC748F1214CE12A7
:10A7130014B01214E312201090AD4F7516C07531AA
:10A723006075320075330112A904B1BF1224807819
:10A7330000D8FE1224807800D8FEC20B75A710D271
:10A743009A75A7003013FDC213E54AB40007E54B21
:10A75300B40102801AE54AB402EAE54BB400E57598
:10A763004EF0754F0012A8C77800D8FE43EF10C211
:10A773000B75A710D29A75A700754EF0754F01128D
:10A78300A8C7121449301207C21212144980163096
:10A793000DF3C20DE52454F0B4E00512A8A780E53B
:10A7A30080E3121449E54CB46504F1EF80D7E54C1E
:10A7B300B4660512A82080CDE54CB4680512A852F2
:10A7C30080C3E54CB4690512A85D80B9E54CB46B50
:10A7D3000512A86880AFE54CB46F0343EF10E54C56
:10A7E300B47B0512A898809D74558099E54DB401FA
:10A7F300177401540F4410F5317532803104754ECE
:10A8030011754F0111C700227401540FF51B751CFC
:10A8130000120C74754E01754F0211C722E54DB439
:10A8230001177402540F4410F531753280310475E9
:10A833004E12754F0111C700227402540FF51B7598
:10A843001C00120C74754E02754F0211C72222753B
:10A853001B11E54DF51C120C7422751B12E54DF509
:10A863001C120C7422751B017400F51C120C7478F5
:10A8730000D8FEE54DB40114751B217400F51C12BC
:10A883000C74754E21754F0011C78008754E017504
:10A893004F0011C7221208A3754EF5754F7B7550F3
:10A8A3000011C72285244E85254F11C722754EF10D
:10A8B30090E0FDE493F54FA3E493F550A3E493F5FF
:10A8C3005111C722C2AF53E6FDC29075A72078800D
:10A8D300D8FED290E54E12A504E54F12A504E5502B
:10A8E30012A504E55112A50475A70043E602D2AFF1
:10A8F3002200223170E51B5407F5F0E53125F0F510
:10A9030031E599C29875CF9B75CEA0751304C20A21
:10A91300C209783075F0A575303EE612183E25F071
:10A92300F5F008B835F4E5F012183ED2CA3099FDB7
:10A933003180200A23783875F0E33180200A19F634
:10A9430025F0F5F008B83CF23180200A0BB5F00889
:10A9530000C209C20AC2CA22D209C20AC2CAE53166
:0DA96300540775F0E025F0F5387539002235
:10A9700075303E7531D07532007533007534002264
:10A98000209808300AFA7455C29822E599C2982294
:10A99000C0E0E51B54F0B4106678C37471F278CB54
:10A9A0007471F278DB7471F278C47438F278CC7414
:10A9B00038F278DC7438F278C57400F278CD74001F
:10A9C000F278DD7400F2E51C540FB40A047F738042
:10A9D0000A90200093A216B392E7FF78C6EFF278B0
:10A9E000CEEFF278DEEFF2E51E20E71378D3747134
:10A9F000F278D47438F278D57400F278D6EFF2D0C9
:10AA0000E022C0E078C47479F278CC7479F278D41A
:10AA10007479F278DC7479F2E51B54079020009386
:10AA2000FF78C3EFF278CBEFF278D3EFF278DBEF79
:10AA3000F2E51CC4540F90200093FF78C5EFF27824
:10AA4000CDEFF278D5EFF278DDEFF2E51C540F9000
:10AA5000200093A216B392E7FF78C6EFF278CEEF0C
:09AA6000F278D6EFF278DEEFF295
:10AA690078C7E2440EF278CFE2440EF278D7E24496
:10AA79000EF278DFE2440EF2D0E022C0E0E51B548A
:10AA8900F0B4E00451026117E51C540FB40005123B
:10AA99002631807AB401051226808072B40205122B
:10AAA90026F0806AB4020100E51DC4540F9020000D
:10AAB90093FF78C3EFF278CBEFF278D3EFF278DB3C
:10AAC900EFF2E51D540F90200093FF78C4EFF27860
:10AAD900CCEFF278D4EFF278DCEFF2E51EC4540F34
:10AAE90090200093FF78C5EFF278CDEFF278D5EF9B
:10AAF900F278DDEFF2E51E540F90200093FF78C63F
:10AB0900EFF278CEEFF278D6EFF278DEEFF2D0E01E
:10AB190022C0E0E51B540790200093FF7F7878C39B
:10AB2900EFF278CBEFF278D3EFF278DBEFF2E51EB4
:10AB3900C2E71226F6EA540FB4001678C47400F27C
:10AB490078CC7400F278D47400F278DC7400F28066
:06AB59001590200093FF9F
:10AB5F0078C4EFF278CCEFF278D4EFF278DCEFF242
:10AB6F00EB540F90200093FF78C5EFF278CDEFF202
:10AB7F0078D5EFF278DDEFF2EC540F90200093A22E
:10AB8F0016B392E7FF78C6EFF278CEEFF278D6EFF2
:10AB9F00F278DEEFF2D0E02278C7E254FDF278CF00
:10ABAF00E24402F278D7E254FDF278DFE24402F297
:10ABBF00D0E02275F0BFE51B540725F0F8EFF5F054
:10ABCF00F2E82408F8EFF2E82408F8EFF2E8240896
:10ABDF00F8EFF22275F0BFE51B540725F0F8740863
:10ABEF00F5F0F2E82408F87448F2E82408F87449FC
:10ABFF00F2E82408F87400F22275F0BFE51B540741
:10AC0F0025F0F87479F5F0F2E82408F87479F2E891
:10AC1F002408F87479F2E82408F87479F222C0E075
:0AAC2F0078C37400F208F208F2087E
:10AC3900F278CB7400F208F208F208F278D37400C3
:10AC4900F208F208F208F278DB7400F208F208F26E
:10AC590008F220161478C67480F278CE7480F278DF
:10AC6900D67480F278DE7480F2D0E022E51B5407B6
:10AC7900200F518517F0B40124E51778C7E244E0A5
:10AC8900D2E7F278CFE244E0C2E7F278D7E244E0D3
:10AC9900D2E7F278DFE244E0C2E7F2804CB402493D
:10ACA900E51778C7E244E0D2E6F278CFE244E0C2A1
:10ACB900E6F278D7E244E0D2E6F278DFE244E0C295
:10ACC900E6F28025B40322E51778C7E244E0D2E52D
:10ACD900F278CFE244E0C2E5F278D7E244E0D2E587
:10ACE900F278DFE244E0C2E5F22290AD4B78C7E4A6
:10ACF90093F2A378CFE493F2A378D7E493F2A378FD
:10AD0900DFE493F2A322390909403909090F390906
:10AD1900090F3909090F64404040406464404040CC
:10AD290064644040406440000000404000004040EE
:10AD39004000404040406464646400393854000075
:10AD49000000E1E1E1E1087D3F3000000000487DBD
:10AD5900000001010000497D3F0000000600007D60
:07AD6900040008080000FFD0
:10C000008034FFFFFFFFFFFFFFFFFFFFFFFFFFFF8A
:10C01000FFFFFFFFFFFFFFFFFFFFFFFFFFFFFFFF30
:03E0FD0012345684
:00000001FF
