:0200000021A33A
:03003B00F150324F
:03007300F1613206
:03008B00F17332DC
:0300FD00C104003B
:1001000075D84053D9BF75D90475DA0075FC1F4303
:10011000D94022758850758921758E0A758CF075C5
:100120008D967593AF7595AF75A71075980375A7E4
:1001300000227598522275A14075F80175A203221C
:1001400075BB1175BB1075BB0D75AF1175DF77757C
:10015000B94075E88375B25A75B21A75B30022E5D5
:10016000D1448044B0F5D12275A72075F1FE75F217
:10017000DF75F3D775A40E75A51375D48775D520D3
:1001800075CCB875E10375E20175E34075A700759C
:10019000A90075B11C43B1802275F30475E6807522
:1001A000A8A022C2947597DE7597ADC296C2971229
:1001B000010012011312013212013612015F120105
:1001C0006812018F12019943EF0275A71075D59B34
:1001D00075D4A075D39B75D2A0C2C790180AE493BA
:1001E000F5A5A3E493F5A475A700758150753000BB
:1001F00075820075830074007400F0A3E583B40277
:10020000F70000C292C293C2A0D296C29743910453
:1002100075310075DA00F10D901808E493F5C4A368
:10022000E493F5C375C50075C600C2027800F100FD
:10023000D8FC120846740012084D740012084D9044
:1002400008CF7824740093F6A308E8B42EF678005B
:0E0250009008AFE493F208A3E8B420F791C53C
:10025E00780B901800E493F2A308E493F2D1CF75D3
:10026E00A710D2C230C7FDC2C730C7FDC2C730C744
:10027E00FDC2C730C7FDC2C730C7FDC2C730C7FDFC
:10028E00C2C730C7FDC2C730C7FDC2C730C7FDC227
:10029E00C775A700F100B114F1373000F7D2CA7557
:1002AE00DA46901800780BE493F2780CA3E493F2FC
:1002BE00F2B114F100B11475A710D2C230C7FDC24D
:1002CE00C730C7FDC2C730C7FDC2C730C7FDC2C7E2
:1002DE0030C7FDC2C730C7FDC2C730C7FDC2C73069
:1002EE00C7FDC2C730C7FDC2C775A700F100B11464
:1002FE003000F9C2A0F100F13730A439D29475A7BD
:10030E0010C29A75A700901802780BE493F2780C3D
:10031E00A3E493F2F261C520B31BD29475A710C269
:10032E009A75A700901804780BE493F2780CA3E466
:10033E0093F2F261C575A710A29A75A70020D71A7D
:10034E0090180A75A710E493F5A5A3E493F5A47588
:10035E00A70075A710D29A75A700901800780BE425
:10036E0093F2780CA3E493F2F2804C8017E5BD75FE
:0D037E00F0D0C2D795F0E5BE75F00895F0FF
:10038B0030D704913A803330943090086FE5BE93A8
:10039B00E5BEC2D713FAE5BD13FBEA2402FA780BCC
:1003AB00EAF2780CEB54F0F28010D293B292780B05
:1003BB00740CF2780C74BAF28000B114F100B11421
:1003CB00D2A041C500C2EBD2EC30EDFDC2EBC2EDC9
:1003DB00D2EC30EDFDC2EBC2EDD2EC30EDFDC2ED57
:1003EB0020EB0122300224901804780BE493F2786E
:1003FB000CA3E493F2F2901808E493F5C4A3E493EE
:10040B00F5C375C50075C600C20222901802780BA1
:10041B00E493F2780CA3E493F2F2901806E493F5CC
:10042B00C6A3E493F5C575C3FF75C4FFD20222E5DD
:10043B00BD75F040C2D795F0E5BE75F00795F0207D
:10044B00D711780B7401F2780C7423F2D292C29309
:10045B00C29422E5BD75F030C2D795F0E5BE75F0BC
:10046B000695F020D70F780B7403F2780C7435F2E5
:10047B00B292D29422E5BD75F020C2D795F0E5BEBD
:10048B0075F00495F020D711780B7404F2780C7486
:02049B0023F24A
:10049D00B293C292D29422780B7405F2780C7469DF
:1004AD00F2D293D292D29422900819F1807820E260
:1004BD00F19D08E8B840F822C2827427B1F774FFA5
:1004CD00B1F7D282D123D130D14D740175F001D164
:1004DD00AF740275F001D1AF740475F033D1AF7400
:1004ED000675F00FD1AF740075F00ED1AFD116D1E6
:1004FD0023741C75F001D1AF741D75F006D1AF7466
:10050D000575F000D1AF22D10BB40E02802DB41EB3
:10051D000D742775F01ED1AFD123D116801DB42EC9
:10052D0009742775F01ED1AF8011B460028050742C
:10053D002775F0FFD1AFD116C20022D1E2C281D111
:10054D00CFD281D1EFD10B758C00758A00D28C3052
:10055D00870E308DFAC28DC28CD116D123C20022E6
:10056D00C28CD10BB42E15742775F02ED1AFD116C8
:10057D00742775F0FED1AFD200228003C20022D1C4
:10058D00BC742775F060D1AFD1237810D8FE7427D5
:10059D0075F060D1AFD20022D130D16AD187C2823D
:1005AD007427B1F774FFB1F7D282D10BD1A480FEBD
:1005BD00B1C3F0A380FA780874003090FDA2923395
:0605CD00D8042090FD227D
:1005D3002090FD80EF758200758300B1EDF0A3E5F7
:1005E30083B402F70080FE00000030FFFDC2FFE588
:1005F300A32280F6F5A330FFFDC2FF2274FFF5A30B
:1006030030FFFDE5A3C2FF22C2827407B1F7B1FF39
:10061300D28222C28274E1B1F774FFB1FFD2822287
:10062300C28274E2B1F774FFB1F7D28222C282743C
:1006330030B1F7E524B1F7E525B1F7E526B1F7E5E4
:1006430027B1F7E528B1F7D28222C282742AB1F723
:10065300E529B1F7E52AB1F7E52BB1F7E52CB1F7B9
:10066300E52DB1F7D28222C2827410B1F7B1FFF542
:1006730024B1FFF525B1FFF526B1FFF527B1FFF54D
:1006830028D28222C282740AB1F7B1FFF529B1FFE1
:10069300F52AB1FFF52BB1FFF52CB1FFF52DD28271
:1006A30022C2827409B1F7B1FFD28222C2824420EE
:1006B300B1F7E5F0B1F7D28222C28278207461B13A
:1006C300F7B1FFF208E8B440F8D28222C282780080
:1006D30074A0B1F7E2B1F708E8B420F8D28222752A
:0C06E3008200758300A3E583B401FA22B5
:1006EF00C2B2758200758300A3E583B403FAD2B258
:1006FF0022758200758300A3E583B43EFA227582CA
:10070F0000758300A3E583B4F8FA22C0BB75BB0B59
:10071F00D2EC30EDFDC2EDD2EC30EDFDC2EDD2ECFE
:10072F0030EDFDC2EDD0BB2222D2EC30EDFDC2ED9B
:10073F00D2EC30EDFDC2EDC2EBD2EC30EDFDC2EDEF
:10074F0022C2CF0531E531B40A0775DA00753100E1
:10075F00222253917F309606C29600D29722C297DB
:10076F0000D29622C29475A710C29AC29F75A70095
:10077F0022C0E0C0F0E4F5F0E493A36004F19580AB
:10078F00F7D0F0D0E0223099FDC299F59922C0E060
:10079F00C4F1AFF195D0E0C0E0F1AFF195D0E02218
:1007AF00540FB40A0040022407243022C39430B4FB
:1007BF000A00401BB4110040139407B41000400FFF
:1007CF00B42A0040079420B410004003C374FFB351
:1007DF00223098FDE599C29822C0F0C000C298F16E
:1007EF00E0F500F1BB40F6C4F5F0E500F195C298D5
:1007FF001207E0F5001207BB40F445F0F5F0E500F5
:10080F00120795E5F0D000D0F0220A0D000A0D5422
:10081F00455354205245535055455354410A0D20CA
:10082F0020202020202056454C4F4349444144204E
:0D083F00554152540A0D00752EFF752FFF14
:10084C0022C000C0E07808622FC3E52E13F52EE518
:10085C002F13F52F5006632EA0632F01D8EBD0E099
:10086C00D000220101010202030405060708090A4F
:10087C000B0C0D020202020202020202020202022E
:10088C00020202020202020202020202020202023C
:10089C00020202020202020202020202020202022C
:1008AC000202021F0A0010000011360002A2000012
:1008BC00000000000000000000000000000000002C
:0D08CC00B85ACDF7F7F7F7F7F7F7F7F7F79A
:101800000200058003100100013BA090FFFFFFFFD5
:00000001FF
